{
  "_format": "hh-sol-artifact-1",
  "contractName": "AuthorManager",
  "sourceName": "contracts/AuthorManager.sol",
  "abi": [
    {
      "anonymous": false,
      "inputs": [
        {
          "indexed": true,
          "internalType": "address",
          "name": "author",
          "type": "address"
        },
        {
          "indexed": false,
          "internalType": "string",
          "name": "penName",
          "type": "string"
        },
        {
          "indexed": false,
          "internalType": "uint256",
          "name": "timestamp",
          "type": "uint256"
        }
      ],
      "name": "AuthorRegistered",
      "type": "event"
    },
    {
      "anonymous": false,
      "inputs": [
        {
          "indexed": true,
          "internalType": "address",
          "name": "author",
          "type": "address"
        },
        {
          "indexed": false,
          "internalType": "uint32",
          "name": "storyCount",
          "type": "uint32"
        },
        {
          "indexed": false,
          "internalType": "uint256",
          "name": "wordCount",
          "type": "uint256"
        },
        {
          "indexed": false,
          "internalType": "uint256",
          "name": "earningsToken",
          "type": "uint256"
        },
        {
          "indexed": false,
          "internalType": "uint256",
          "name": "earningsBNB",
          "type": "uint256"
        },
        {
          "indexed": false,
          "internalType": "uint256",
          "name": "timestamp",
          "type": "uint256"
        }
      ],
      "name": "AuthorStatsUpdated",
      "type": "event"
    },
    {
      "anonymous": false,
      "inputs": [
        {
          "indexed": true,
          "internalType": "address",
          "name": "previousOwner",
          "type": "address"
        },
        {
          "indexed": true,
          "internalType": "address",
          "name": "newOwner",
          "type": "address"
        }
      ],
      "name": "OwnershipTransferred",
      "type": "event"
    },
    {
      "anonymous": false,
      "inputs": [
        {
          "indexed": true,
          "internalType": "address",
          "name": "author",
          "type": "address"
        },
        {
          "indexed": false,
          "internalType": "string",
          "name": "oldPenName",
          "type": "string"
        },
        {
          "indexed": false,
          "internalType": "string",
          "name": "newPenName",
          "type": "string"
        },
        {
          "indexed": false,
          "internalType": "uint256",
          "name": "timestamp",
          "type": "uint256"
        }
      ],
      "name": "PenNameUpdated",
      "type": "event"
    },
    {
      "anonymous": false,
      "inputs": [
        {
          "indexed": true,
          "internalType": "address",
          "name": "author",
          "type": "address"
        },
        {
          "indexed": true,
          "internalType": "uint256",
          "name": "storyId",
          "type": "uint256"
        },
        {
          "indexed": false,
          "internalType": "uint256",
          "name": "timestamp",
          "type": "uint256"
        }
      ],
      "name": "WorkAdded",
      "type": "event"
    },
    {
      "inputs": [],
      "name": "MAX_PEN_NAME_LENGTH",
      "outputs": [
        {
          "internalType": "uint256",
          "name": "",
          "type": "uint256"
        }
      ],
      "stateMutability": "view",
      "type": "function"
    },
    {
      "inputs": [],
      "name": "MAX_STORIES_PER_AUTHOR",
      "outputs": [
        {
          "internalType": "uint256",
          "name": "",
          "type": "uint256"
        }
      ],
      "stateMutability": "view",
      "type": "function"
    },
    {
      "inputs": [],
      "name": "MIN_PEN_NAME_LENGTH",
      "outputs": [
        {
          "internalType": "uint256",
          "name": "",
          "type": "uint256"
        }
      ],
      "stateMutability": "view",
      "type": "function"
    },
    {
      "inputs": [
        {
          "internalType": "address",
          "name": "author",
          "type": "address"
        },
        {
          "internalType": "uint256",
          "name": "storyId",
          "type": "uint256"
        }
      ],
      "name": "addWork",
      "outputs": [],
      "stateMutability": "nonpayable",
      "type": "function"
    },
    {
      "inputs": [
        {
          "internalType": "address",
          "name": "",
          "type": "address"
        },
        {
          "internalType": "uint256",
          "name": "",
          "type": "uint256"
        }
      ],
      "name": "authorWorks",
      "outputs": [
        {
          "internalType": "uint256",
          "name": "",
          "type": "uint256"
        }
      ],
      "stateMutability": "view",
      "type": "function"
    },
    {
      "inputs": [
        {
          "internalType": "address",
          "name": "",
          "type": "address"
        }
      ],
      "name": "authors",
      "outputs": [
        {
          "internalType": "address",
          "name": "authorAddress",
          "type": "address"
        },
        {
          "internalType": "string",
          "name": "penName",
          "type": "string"
        },
        {
          "internalType": "uint32",
          "name": "storyCount",
          "type": "uint32"
        },
        {
          "internalType": "uint256",
          "name": "totalWordCount",
          "type": "uint256"
        },
        {
          "internalType": "uint256",
          "name": "totalEarningsBNB",
          "type": "uint256"
        },
        {
          "internalType": "uint256",
          "name": "totalEarningsToken",
          "type": "uint256"
        },
        {
          "internalType": "uint256",
          "name": "totalMiningRewards",
          "type": "uint256"
        },
        {
          "internalType": "uint256",
          "name": "createdAt",
          "type": "uint256"
        },
        {
          "internalType": "uint256",
          "name": "lastUpdate",
          "type": "uint256"
        },
        {
          "internalType": "bool",
          "name": "isActive",
          "type": "bool"
        }
      ],
      "stateMutability": "view",
      "type": "function"
    },
    {
      "inputs": [
        {
          "internalType": "address",
          "name": "authorAddress",
          "type": "address"
        }
      ],
      "name": "getAuthor",
      "outputs": [
        {
          "components": [
            {
              "internalType": "address",
              "name": "authorAddress",
              "type": "address"
            },
            {
              "internalType": "string",
              "name": "penName",
              "type": "string"
            },
            {
              "internalType": "uint32",
              "name": "storyCount",
              "type": "uint32"
            },
            {
              "internalType": "uint256",
              "name": "totalWordCount",
              "type": "uint256"
            },
            {
              "internalType": "uint256",
              "name": "totalEarningsBNB",
              "type": "uint256"
            },
            {
              "internalType": "uint256",
              "name": "totalEarningsToken",
              "type": "uint256"
            },
            {
              "internalType": "uint256",
              "name": "totalMiningRewards",
              "type": "uint256"
            },
            {
              "internalType": "uint256",
              "name": "createdAt",
              "type": "uint256"
            },
            {
              "internalType": "uint256",
              "name": "lastUpdate",
              "type": "uint256"
            },
            {
              "internalType": "bool",
              "name": "isActive",
              "type": "bool"
            }
          ],
          "internalType": "struct AuthorManager.Author",
          "name": "",
          "type": "tuple"
        }
      ],
      "stateMutability": "view",
      "type": "function"
    },
    {
      "inputs": [],
      "name": "getAuthorCount",
      "outputs": [
        {
          "internalType": "uint256",
          "name": "",
          "type": "uint256"
        }
      ],
      "stateMutability": "view",
      "type": "function"
    },
    {
      "inputs": [
        {
          "internalType": "address",
          "name": "author",
          "type": "address"
        }
      ],
      "name": "getAuthorWorks",
      "outputs": [
        {
          "internalType": "uint256[]",
          "name": "",
          "type": "uint256[]"
        }
      ],
      "stateMutability": "view",
      "type": "function"
    },
    {
      "inputs": [
        {
          "internalType": "string",
          "name": "penName",
          "type": "string"
        }
      ],
      "name": "isPenNameTaken",
      "outputs": [
        {
          "internalType": "bool",
          "name": "",
          "type": "bool"
        }
      ],
      "stateMutability": "view",
      "type": "function"
    },
    {
      "inputs": [],
      "name": "owner",
      "outputs": [
        {
          "internalType": "address",
          "name": "",
          "type": "address"
        }
      ],
      "stateMutability": "view",
      "type": "function"
    },
    {
      "inputs": [
        {
          "internalType": "string",
          "name": "",
          "type": "string"
        }
      ],
      "name": "penNameToAddress",
      "outputs": [
        {
          "internalType": "address",
          "name": "",
          "type": "address"
        }
      ],
      "stateMutability": "view",
      "type": "function"
    },
    {
      "inputs": [
        {
          "internalType": "string",
          "name": "penName",
          "type": "string"
        }
      ],
      "name": "registerAuthor",
      "outputs": [],
      "stateMutability": "nonpayable",
      "type": "function"
    },
    {
      "inputs": [],
      "name": "renounceOwnership",
      "outputs": [],
      "stateMutability": "nonpayable",
      "type": "function"
    },
    {
      "inputs": [
        {
          "internalType": "address",
          "name": "_storyManager",
          "type": "address"
        }
      ],
      "name": "setStoryManager",
      "outputs": [],
      "stateMutability": "nonpayable",
      "type": "function"
    },
    {
      "inputs": [],
      "name": "storyManager",
      "outputs": [
        {
          "internalType": "address",
          "name": "",
          "type": "address"
        }
      ],
      "stateMutability": "view",
      "type": "function"
    },
    {
      "inputs": [
        {
          "internalType": "address",
          "name": "newOwner",
          "type": "address"
        }
      ],
      "name": "transferOwnership",
      "outputs": [],
      "stateMutability": "nonpayable",
      "type": "function"
    },
    {
      "inputs": [
        {
          "internalType": "uint32",
          "name": "storyCountDelta",
          "type": "uint32"
        },
        {
          "internalType": "uint256",
          "name": "wordCountDelta",
          "type": "uint256"
        },
        {
          "internalType": "uint256",
          "name": "earningsTokenDelta",
          "type": "uint256"
        },
        {
          "internalType": "uint256",
          "name": "earningsBNBDelta",
          "type": "uint256"
        }
      ],
      "name": "updateAuthorStats",
      "outputs": [],
      "stateMutability": "nonpayable",
      "type": "function"
    },
    {
      "inputs": [
        {
          "internalType": "string",
          "name": "newPenName",
          "type": "string"
        }
      ],
      "name": "updatePenName",
      "outputs": [],
      "stateMutability": "nonpayable",
      "type": "function"
    }
  ],
  "bytecode": "0x6080806040523461005f5760008054336001600160a01b0319821681178355916001600160a01b03909116907f8be0079c531659141344cd1fd0a4f28419497f9722a3daafe3b4186f6b6457e09080a36001805561180390816100658239f35b600080fdfe608080604052600436101561001357600080fd5b60003560e01c908163044a0abe1461110e57508063077a3fc0146110e55780630ab3009314610f56578063181ae3aa14610af9578063532d11f514610add57806360cce5cf14610a9557806368d4d6c8146109e15780636ab6fccb1461088f5780636acf908a14610836578063715018a6146107dd57806371ec09d8146105085780638d296bab146104ea5780638da5cb5b146104c1578063b449d73e14610442578063bf9c50011461037e578063db2c315e14610362578063e4730f0a146101ff578063f25d6a85146101b95763f2fde38b146100f057600080fd5b346101b45760203660031901126101b457610109611128565b610111611344565b6001600160a01b0390811690811561016057600054826001600160601b0360a01b821617600055167f8be0079c531659141344cd1fd0a4f28419497f9722a3daafe3b4186f6b6457e0600080a3005b60405162461bcd60e51b815260206004820152602660248201527f4f776e61626c653a206e6577206f776e657220697320746865207a65726f206160448201526564647265737360d01b6064820152608490fd5b600080fd5b346101b45760206101c9366111c5565b816101dd604051928381519384920161113e565b600490820190815281900382019020546040516001600160a01b039091168152f35b346101b45760403660031901126101b457610218611128565b6024359060018060a01b0316806000526020600381526064604060002054101561031e5781600052600381526040600020805490600160401b82101561030857816102699160018794018155611236565b819291549060031b600019811b9283911b16911916179055816000526002815260026040600020019081549163ffffffff92838116938085146102f25760017fa8525bf46e9e88f5bb617b4e9ec1984ba2d2c2c20e52a830a92fc8918fc2e18e9501169063ffffffff1916179055826000526002815242600860406000200155604051428152a3005b634e487b7160e01b600052601160045260246000fd5b634e487b7160e01b600052604160045260246000fd5b6064906040519062461bcd60e51b82526004820152601960248201527f4d61782073746f72696573206c696d69742072656163686564000000000000006044820152fd5b346101b45760003660031901126101b457602060405160328152f35b346101b45760203660031901126101b4576001600160a01b03806103a0611128565b1660005260026020526040600020908154166103be6001830161129e565b9163ffffffff600282015416906003810154906004810154600582015460068301549060078401549260ff6009600887015496015416956104116040519a8b9a8b526101408060208d01528b0190611161565b9760408a01526060890152608088015260a087015260c086015260e085015261010084015215156101208301520390f35b346101b45760203660031901126101b45761045b611128565b610463611344565b6001600160a01b0316801561048a576001600160601b0360a01b6006541617600655600080f35b60405162461bcd60e51b815260206004820152600f60248201526e496e76616c6964206164647265737360881b6044820152606490fd5b346101b45760003660031901126101b4576000546040516001600160a01b039091168152602090f35b346101b45760003660031901126101b4576020600554604051908152f35b346101b457610516366111c5565b3360005260206002815261053460ff60096040600020015416611769565b6105408251151561139c565b61054e60c8835111156113e8565b61055f61055a836115bf565b611428565b6105676114d0565b6040519061059f8351928285019361058081838761113e565b600490820190815281900383019020546001600160a01b031615611474565b6105ab8351151561139c565b6105b960c8845111156113e8565b6105c561055a846115bf565b33600052600281526001926105df8460406000200161129e565b92604051838186516105f48183858b0161113e565b81016004815203019020906001600160601b0360a01b91828154169055336000526002845285604060002001835167ffffffffffffffff81116103085761063b8254611264565b601f81116107a2575b5085601f821160011461071057956106f49593819593836106bf947f49dde7fcf1a55e909532577ba716a3928cf11fe35650bb18c4a92d9ef1c00aa79a600091610705575b50600019600383901b1c1916908c1b1790555b33600052600282524260086040600020015560405180938192875192839161113e565b810160048152030190209033908254161790556106e760405195606087526060870190611161565b9185830390860152611161565b914260408201528033930390a28055005b90508701518d610689565b908891601f1982169084600052886000209160005b81811061078b575093836106f49997938b9997937f49dde7fcf1a55e909532577ba716a3928cf11fe35650bb18c4a92d9ef1c00aa79c966106bf9810610772575b5050811b01905561069c565b89015160001960f88460031b161c191690558d80610766565b8983015184558c9590930192918a01918a01610725565b6107cd908360005287600020601f840160051c8101918985106107d3575b601f0160051c01906114b9565b88610644565b90915081906107c0565b346101b45760003660031901126101b4576107f6611344565b600080546001600160a01b0319811682556001600160a01b03167f8be0079c531659141344cd1fd0a4f28419497f9722a3daafe3b4186f6b6457e08280a3005b346101b45760403660031901126101b45761084f611128565b6001600160a01b03166000908152600360205260409020805460243591908210156101b45760209161088091611236565b90549060031b1c604051908152f35b346101b45760803660031901126101b45760043563ffffffff80821682036101b4573360005260026020526108ce60ff60096040600020015416611769565b6108d66114d0565b3360005260026020526040600020906002820190815493818516906064836108fe83856117b5565b16116109a55761090d916117b5565b16809363ffffffff19161790556003810161092b6024358254611537565b80915560058201906109406044358354611537565b80925560048301926109556064358554611537565b8094556008429101556040519384526020840152604083015260608201524260808201527f75a5cb515843f3d987b57b861923b58da15375310eee5f2fe36ccec23280e18e60a03392a260018055005b60405162461bcd60e51b815260206004820152601460248201527313585e081cdd1bdc9a595cc8195e18d95959195960621b6044820152606490fd5b346101b4576020806003193601126101b4576001600160a01b03610a03611128565b1660005260038152604060002060405190818382549182815201908192600052846000209060005b86828210610a81578686610a41828803836111a3565b604051928392818401908285525180915260408401929160005b828110610a6a57505050500390f35b835185528695509381019392810192600101610a5b565b835485529093019260019283019201610a2b565b346101b4576020610aa5366111c5565b81610ab9604051928381519384920161113e565b600490820190815281900382019020546040516001600160a01b0390911615158152f35b346101b45760003660031901126101b457602060405160018152f35b346101b457610b07366111c5565b610b138151151561139c565b610b2160c8825111156113e8565b610b2d61055a826115bf565b610b356114d0565b33600052600260205260ff60096040600020015416610f1157604051610b838251610b6481846020870161113e565b82016004815282602060018060a01b0394859303019020541615611474565b610b8f8251151561139c565b600182511115610ecc57610ba760c8835111156113e8565b610bb361055a836115bf565b60405190610bc082611186565b33825260208201838152600060408401526000606084015260006080840152600060a0840152600060c08401524260e08401524261010084015260016101208401523360005260026020526040600020918351166001600160601b0360a01b8354161782555180519067ffffffffffffffff821161030857610c456001840154611264565b601f8111610e97575b50602090601f8311600114610e215791806101209492600994600092610e16575b50508160011b916000199060031b1c19161760018201555b6002810163ffffffff60408601511663ffffffff19825416179055606084015160038201556080840151600482015560a0840151600582015560c0840151600682015560e08401516007820155610100840151600882015501910151151560ff801983541691161790556040516020818351610d06818385880161113e565b81016004815203019020336001600160601b0360a01b825416179055600160055401600555604051602081019080821067ffffffffffffffff831117610308578160405260008152336000526003602052604060002090519167ffffffffffffffff831161030857600160401b8311610308578154838355808410610df8575b5090600052602060002060005b838110610de457847facb39c8a10f2f10880469b49477466c36c6a6bc187aa6037243eabcafcf08aeb610dd160405192604084526040840190611161565b914260208201528033930390a260018055005b600190602084519401938184015501610d93565b610e10908360005284602060002091820191016114b9565b84610d86565b015190508780610c6f565b906001840160005260206000209160005b601f1985168110610e7f575092610120949260019260099583601f19811610610e66575b505050811b016001820155610c87565b015160001960f88460031b161c19169055878080610e56565b91926020600181928685015181550194019201610e32565b610ec690600185016000526020600020601f850160051c810191602086106107d357601f0160051c01906114b9565b85610c4e565b60405162461bcd60e51b815260206004820152601e60248201527f50656e206e616d652063616e6e6f74206265206f6e6c792073706163657300006044820152606490fd5b60405162461bcd60e51b815260206004820152601960248201527f417574686f7220616c72656164792072656769737465726564000000000000006044820152606490fd5b346101b45760203660031901126101b457610f6f611128565b6000610120604051610f8081611186565b828152606060208201528260408201528260608201528260808201528260a08201528260c08201528260e082015282610100820152015260018060a01b03166000526002602052604060002060ff600960405192610fdd84611186565b80546001600160a01b03168452610ff66001820161129e565b602085015263ffffffff60028201541660408501526003810154606085015260048101546080850152600581015460a0850152600681015460c0850152600781015460e08501526008810154610100850152015416151561012082015260405180916020825260018060a01b038151166020830152602081015161012061108b61014092836040870152610160860190611161565b9263ffffffff604082015116606086015260608101516080860152608081015160a086015260a081015160c086015260c081015160e086015260e08101516101008601526101008101518286015201511515908301520390f35b346101b45760003660031901126101b4576006546040516001600160a01b039091168152602090f35b346101b45760003660031901126101b45780606460209252f35b600435906001600160a01b03821682036101b457565b60005b8381106111515750506000910152565b8181015183820152602001611141565b9060209161117a8151809281855285808601910161113e565b601f01601f1916010190565b610140810190811067ffffffffffffffff82111761030857604052565b90601f8019910116810190811067ffffffffffffffff82111761030857604052565b60206003198201126101b45767ffffffffffffffff6004358181116101b457826023820112156101b45780600401359182116103085760405192611213601f8401601f1916602001856111a3565b828452602483830101116101b45781600092602460209301838601378301015290565b805482101561124e5760005260206000200190600090565b634e487b7160e01b600052603260045260246000fd5b90600182811c92168015611294575b602083101461127e57565b634e487b7160e01b600052602260045260246000fd5b91607f1691611273565b90604051918260008254926112b284611264565b90818452600194858116908160001461132157506001146112de575b50506112dc925003836111a3565b565b9093915060005260209081600020936000915b8183106113095750506112dc935082010138806112ce565b855488840185015294850194879450918301916112f1565b9150506112dc94506020925060ff191682840152151560051b82010138806112ce565b6000546001600160a01b0316330361135857565b606460405162461bcd60e51b815260206004820152602060248201527f4f776e61626c653a2063616c6c6572206973206e6f7420746865206f776e65726044820152fd5b156113a357565b60405162461bcd60e51b815260206004820152601860248201527f50656e206e616d652063616e6e6f7420626520656d70747900000000000000006044820152606490fd5b156113ef57565b60405162461bcd60e51b815260206004820152601160248201527050656e206e616d6520746f6f206c6f6e6760781b6044820152606490fd5b1561142f57565b60405162461bcd60e51b815260206004820152601e60248201527f496e76616c6964206368617261637465727320696e2070656e206e616d6500006044820152606490fd5b1561147b57565b60405162461bcd60e51b81526020600482015260166024820152752832b7103730b6b29030b63932b0b23c903a30b5b2b760511b6044820152606490fd5b8181106114c4575050565b600081556001016114b9565b6002600154146114e1576002600155565b60405162461bcd60e51b815260206004820152601f60248201527f5265656e7472616e637947756172643a207265656e7472616e742063616c6c006044820152606490fd5b90815181101561124e570160200190565b919082018092116102f257565b1561154b57565b60405162461bcd60e51b815260206004820152601060248201526f092dcc6dedae0d8cae8ca40aaa88c5a760831b6044820152606490fd5b1561158a57565b60405162461bcd60e51b815260206004820152600d60248201526c092dcecc2d8d2c840aaa88c5a7609b1b6044820152606490fd5b60005b81518110156117625760806115d78284611526565b5160f89190821c81166115f9575050600181018091116102f257915b916115c2565b60c060e081816116098789611526565b51861c1603611653575060018401928385116102f2576116386116429461163288518210611544565b87611526565b51901c1614611583565b600281018091116102f257916115f3565b60f090816116618789611526565b51861c16036116bf575060028401928385116102f25761168386518510611544565b600185018086116102f2576116ae9461163285856116a4611638958c611526565b51861c1614611583565b600381018091116102f257916115f3565b836116ca8688611526565b51811c16036117585760038401928385116102f2576116eb86518510611544565b600185018086116102f257838361170561170f938a611526565b51841c1614611583565b600285018086116102f2576117309461163285856116a4611638958c611526565b60048082018092116117435750916115f3565b601190634e487b7160e01b6000525260246000fd5b5050505050600090565b5050600190565b1561177057565b60405162461bcd60e51b815260206004820152601760248201527f4e6f742061207265676973746572656420617574686f720000000000000000006044820152606490fd5b91909163ffffffff808094169116019182116102f25756fea2646970667358221220bef645d6c7a4de6d04b436da2dd6121a5325ac7658bacb97acb42e33844648a564736f6c63430008110033",
  "linkReferences": {},
  "deployedLinkReferences": {}
}