{
  "_format": "hh-sol-artifact-1",
  "contractName": "MiningPool",
  "sourceName": "contracts/MiningPool.sol",
  "abi": [
    {
      "inputs": [
        {
          "internalType": "address",
          "name": "_taforToken",
          "type": "address"
        },
        {
          "internalType": "address",
          "name": "_storyManager",
          "type": "address"
        },
        {
          "internalType": "address",
          "name": "_novelNFT",
          "type": "address"
        },
        {
          "internalType": "address payable",
          "name": "_treasuryManager",
          "type": "address"
        },
        {
          "internalType": "uint256",
          "name": "_initialMiningPool",
          "type": "uint256"
        }
      ],
      "stateMutability": "nonpayable",
      "type": "constructor"
    },
    {
      "anonymous": false,
      "inputs": [
        {
          "indexed": true,
          "internalType": "address",
          "name": "author",
          "type": "address"
        },
        {
          "indexed": true,
          "internalType": "uint256",
          "name": "storyId",
          "type": "uint256"
        },
        {
          "indexed": false,
          "internalType": "uint256",
          "name": "directPayment",
          "type": "uint256"
        },
        {
          "indexed": false,
          "internalType": "uint256",
          "name": "stakedAmount",
          "type": "uint256"
        }
      ],
      "name": "AuthorRewardDistributed",
      "type": "event"
    },
    {
      "anonymous": false,
      "inputs": [
        {
          "indexed": true,
          "internalType": "address",
          "name": "author",
          "type": "address"
        },
        {
          "indexed": true,
          "internalType": "uint256",
          "name": "storyId",
          "type": "uint256"
        },
        {
          "indexed": false,
          "internalType": "uint256",
          "name": "platformShare",
          "type": "uint256"
        },
        {
          "indexed": false,
          "internalType": "uint256",
          "name": "nftHoldersShare",
          "type": "uint256"
        }
      ],
      "name": "AuthorStakePenalized",
      "type": "event"
    },
    {
      "anonymous": false,
      "inputs": [
        {
          "indexed": true,
          "internalType": "address",
          "name": "author",
          "type": "address"
        },
        {
          "indexed": true,
          "internalType": "uint256",
          "name": "storyId",
          "type": "uint256"
        },
        {
          "indexed": false,
          "internalType": "uint256",
          "name": "amount",
          "type": "uint256"
        },
        {
          "indexed": false,
          "internalType": "bool",
          "name": "completed",
          "type": "bool"
        }
      ],
      "name": "AuthorStakeUnlocked",
      "type": "event"
    },
    {
      "anonymous": false,
      "inputs": [
        {
          "indexed": true,
          "internalType": "uint256",
          "name": "epochNumber",
          "type": "uint256"
        },
        {
          "indexed": false,
          "internalType": "uint256",
          "name": "rewardRate",
          "type": "uint256"
        },
        {
          "indexed": false,
          "internalType": "uint256",
          "name": "timestamp",
          "type": "uint256"
        }
      ],
      "name": "EpochUpdated",
      "type": "event"
    },
    {
      "anonymous": false,
      "inputs": [
        {
          "indexed": true,
          "internalType": "address",
          "name": "previousOwner",
          "type": "address"
        },
        {
          "indexed": true,
          "internalType": "address",
          "name": "newOwner",
          "type": "address"
        }
      ],
      "name": "OwnershipTransferred",
      "type": "event"
    },
    {
      "anonymous": false,
      "inputs": [
        {
          "indexed": true,
          "internalType": "uint256",
          "name": "storyId",
          "type": "uint256"
        },
        {
          "indexed": false,
          "internalType": "uint256",
          "name": "totalReward",
          "type": "uint256"
        },
        {
          "indexed": false,
          "internalType": "uint256",
          "name": "platformReward",
          "type": "uint256"
        },
        {
          "indexed": false,
          "internalType": "uint256",
          "name": "authorReward",
          "type": "uint256"
        },
        {
          "indexed": false,
          "internalType": "uint256",
          "name": "nftHoldersReward",
          "type": "uint256"
        },
        {
          "indexed": false,
          "internalType": "uint256",
          "name": "timestamp",
          "type": "uint256"
        }
      ],
      "name": "RewardsDistributed",
      "type": "event"
    },
    {
      "anonymous": false,
      "inputs": [
        {
          "indexed": true,
          "internalType": "uint256",
          "name": "storyId",
          "type": "uint256"
        },
        {
          "indexed": false,
          "internalType": "uint256",
          "name": "platformTokenShare",
          "type": "uint256"
        },
        {
          "indexed": false,
          "internalType": "uint256",
          "name": "platformBNBShare",
          "type": "uint256"
        },
        {
          "indexed": false,
          "internalType": "uint256",
          "name": "nftHolderTokenShare",
          "type": "uint256"
        },
        {
          "indexed": false,
          "internalType": "uint256",
          "name": "nftHolderBNBShare",
          "type": "uint256"
        }
      ],
      "name": "TipStakePenalized",
      "type": "event"
    },
    {
      "anonymous": false,
      "inputs": [
        {
          "indexed": true,
          "internalType": "uint256",
          "name": "storyId",
          "type": "uint256"
        },
        {
          "indexed": true,
          "internalType": "address",
          "name": "author",
          "type": "address"
        },
        {
          "indexed": false,
          "internalType": "uint256",
          "name": "tokenAmount",
          "type": "uint256"
        },
        {
          "indexed": false,
          "internalType": "uint256",
          "name": "bnbAmount",
          "type": "uint256"
        }
      ],
      "name": "TipStakeReleased",
      "type": "event"
    },
    {
      "inputs": [],
      "name": "AUTHOR_SHARE_PERCENTAGE",
      "outputs": [
        {
          "internalType": "uint256",
          "name": "",
          "type": "uint256"
        }
      ],
      "stateMutability": "view",
      "type": "function"
    },
    {
      "inputs": [],
      "name": "DISTRIBUTION_PERIOD",
      "outputs": [
        {
          "internalType": "uint256",
          "name": "",
          "type": "uint256"
        }
      ],
      "stateMutability": "view",
      "type": "function"
    },
    {
      "inputs": [],
      "name": "EPOCH_DURATION",
      "outputs": [
        {
          "internalType": "uint256",
          "name": "",
          "type": "uint256"
        }
      ],
      "stateMutability": "view",
      "type": "function"
    },
    {
      "inputs": [],
      "name": "LOTTERY_SHARE_PERCENTAGE",
      "outputs": [
        {
          "internalType": "uint256",
          "name": "",
          "type": "uint256"
        }
      ],
      "stateMutability": "view",
      "type": "function"
    },
    {
      "inputs": [],
      "name": "MIN_DISTRIBUTION_INTERVAL",
      "outputs": [
        {
          "internalType": "uint256",
          "name": "",
          "type": "uint256"
        }
      ],
      "stateMutability": "view",
      "type": "function"
    },
    {
      "inputs": [],
      "name": "NFT_HOLDERS_SHARE_PERCENTAGE",
      "outputs": [
        {
          "internalType": "uint256",
          "name": "",
          "type": "uint256"
        }
      ],
      "stateMutability": "view",
      "type": "function"
    },
    {
      "inputs": [],
      "name": "PLATFORM_SHARE_PERCENTAGE",
      "outputs": [
        {
          "internalType": "uint256",
          "name": "",
          "type": "uint256"
        }
      ],
      "stateMutability": "view",
      "type": "function"
    },
    {
      "inputs": [],
      "name": "TOTAL_MINING_SUPPLY",
      "outputs": [
        {
          "internalType": "uint256",
          "name": "",
          "type": "uint256"
        }
      ],
      "stateMutability": "view",
      "type": "function"
    },
    {
      "inputs": [
        {
          "internalType": "address",
          "name": "",
          "type": "address"
        }
      ],
      "name": "authorStakes",
      "outputs": [
        {
          "internalType": "uint256",
          "name": "stakedAmount",
          "type": "uint256"
        },
        {
          "internalType": "uint256",
          "name": "stakingTime",
          "type": "uint256"
        },
        {
          "internalType": "uint256",
          "name": "storyId",
          "type": "uint256"
        }
      ],
      "stateMutability": "view",
      "type": "function"
    },
    {
      "inputs": [],
      "name": "currentEpoch",
      "outputs": [
        {
          "internalType": "uint256",
          "name": "",
          "type": "uint256"
        }
      ],
      "stateMutability": "view",
      "type": "function"
    },
    {
      "inputs": [],
      "name": "currentWeeklyReward",
      "outputs": [
        {
          "internalType": "uint256",
          "name": "",
          "type": "uint256"
        }
      ],
      "stateMutability": "view",
      "type": "function"
    },
    {
      "inputs": [],
      "name": "distributeRewards",
      "outputs": [],
      "stateMutability": "nonpayable",
      "type": "function"
    },
    {
      "inputs": [],
      "name": "getCurrentRewardRate",
      "outputs": [
        {
          "internalType": "uint256",
          "name": "",
          "type": "uint256"
        }
      ],
      "stateMutability": "view",
      "type": "function"
    },
    {
      "inputs": [],
      "name": "getMiningStats",
      "outputs": [
        {
          "internalType": "uint256",
          "name": "_totalDistributed",
          "type": "uint256"
        },
        {
          "internalType": "uint256",
          "name": "_currentEpoch",
          "type": "uint256"
        },
        {
          "internalType": "uint256",
          "name": "_totalMiningPower",
          "type": "uint256"
        },
        {
          "internalType": "uint256",
          "name": "_currentRewardRate",
          "type": "uint256"
        }
      ],
      "stateMutability": "view",
      "type": "function"
    },
    {
      "inputs": [],
      "name": "lastRewardTime",
      "outputs": [
        {
          "internalType": "uint256",
          "name": "",
          "type": "uint256"
        }
      ],
      "stateMutability": "view",
      "type": "function"
    },
    {
      "inputs": [],
      "name": "lastWeeklyDistribution",
      "outputs": [
        {
          "internalType": "uint256",
          "name": "",
          "type": "uint256"
        }
      ],
      "stateMutability": "view",
      "type": "function"
    },
    {
      "inputs": [
        {
          "internalType": "uint256",
          "name": "",
          "type": "uint256"
        }
      ],
      "name": "nftStakes",
      "outputs": [
        {
          "internalType": "uint256",
          "name": "stakedAmount",
          "type": "uint256"
        },
        {
          "internalType": "uint256",
          "name": "stakingTime",
          "type": "uint256"
        }
      ],
      "stateMutability": "view",
      "type": "function"
    },
    {
      "inputs": [],
      "name": "novelNFT",
      "outputs": [
        {
          "internalType": "contract NovelNFT",
          "name": "",
          "type": "address"
        }
      ],
      "stateMutability": "view",
      "type": "function"
    },
    {
      "inputs": [],
      "name": "owner",
      "outputs": [
        {
          "internalType": "address",
          "name": "",
          "type": "address"
        }
      ],
      "stateMutability": "view",
      "type": "function"
    },
    {
      "inputs": [],
      "name": "platformWallet",
      "outputs": [
        {
          "internalType": "address",
          "name": "",
          "type": "address"
        }
      ],
      "stateMutability": "view",
      "type": "function"
    },
    {
      "inputs": [],
      "name": "readerActivity",
      "outputs": [
        {
          "internalType": "address",
          "name": "",
          "type": "address"
        }
      ],
      "stateMutability": "view",
      "type": "function"
    },
    {
      "inputs": [],
      "name": "renounceOwnership",
      "outputs": [],
      "stateMutability": "nonpayable",
      "type": "function"
    },
    {
      "inputs": [
        {
          "internalType": "address",
          "name": "_platformWallet",
          "type": "address"
        }
      ],
      "name": "setPlatformWallet",
      "outputs": [],
      "stateMutability": "nonpayable",
      "type": "function"
    },
    {
      "inputs": [
        {
          "internalType": "address",
          "name": "_readerActivity",
          "type": "address"
        }
      ],
      "name": "setReaderActivity",
      "outputs": [],
      "stateMutability": "nonpayable",
      "type": "function"
    },
    {
      "inputs": [],
      "name": "startTime",
      "outputs": [
        {
          "internalType": "uint256",
          "name": "",
          "type": "uint256"
        }
      ],
      "stateMutability": "view",
      "type": "function"
    },
    {
      "inputs": [],
      "name": "storyManager",
      "outputs": [
        {
          "internalType": "contract StoryManager",
          "name": "",
          "type": "address"
        }
      ],
      "stateMutability": "view",
      "type": "function"
    },
    {
      "inputs": [],
      "name": "taforToken",
      "outputs": [
        {
          "internalType": "contract TaforToken",
          "name": "",
          "type": "address"
        }
      ],
      "stateMutability": "view",
      "type": "function"
    },
    {
      "inputs": [],
      "name": "totalDistributed",
      "outputs": [
        {
          "internalType": "uint256",
          "name": "",
          "type": "uint256"
        }
      ],
      "stateMutability": "view",
      "type": "function"
    },
    {
      "inputs": [],
      "name": "totalMiningPoolBalance",
      "outputs": [
        {
          "internalType": "uint256",
          "name": "",
          "type": "uint256"
        }
      ],
      "stateMutability": "view",
      "type": "function"
    },
    {
      "inputs": [],
      "name": "totalMiningPower",
      "outputs": [
        {
          "internalType": "uint256",
          "name": "",
          "type": "uint256"
        }
      ],
      "stateMutability": "view",
      "type": "function"
    },
    {
      "inputs": [
        {
          "internalType": "address",
          "name": "newOwner",
          "type": "address"
        }
      ],
      "name": "transferOwnership",
      "outputs": [],
      "stateMutability": "nonpayable",
      "type": "function"
    },
    {
      "inputs": [],
      "name": "treasuryManager",
      "outputs": [
        {
          "internalType": "contract TreasuryManager",
          "name": "",
          "type": "address"
        }
      ],
      "stateMutability": "view",
      "type": "function"
    },
    {
      "inputs": [
        {
          "internalType": "uint256",
          "name": "storyId",
          "type": "uint256"
        }
      ],
      "name": "unlockAuthorStake",
      "outputs": [],
      "stateMutability": "nonpayable",
      "type": "function"
    },
    {
      "inputs": [
        {
          "internalType": "uint256",
          "name": "nftId",
          "type": "uint256"
        }
      ],
      "name": "unlockNFTStake",
      "outputs": [],
      "stateMutability": "nonpayable",
      "type": "function"
    },
    {
      "inputs": [
        {
          "internalType": "uint256",
          "name": "storyId",
          "type": "uint256"
        }
      ],
      "name": "updateTotalMiningPower",
      "outputs": [],
      "stateMutability": "nonpayable",
      "type": "function"
    }
  ],
  "bytecode": "0x6080346200012357601f620033c938819003918201601f19168301916001600160401b03831184841017620001285780849260a09460405283398101031262000123576200004d816200013e565b6200005b602083016200013e565b916200006a604082016200013e565b9160608201519160018060a01b03908184168094036200012357608001519381600054968160018060a01b03199533878b161760005560405199823391167f8be0079c531659141344cd1fd0a4f28419497f9722a3daafe3b4186f6b6457e0600080a360018055168560025416176002551683600354161760035516816004541617600455601154161760115542600555426006556000600855600a556a02a6b65920ab13e3348348600c556132759081620001548239f35b600080fd5b634e487b7160e01b600052604160045260246000fd5b51906001600160a01b0382168203620001235756fe608080604052600436101561001357600080fd5b60003560e01c908163077a3fc0146128c557508063077ecc08146128a757806308cd8d841461286d5780633133746b1461284f5780633cea70d9146128265780633d3e1530146107be578063466620c2146106665780634fd447c91461189e578063584942491461181d5780636504fbc4146118145780636732707a146105c35780636f4a2cd0146108b1578063715018a614610858578063720cf6ea1461080357806376671808146107e557806378e97925146107c757806385b44219146107be5780638831e9cf1461076d5780638da5cb5b146107445780639231cf741461072657806395b900ab146106fd578063a70b9f0c146106de578063a8043b1e1461068d578063aaf435aa1461066f578063b092deb114610666578063bcead21814610631578063c230781f1461060a578063d8957eb2146105e1578063e6a4a8b5146105c3578063ee1c66091461059a578063efca2eed1461057c578063f2fde38b146104b6578063f5f089c5146101d2578063fa2af9da146101a95763fd749480146101a1575b600080fd5b61019c612925565b3461019c57600036600319011261019c57600f546040516001600160a01b039091168152602090f35b3461019c5760208060031936011261019c57600480546040516331a9108f60e11b81528235928101839052602493926001600160a01b039290919083169084818781855afa90811561038957600091610481575b50833391160361044d5781600052600d8452604060002090600082549361024e851515612f7b565b8760405180948193636be9a6f160e01b835260048301525afa9081156103895760009161042a575b5060a0810151906004821015610415576101e061029561029d93612f3e565b9101516129d8565b42106103d15760009055600483836011541660405192838092630c56ae3b60e01b82525afa8015610389578491600091610395575b506040516324162f9d60e11b81523360048201526024810193909352919290918391829060009082604481015b0393165af190811561038957600091610354575b501561031b57005b60146064926040519262461bcd60e51b845260048401528201527314dd185ad9481c995b19585cd94819985a5b195960621b6044820152fd5b90508181813d8311610382575b61036b81836129e5565b8101031261019c5761037c90612b68565b83610313565b503d610361565b6040513d6000823e3d90fd5b82819392503d83116103ca575b6103ac81836129e5565b8101031261019c5783916103c26102ff92612ad2565b9092916102d2565b503d6103a2565b60405162461bcd60e51b815260048101859052601c818701527f5374616b696e6720706572696f64206e6f7420636f6d706c65746564000000006044820152606490fd5b86634e487b7160e01b60005260216004526000fd5b61044791503d806000833e61043f81836129e5565b810190612dfa565b86610276565b60405162461bcd60e51b815260048101859052600d818701526c2737ba1027232a1037bbb732b960991b6044820152606490fd5b90508481813d83116104af575b61049881836129e5565b8101031261019c576104a990612ad2565b86610226565b503d61048e565b3461019c57602036600319011261019c576004356001600160a01b038181169182900361019c576104e5612942565b811561052857600054826001600160601b0360a01b821617600055167f8be0079c531659141344cd1fd0a4f28419497f9722a3daafe3b4186f6b6457e0600080a3005b60405162461bcd60e51b815260206004820152602660248201527f4f776e61626c653a206e6577206f776e657220697320746865207a65726f206160448201526564647265737360d01b6064820152608490fd5b3461019c57600036600319011261019c576020600754604051908152f35b3461019c57600036600319011261019c576004546040516001600160a01b039091168152602090f35b3461019c57600036600319011261019c576020600c54604051908152f35b3461019c57600036600319011261019c576002546040516001600160a01b039091168152602090f35b3461019c57600036600319011261019c5760206040516b033b2e3c9fd0803ce80000008152f35b3461019c57602036600319011261019c57600435600052600d6020526040806000206001815491015482519182526020820152f35b5061019c612906565b3461019c57600036600319011261019c576020600954604051908152f35b3461019c57602036600319011261019c576004356001600160a01b0381169081900361019c576106bb612942565b6106c681151561299a565b6001600160601b0360a01b6010541617601055600080f35b3461019c57600036600319011261019c5760206040516305a39a808152f35b3461019c57600036600319011261019c576010546040516001600160a01b039091168152602090f35b3461019c57600036600319011261019c576020600654604051908152f35b3461019c57600036600319011261019c576000546040516001600160a01b039091168152602090f35b3461019c57602036600319011261019c576004356001600160a01b0381169081900361019c5761079b612942565b6107a681151561299a565b6001600160601b0360a01b600f541617600f55600080f35b5061019c6128e9565b3461019c57600036600319011261019c576020600554604051908152f35b3461019c57600036600319011261019c576020600854604051908152f35b3461019c57602036600319011261019c576004356001600160a01b0381169081900361019c57600052600e60205260606040600020805490600260018201549101549060405192835260208301526040820152f35b3461019c57600036600319011261019c57610871612942565b600080546001600160a01b0319811682556001600160a01b03167f8be0079c531659141344cd1fd0a4f28419497f9722a3daafe3b4186f6b6457e08280a3005b3461019c57600036600319011261019c576002600154146117cf576002600155600b5462093a80810180911161143557421061178a576305a39a806108f860055442612d76565b04600854811161171e575b5060035460405163071a054b60e01b815290600090829060049082906001600160a01b03165afa90811561038957600091611703575b508051156116ca576000805b8251821015610a4e576003546001600160a01b0316906109658385612aa8565b5191803b1561019c576000809360405192839163133b9cd960e21b835260048301528160249687925af1801561038957610a21575b506003546001600160a01b0316916000906109b58587612aa8565b5190604051809581936303cf950f60e01b835260048301525afa908115610389576102206109f2926109f8946000916109fe575b500151906129d8565b91612a99565b90610945565b610a1b91503d806000833e610a1381836129e5565b810190612b75565b876109e9565b67ffffffffffffffff8111610a39576040528461099a565b82634e487b7160e01b60005260416004526000fd5b82811561169357600c549060018060a01b03600254166040516370a0823160e01b8152306004820152602081602481855afa801561038957849160009161165e575b501061161a5782600a810204600a1483151715611435576011546040516319a8c40360e11b81529190602090839060049082906001600160a01b03165afa918215610389576000926115d5575b5060405163a9059cbb60e01b81526001600160a01b0390921660048301526064600a8502046024830152602090829081600081604481015b03925af19081156103895760009161159b575b501561155657600254601154604051632c83163360e01b8152916001600160a01b039081169160209184916004918391165afa91821561038957600092611511575b5060405163a9059cbb60e01b81526001600160a01b0390921660048301526064600a8502046024830152602090829081600081604481015b03925af1908115610389576000916114d7575b501561149257610bd46064600a840204610bcf8185612d76565b612d76565b9260005b8251811015611466576003546001600160a01b03166000610bf98386612aa8565b516024604051809481936303cf950f60e01b835260048301525afa9081156103895760009161144b575b5061022081015180610c40575b5050610c3b90612a99565b610bd8565b83610c53610c5892899697959899612d83565b612d96565b90602890828281020482148315171561143557602001516001600160a01b0316610c828785612aa8565b5190610c98605085850204600181901c90612d76565b60025460405163a9059cbb60e01b81526001600160a01b03848116600483015260508789020460011c6024830152909160209183916044918391600091165af1908115610389576000916113fb575b50156113be57600254601154604051630c56ae3b60e01b8152916001600160a01b039081169160209184916004918391165afa8015610389578392600091611379575b5060405163a9059cbb60e01b81526001600160a01b0390911660048201526024810192909252602090829081600081604481015b03925af190811561038957600091611315575b507f286f0d9d6b12b70dd0eeb3b990af591cc8372d97247d0bc25b2d57a104cb713991610d9f604092612db6565b83600052600e60205284600283600020610dba8482546129d8565b8155426001820155015581519060508789020460011c82526020820152a3610de28684612aa8565b519360018060a01b0360045416956040519563613eeff960e11b875260048701526000866024818a5afa958615610389576000966112f0575b50600091825b8751841015610eb157610e348489612aa8565b5160405190636be9a6f160e01b825260048201526000816024818d5afa918215610389576001610120610e8794610e8194600091610e96575b50015103610e8d5760ff60025b16906129d8565b93612a99565b92610e21565b60ff6001610e7a565b610eab91503d806000833e61043f81836129e5565b38610e6d565b9894975091509194939787156112bb5760005b855181101561124f57610ed78187612aa8565b5160048054604051636be9a6f160e01b81529182018390526001600160a01b031691600082602481865afa9182156103895760009261122e575b50602060249293604051938480926331a9108f60e11b82528560048301525afa918215610389578b8b8e926000956111e1575b50610f6e92916050610c539260016101208a0151146000146111d85760ff60025b16920204612d83565b9260a081015160048110156111c257610f8690612f3e565b61105f57505060025460405163a9059cbb60e01b81526001600160a01b039283166004820152602481019390935260209183916044918391600091165af190811561038957600091611025575b5015610fe757610fe290612a99565b610ec4565b60405162461bcd60e51b815260206004820152601660248201527514995dd85c99081d1c985b9cd9995c8819985a5b195960521b6044820152606490fd5b90506020813d602011611057575b81611040602093836129e5565b8101031261019c5761105190612b68565b8b610fd3565b3d9150611033565b600254601154604051630c56ae3b60e01b81529396959294509192916001600160a01b039182169160209184916004918391165afa801561038957839260009161117d575b5060405163a9059cbb60e01b81526001600160a01b0390911660048201526024810192909252602090829081600081604481015b03925af190811561038957600091611135575b5090610fe2946110fc600193612db6565b600052600d60205261111460406000209182546129d8565b81550190815415611127575b5050612a99565b6101e0015190558b80611120565b9190506020823d602011611175575b81611151602093836129e5565b8101031261019c57610fe2946110fc61116b600194612b68565b92935050946110eb565b3d9150611144565b9250506020823d6020116111ba575b81611199602093836129e5565b8101031261019c57826020916111b16110d894612ad2565b919350916110a4565b3d915061118c565b634e487b7160e01b600052602160045260246000fd5b60ff6001610f65565b94505050506020823d602011611226575b816111ff602093836129e5565b8101031261019c57610f6e8c610c538d605061121b8f97612ad2565b969250509192610f44565b3d91506111f2565b602492506112486020913d806000833e61043f81836129e5565b9250610f11565b5096509694610c3b935060a07f04867ee8dfac1e45dd2e9de104ad82f3584bef05d209b39796d167fc1901b82b91959295605061128c868a612aa8565b519460405192808452600060208501528282820204604085015202046060820152426080820152a29086610c30565b60405162461bcd60e51b815260206004820152600d60248201526c4e6f2076616c6964204e46547360981b6044820152606490fd5b61130e9196503d806000833e61130681836129e5565b810190612a1d565b9489610e1b565b90506020813d602011611371575b81611330602093836129e5565b8101031261019c577f286f0d9d6b12b70dd0eeb3b990af591cc8372d97247d0bc25b2d57a104cb713991610d9f611368604093612b68565b92505091610d71565b3d9150611323565b9250506020823d6020116113b6575b81611395602093836129e5565b8101031261019c57826020916113ad610d5e94612ad2565b91935091610d2a565b3d9150611388565b60405162461bcd60e51b8152602060048201526015602482015274111a5c9958dd081c185e5b595b9d0819985a5b1959605a1b6044820152606490fd5b90506020813d60201161142d575b81611416602093836129e5565b8101031261019c5761142790612b68565b8b610ce7565b3d9150611409565b634e487b7160e01b600052601160045260246000fd5b61146091503d806000833e610a1381836129e5565b86610c23565b61148984611476816007546129d8565b60075542600b5542600655600a54612d76565b600a5560018055005b60405162461bcd60e51b815260206004820152601d60248201527f52656164657220726577617264207472616e73666572206661696c65640000006044820152606490fd5b90506020813d602011611509575b816114f2602093836129e5565b8101031261019c5761150390612b68565b84610bb5565b3d91506114e5565b91506020823d60201161154e575b8161152c602093836129e5565b8101031261019c57610ba2602091611545600094612ad2565b93509150610b6a565b3d915061151f565b60405162461bcd60e51b815260206004820152601860248201527f506c6174666f726d207472616e73666572206661696c656400000000000000006044820152606490fd5b90506020813d6020116115cd575b816115b6602093836129e5565b8101031261019c576115c790612b68565b84610b28565b3d91506115a9565b91506020823d602011611612575b816115f0602093836129e5565b8101031261019c57610b15602091611609600094612ad2565b93509150610add565b3d91506115e3565b606460405162461bcd60e51b815260206004820152602060248201527f496e73756666696369656e74206d696e696e6720706f6f6c2062616c616e63656044820152fd5b9150506020813d60201161168b575b8161167a602093836129e5565b8101031261019c5783905186610a90565b3d915061166d565b60405162461bcd60e51b815260206004820152600f60248201526e27379036b4b734b733903837bbb2b960891b6044820152606490fd5b60405162461bcd60e51b81526020600482015260116024820152704e6f206163746976652073746f7269657360781b6044820152606490fd5b61171891503d806000833e61130681836129e5565b81610939565b806008556b019d971e4fe8401e7400000060005b82811061177757506040609c7f2df6562a84e8230615692a4ab0f0a5ed8c530ddef1234943bc37aa74646bb876920480600c558151908152426020820152a280610903565b906117859060011c91612a99565b611732565b60405162461bcd60e51b815260206004820152601f60248201527f446973747269627574696f6e20706572696f64206e6f742072656163686564006044820152606490fd5b60405162461bcd60e51b815260206004820152601f60248201527f5265656e7472616e637947756172643a207265656e7472616e742063616c6c006044820152606490fd5b5061019c612925565b3461019c57602036600319011261019c576003546040516303cf950f60e01b8152600480359082015290600090829060249082906001600160a01b03165afa80156103895761187e91600091611883575b50610220600954910151906129d8565b600955005b61189891503d806000833e610a1381836129e5565b8261186e565b3461019c57602036600319011261019c5733600052600e60205260406000206024600060018060a01b0360035416604051928380926303cf950f60e01b825260043560048301525afa9081156103895760009161280b575b508154918215158084156127fd575b80156127ef575b61191590612f7b565b6020830151336001600160a01b03909116036127b75760043560028301540361277e5760e083015115158061276a575b15611dc55750805491925081611c84575b5061036082019182519283159182159182611b43575b5061034001908151938415159283611a03575b5060405190815260016020820152600435907fe91f56d421c3f47bee7d6215d4d3fc31c2012da6a75a99480d92727189c6b39560403392a3916119fb575b506119c457005b604051918252602082015233907fbd45d441d0a50638f05826d5d792766a08113c4e16f9df77e5b49550ca6f9c18604060043592a3005b9050836119bd565b6000905260115460405162a8693f60e01b815290602090829060049082906001600160a01b03165afa90811561038957600091611b09575b506040516324162f9d60e11b81523360048201526024810187905290602090829060449082906000906001600160a01b03165af190811561038957600091611acf575b5015611a8a578661197f565b60405162461bcd60e51b815260206004820152601c60248201527f424e4220746970207374616b652072656c65617365206661696c6564000000006044820152606490fd5b90506020813d602011611b01575b81611aea602093836129e5565b8101031261019c57611afb90612b68565b87611a7e565b3d9150611add565b90506020813d602011611b3b575b81611b24602093836129e5565b8101031261019c57611b3590612ad2565b87611a3b565b3d9150611b17565b60009052601154604051630c56ae3b60e01b815290602090829060049082906001600160a01b03165afa90811561038957600091611c4a575b506040516324162f9d60e11b81523360048201526024810187905290602090829060449082906000906001600160a01b03165af190811561038957600091611c10575b5015611bcb578561196c565b60405162461bcd60e51b815260206004820152601e60248201527f546f6b656e20746970207374616b652072656c65617365206661696c656400006044820152606490fd5b90506020813d602011611c42575b81611c2b602093836129e5565b8101031261019c57611c3c90612b68565b86611bbf565b3d9150611c1e565b90506020813d602011611c7c575b81611c65602093836129e5565b8101031261019c57611c7690612ad2565b86611b7c565b3d9150611c58565b60009055601154604051630c56ae3b60e01b815290602090829060049082906001600160a01b03165afa90811561038957600091611d8b575b506040516324162f9d60e11b81523360048201526024810183905290602090829060449082906000906001600160a01b03165af190811561038957600091611d51575b5015611d0c5782611956565b60405162461bcd60e51b815260206004820152601b60248201527f4d696e696e67207374616b652072656c65617365206661696c656400000000006044820152606490fd5b90506020813d602011611d83575b81611d6c602093836129e5565b8101031261019c57611d7d90612b68565b83611d00565b3d9150611d5f565b90506020813d602011611dbd575b81611da6602093836129e5565b8101031261019c57611db790612ad2565b83611cbd565b3d9150611d99565b610380830151611dd157005b612572575b50610360810180519182612370575b61034001805193915083611f19575b50806014810204601414811517156114355780605081020460501481151715611435576064605060405192826014820204845202046020820152600435907f0b1c573fdc9d4ed33ee5f96c06ce57a058e3a78129f804822a5653084944b19460403392a38015158115611f10575b611e6857005b601481028181046014148215171561143557601483029083820460141484151715611435576050830292808404605014901517156114355760508402938085046050149015171561143557611f0b7f3c114d1e5ba8a5ae84d6ac2bd3f98ec2edfc9e6f87c6bbf251ce8dae84dd877a9360405193849360648080806004359b04950493049104859094939260609260808301968352602083015260408201520152565b0390a2005b50811515611e62565b6014840284810460141485151715611435576000611f3a6064830487612d76565b925260115460405162a8693f60e01b81526001600160a01b0390911691602082600481865afa91821561038957600092612331575b50602060049293604051938480926319a8c40360e11b82525afa918215610389576000926122e9575b506040516324162f9d60e11b81526001600160a01b03909216600483015260649004602482015290602090829081600081604481015b03926001600160a01b03165af1908115610389576000916122af575b501561225c57602490600060018060a01b03600454166040519384809263613eeff960e11b825260043560048301525afa9182156103895760009261223f575b508151908161203b575b5050611df4565b906120499195929395612d96565b9260005b8351811015612231576004546001600160a01b0316602061206e8387612aa8565b516024604051809481936331a9108f60e11b835260048301525afa8015610389576000906121f7575b60115460405162a8693f60e01b81529250602090839060049082906001600160a01b03165afa9081156103895787926000926121b1575b506040516324162f9d60e11b81526001600160a01b0390911660048201526024810192909252602090829081600081604481015b03926001600160a01b03165af190811561038957600091612177575b50156121325761212d90612a99565b61204d565b60405162461bcd60e51b815260206004820152601d60248201527f4e465420686f6c64657220424e422072656c65617365206661696c65640000006044820152606490fd5b90506020813d6020116121a9575b81612192602093836129e5565b8101031261019c576121a390612b68565b8761211e565b3d9150612185565b925090506020823d6020116121ef575b816121ce602093836129e5565b8101031261019c57866020916121e661210294612ad2565b925090926120ce565b3d91506121c1565b506020813d602011612229575b81612211602093836129e5565b8101031261019c57612224600491612ad2565b612097565b3d9150612204565b509250929050838080612034565b6122559192503d806000833e61130681836129e5565b908561202a565b60405162461bcd60e51b815260206004820152602560248201527f506c6174666f726d20424e4220746970207374616b652072656c656173652066604482015264185a5b195960da1b6064820152608490fd5b90506020813d6020116122e1575b816122ca602093836129e5565b8101031261019c576122db90612b68565b85611fea565b3d91506122bd565b91506020823d602011612329575b81612304602093836129e5565b8101031261019c57611fce926064600061231f602095612ad2565b9450505092611f98565b3d91506122f7565b91506020823d602011612368575b8161234c602093836129e5565b8101031261019c576020612361600493612ad2565b9250611f6f565b3d915061233f565b60148302838104601414841517156114355760006123916064830486612d76565b9352601154604051630c56ae3b60e01b81526001600160a01b0390911691602082600481865afa91821561038957600092612533575b50602060049293604051938480926319a8c40360e11b82525afa918215610389576000926124eb575b506040516324162f9d60e11b81526001600160a01b03909216600483015260649004602482015290602090829081600081604481015b03926001600160a01b03165af1908115610389576000916124b1575b501561245c5761245761034092600435612fba565b611de5565b60405162461bcd60e51b815260206004820152602760248201527f506c6174666f726d20746f6b656e20746970207374616b652072656c656173656044820152660819985a5b195960ca1b6064820152608490fd5b90506020813d6020116124e3575b816124cc602093836129e5565b8101031261019c576124dd90612b68565b85612442565b3d91506124bf565b91506020823d60201161252b575b81612506602093836129e5565b8101031261019c576124269260646000612521602095612ad2565b94505050926123f0565b3d91506124f9565b91506020823d60201161256a575b8161254e602093836129e5565b8101031261019c576020612563600493612ad2565b92506123c7565b3d9150612541565b6014830283810460141484151715611435576064900460006125948286612d76565b9255601154604051630c56ae3b60e01b815291906001600160a01b0316602083600481845afa92831561038957600093612729575b506020600491604051928380926319a8c40360e11b82525afa908115610389576000916126e5575b506040516324162f9d60e11b81526001600160a01b039091166004820152602481019190915290602090829081600081604481015b03926001600160a01b03165af1908115610389576000916126ab575b501561265a5761265490600435612fba565b82611dd6565b60405162461bcd60e51b8152602060048201526024808201527f506c6174666f726d206d696e696e67207374616b652072656c656173652066616044820152631a5b195960e21b6064820152608490fd5b90506020813d6020116126dd575b816126c6602093836129e5565b8101031261019c576126d790612b68565b84612642565b3d91506126b9565b9190506020823d602011612721575b81612701602093836129e5565b8101031261019c5761262692612718602093612ad2565b919250926125f1565b3d91506126f4565b9092506020813d602011612762575b81612745602093836129e5565b8101031261019c57602061275a600492612ad2565b9391506125c9565b3d9150612738565b506101a08301516102808401511115611945565b60405162461bcd60e51b81526020600482015260116024820152700a6e8dee4f240928840dad2e6dac2e8c6d607b1b6044820152606490fd5b60405162461bcd60e51b815260206004820152601060248201526f2737ba1039ba37b93c9030baba3437b960811b6044820152606490fd5b50610340830151151561190c565b506103608301511515611905565b61282091503d806000833e610a1381836129e5565b826118f6565b3461019c57600036600319011261019c576011546040516001600160a01b039091168152602090f35b3461019c57600036600319011261019c576020600b54604051908152f35b3461019c57600036600319011261019c57600754600854600954600c54604080519485526020850193909352918301526060820152608090f35b3461019c57600036600319011261019c576020600a54604051908152f35b3461019c57600036600319011261019c576003546001600160a01b03168152602090f35b503461019c57600036600319011261019c576020604051600a8152f35b503461019c57600036600319011261019c57602060405162093a808152f35b503461019c57600036600319011261019c57602060405160288152f35b6000546001600160a01b0316330361295657565b606460405162461bcd60e51b815260206004820152602060248201527f4f776e61626c653a2063616c6c6572206973206e6f7420746865206f776e65726044820152fd5b156129a157565b60405162461bcd60e51b815260206004820152600f60248201526e496e76616c6964206164647265737360881b6044820152606490fd5b9190820180921161143557565b90601f8019910116810190811067ffffffffffffffff821117612a0757604052565b634e487b7160e01b600052604160045260246000fd5b90602090818382031261019c57825167ffffffffffffffff9384821161019c570181601f8201121561019c578051938411612a07578360051b9060405194612a67858401876129e5565b8552838086019282010192831161019c578301905b828210612a8a575050505090565b81518152908301908301612a7c565b60001981146114355760010190565b8051821015612abc5760209160051b010190565b634e487b7160e01b600052603260045260246000fd5b51906001600160a01b038216820361019c57565b919080601f8401121561019c5782519067ffffffffffffffff8211612a075760405191602091612b1f601f8301601f19168401856129e5565b81845282828701011161019c5760005b818110612b4457508260009394955001015290565b8581018301518482018401528201612b2f565b519063ffffffff8216820361019c57565b5190811515820361019c57565b60208183031261019c57805167ffffffffffffffff9182821161019c5701906103a092838382031261019c5760405193840184811083821117612a075760405282518452612bc560208401612ad2565b6020850152604083015182811161019c5781612be2918501612ae6565b6040850152606083015182811161019c5781612bff918501612ae6565b6060850152608083015182811161019c5781612c1c918501612ae6565b608085015260a083015191821161019c57612c38918301612ae6565b60a0830152612c4960c08201612b57565b60c0830152612c5a60e08201612b68565b60e083015261010080820151908301526101208082015190830152610140612c83818301612b57565b90830152610160808201519083015261018080820151908301526101a080820151908301526101c080820151908301526101e0808201519060ff8216820361019c57830152610200612cd6818301612b57565b908301526102208082015190830152610240612cf3818301612b57565b90830152610260612d05818301612b68565b9083015261028080820151908301526102a080820151908301526102c080820151908301526102e080820151908301526103008082015190830152610320808201519083015261034080820151908301526103608082015190830152612d6f610380809201612b68565b9082015290565b9190820391821161143557565b8181029291811591840414171561143557565b8115612da0570490565b634e487b7160e01b600052601260045260246000fd5b15612dbd57565b60405162461bcd60e51b815260206004820152601560248201527414dd185ad9481d1c985b9cd9995c8819985a5b1959605a1b6044820152606490fd5b60208183031261019c57805167ffffffffffffffff9182821161019c57019061020092838382031261019c5760405193840184811083821117612a075760405282518452602083015182811161019c5781612e56918501612ae6565b6020850152604083015182811161019c5781612e73918501612ae6565b6040850152606083015191821161019c57612e8f918301612ae6565b60608301526080810151600481101561019c57608083015260a0810151600481101561019c5760a0830152612ec660c08201612ad2565b60c083015260e081015160e0830152610100612ee3818301612b68565b908301526101208082015190830152610140612f00818301612b68565b90830152610160808201519083015261018080820151908301526101a080820151908301526101c080820151908301526101e0809101519082015290565b60048110156111c25760038114612f755760028114612f6d57600114612f66576301e1338090565b62ed4e0090565b506276a70090565b50600090565b15612f8257565b60405162461bcd60e51b815260206004820152601060248201526f139bc81cdd185ad95908185b5bdd5b9d60821b6044820152606490fd5b600480546040805163613eeff960e11b8152808401949094529493919260249290916000916001600160a01b0391839085908790829086165afa938415613235578394613219575b5083519081613017575b505050505050509050565b9061302191612d96565b825b8451811015613203578287541661303a8287612aa8565b518a519182916331a9108f60e11b83528a830152818960209485935afa90811561316d5790899187916131cb575b508286601154168d5193848092630c56ae3b60e01b82525afa9182156131c1578c92849289898e8a958395613177575b5096516324162f9d60e11b81526001600160a01b0390931696830196875260208701949094529094859384929183906040015b0393165af190811561316d578691613134575b50156130f357506130ee90612a99565b613023565b87601f886064938d519362461bcd60e51b85528401528201527f4e465420686f6c64657220746f6b656e2072656c65617365206661696c6564006044820152fd5b90508181813d8311613166575b61314b81836129e5565b810103126131625761315c90612b68565b386130de565b8580fd5b503d613141565b8b513d88823e3d90fd5b96955050505093505081813d83116131ba575b61319481836129e5565b810103126131b657848c6130cb9389898e6131af8997612ad2565b9497613098565b8680fd5b503d61318a565b8c513d89823e3d90fd5b809250838092503d83116131fc575b6131e481836129e5565b81010312613162576131f68991612ad2565b38613068565b503d6131da565b505050505050509050803880808080808061300c565b61322e9194503d8085833e61130681836129e5565b9238613002565b88513d85823e3d90fdfea2646970667358221220964ad24f42f27a44042436d3f5b26347361be894433762fb96c592abe67a79fa64736f6c63430008110033",
  "linkReferences": {},
  "deployedLinkReferences": {}
}