{
  "_format": "hh-sol-artifact-1",
  "contractName": "NovelNFT",
  "sourceName": "contracts/NovelNFT.sol",
  "abi": [
    {
      "inputs": [
        {
          "internalType": "address",
          "name": "_storyManager",
          "type": "address"
        },
        {
          "internalType": "address payable",
          "name": "_treasuryManager",
          "type": "address"
        }
      ],
      "stateMutability": "nonpayable",
      "type": "constructor"
    },
    {
      "anonymous": false,
      "inputs": [
        {
          "indexed": true,
          "internalType": "address",
          "name": "owner",
          "type": "address"
        },
        {
          "indexed": true,
          "internalType": "address",
          "name": "approved",
          "type": "address"
        },
        {
          "indexed": true,
          "internalType": "uint256",
          "name": "tokenId",
          "type": "uint256"
        }
      ],
      "name": "Approval",
      "type": "event"
    },
    {
      "anonymous": false,
      "inputs": [
        {
          "indexed": true,
          "internalType": "address",
          "name": "owner",
          "type": "address"
        },
        {
          "indexed": true,
          "internalType": "address",
          "name": "operator",
          "type": "address"
        },
        {
          "indexed": false,
          "internalType": "bool",
          "name": "approved",
          "type": "bool"
        }
      ],
      "name": "ApprovalForAll",
      "type": "event"
    },
    {
      "anonymous": false,
      "inputs": [
        {
          "indexed": false,
          "internalType": "uint256",
          "name": "_fromTokenId",
          "type": "uint256"
        },
        {
          "indexed": false,
          "internalType": "uint256",
          "name": "_toTokenId",
          "type": "uint256"
        }
      ],
      "name": "BatchMetadataUpdate",
      "type": "event"
    },
    {
      "anonymous": false,
      "inputs": [
        {
          "indexed": true,
          "internalType": "uint256",
          "name": "storyId",
          "type": "uint256"
        },
        {
          "indexed": false,
          "internalType": "uint256[]",
          "name": "tokenIds",
          "type": "uint256[]"
        },
        {
          "indexed": true,
          "internalType": "address",
          "name": "owner",
          "type": "address"
        },
        {
          "indexed": false,
          "internalType": "enum NovelNFT.NFTType[]",
          "name": "nftTypes",
          "type": "uint8[]"
        },
        {
          "indexed": false,
          "internalType": "uint256",
          "name": "mintBatch",
          "type": "uint256"
        },
        {
          "indexed": false,
          "internalType": "uint256",
          "name": "timestamp",
          "type": "uint256"
        }
      ],
      "name": "BatchNFTMinted",
      "type": "event"
    },
    {
      "anonymous": false,
      "inputs": [
        {
          "indexed": false,
          "internalType": "uint256",
          "name": "_tokenId",
          "type": "uint256"
        }
      ],
      "name": "MetadataUpdate",
      "type": "event"
    },
    {
      "anonymous": false,
      "inputs": [
        {
          "indexed": true,
          "internalType": "uint256",
          "name": "tokenId",
          "type": "uint256"
        },
        {
          "indexed": true,
          "internalType": "uint256",
          "name": "storyId",
          "type": "uint256"
        },
        {
          "indexed": true,
          "internalType": "address",
          "name": "buyer",
          "type": "address"
        },
        {
          "indexed": false,
          "internalType": "uint256",
          "name": "price",
          "type": "uint256"
        },
        {
          "indexed": false,
          "internalType": "uint256",
          "name": "platformFee",
          "type": "uint256"
        },
        {
          "indexed": false,
          "internalType": "uint256",
          "name": "authorStake",
          "type": "uint256"
        },
        {
          "indexed": false,
          "internalType": "uint256",
          "name": "authorDirect",
          "type": "uint256"
        },
        {
          "indexed": false,
          "internalType": "bool",
          "name": "isBNBPayment",
          "type": "bool"
        }
      ],
      "name": "NFTFirstSold",
      "type": "event"
    },
    {
      "anonymous": false,
      "inputs": [
        {
          "indexed": true,
          "internalType": "uint256",
          "name": "tokenId",
          "type": "uint256"
        },
        {
          "indexed": false,
          "internalType": "uint256",
          "name": "priceBNB",
          "type": "uint256"
        },
        {
          "indexed": false,
          "internalType": "uint256",
          "name": "priceToken",
          "type": "uint256"
        },
        {
          "indexed": false,
          "internalType": "uint256",
          "name": "timestamp",
          "type": "uint256"
        }
      ],
      "name": "NFTListed",
      "type": "event"
    },
    {
      "anonymous": false,
      "inputs": [
        {
          "indexed": true,
          "internalType": "uint256",
          "name": "tokenId",
          "type": "uint256"
        },
        {
          "indexed": true,
          "internalType": "uint256",
          "name": "storyId",
          "type": "uint256"
        },
        {
          "indexed": true,
          "internalType": "address",
          "name": "owner",
          "type": "address"
        },
        {
          "indexed": false,
          "internalType": "enum NovelNFT.NFTType",
          "name": "nftType",
          "type": "uint8"
        },
        {
          "indexed": false,
          "internalType": "enum NovelNFT.Rarity",
          "name": "rarity",
          "type": "uint8"
        },
        {
          "indexed": false,
          "internalType": "uint256",
          "name": "mintBatch",
          "type": "uint256"
        },
        {
          "indexed": false,
          "internalType": "uint256",
          "name": "timestamp",
          "type": "uint256"
        }
      ],
      "name": "NFTMinted",
      "type": "event"
    },
    {
      "anonymous": false,
      "inputs": [
        {
          "indexed": true,
          "internalType": "uint256",
          "name": "tokenId",
          "type": "uint256"
        },
        {
          "indexed": true,
          "internalType": "address",
          "name": "seller",
          "type": "address"
        },
        {
          "indexed": true,
          "internalType": "address",
          "name": "buyer",
          "type": "address"
        },
        {
          "indexed": false,
          "internalType": "uint256",
          "name": "price",
          "type": "uint256"
        },
        {
          "indexed": false,
          "internalType": "uint256",
          "name": "platformFee",
          "type": "uint256"
        },
        {
          "indexed": false,
          "internalType": "bool",
          "name": "isBNBPayment",
          "type": "bool"
        },
        {
          "indexed": false,
          "internalType": "uint256",
          "name": "timestamp",
          "type": "uint256"
        }
      ],
      "name": "NFTSecondaryTraded",
      "type": "event"
    },
    {
      "anonymous": false,
      "inputs": [
        {
          "indexed": true,
          "internalType": "uint256",
          "name": "tokenId",
          "type": "uint256"
        },
        {
          "indexed": true,
          "internalType": "address",
          "name": "seller",
          "type": "address"
        },
        {
          "indexed": true,
          "internalType": "address",
          "name": "buyer",
          "type": "address"
        },
        {
          "indexed": false,
          "internalType": "uint256",
          "name": "price",
          "type": "uint256"
        },
        {
          "indexed": false,
          "internalType": "bool",
          "name": "isBNBPayment",
          "type": "bool"
        },
        {
          "indexed": false,
          "internalType": "uint256",
          "name": "timestamp",
          "type": "uint256"
        }
      ],
      "name": "NFTSold",
      "type": "event"
    },
    {
      "anonymous": false,
      "inputs": [
        {
          "indexed": true,
          "internalType": "uint256",
          "name": "tokenId",
          "type": "uint256"
        },
        {
          "indexed": false,
          "internalType": "uint256",
          "name": "timestamp",
          "type": "uint256"
        }
      ],
      "name": "NFTUnlisted",
      "type": "event"
    },
    {
      "anonymous": false,
      "inputs": [
        {
          "indexed": true,
          "internalType": "address",
          "name": "previousOwner",
          "type": "address"
        },
        {
          "indexed": true,
          "internalType": "address",
          "name": "newOwner",
          "type": "address"
        }
      ],
      "name": "OwnershipTransferred",
      "type": "event"
    },
    {
      "anonymous": false,
      "inputs": [
        {
          "indexed": true,
          "internalType": "address",
          "name": "from",
          "type": "address"
        },
        {
          "indexed": true,
          "internalType": "address",
          "name": "to",
          "type": "address"
        },
        {
          "indexed": true,
          "internalType": "uint256",
          "name": "tokenId",
          "type": "uint256"
        }
      ],
      "name": "Transfer",
      "type": "event"
    },
    {
      "inputs": [],
      "name": "AUTHOR_STAKE_PERCENTAGE",
      "outputs": [
        {
          "internalType": "uint256",
          "name": "",
          "type": "uint256"
        }
      ],
      "stateMutability": "view",
      "type": "function"
    },
    {
      "inputs": [],
      "name": "FIRST_BATCH_LIMIT",
      "outputs": [
        {
          "internalType": "uint256",
          "name": "",
          "type": "uint256"
        }
      ],
      "stateMutability": "view",
      "type": "function"
    },
    {
      "inputs": [],
      "name": "FIRST_MINT_WORD_REQUIREMENT",
      "outputs": [
        {
          "internalType": "uint256",
          "name": "",
          "type": "uint256"
        }
      ],
      "stateMutability": "view",
      "type": "function"
    },
    {
      "inputs": [],
      "name": "MIN_PRICE_BNB",
      "outputs": [
        {
          "internalType": "uint256",
          "name": "",
          "type": "uint256"
        }
      ],
      "stateMutability": "view",
      "type": "function"
    },
    {
      "inputs": [],
      "name": "MIN_PRICE_TOKEN",
      "outputs": [
        {
          "internalType": "uint256",
          "name": "",
          "type": "uint256"
        }
      ],
      "stateMutability": "view",
      "type": "function"
    },
    {
      "inputs": [],
      "name": "PLATFORM_FEE_PERCENTAGE",
      "outputs": [
        {
          "internalType": "uint256",
          "name": "",
          "type": "uint256"
        }
      ],
      "stateMutability": "view",
      "type": "function"
    },
    {
      "inputs": [],
      "name": "SECONDARY_PLATFORM_FEE",
      "outputs": [
        {
          "internalType": "uint256",
          "name": "",
          "type": "uint256"
        }
      ],
      "stateMutability": "view",
      "type": "function"
    },
    {
      "inputs": [
        {
          "internalType": "address",
          "name": "to",
          "type": "address"
        },
        {
          "internalType": "uint256",
          "name": "tokenId",
          "type": "uint256"
        }
      ],
      "name": "approve",
      "outputs": [],
      "stateMutability": "nonpayable",
      "type": "function"
    },
    {
      "inputs": [
        {
          "internalType": "address",
          "name": "owner",
          "type": "address"
        }
      ],
      "name": "balanceOf",
      "outputs": [
        {
          "internalType": "uint256",
          "name": "",
          "type": "uint256"
        }
      ],
      "stateMutability": "view",
      "type": "function"
    },
    {
      "inputs": [
        {
          "internalType": "uint256",
          "name": "storyId",
          "type": "uint256"
        },
        {
          "internalType": "string[]",
          "name": "names",
          "type": "string[]"
        },
        {
          "internalType": "string[]",
          "name": "descriptions",
          "type": "string[]"
        },
        {
          "internalType": "string[]",
          "name": "imageUris",
          "type": "string[]"
        },
        {
          "internalType": "enum NovelNFT.NFTType[]",
          "name": "nftTypes",
          "type": "uint8[]"
        },
        {
          "internalType": "uint256",
          "name": "expectedBatch",
          "type": "uint256"
        }
      ],
      "name": "batchMintNFT",
      "outputs": [],
      "stateMutability": "nonpayable",
      "type": "function"
    },
    {
      "inputs": [
        {
          "internalType": "uint256",
          "name": "tokenId",
          "type": "uint256"
        },
        {
          "internalType": "bool",
          "name": "payWithBNB",
          "type": "bool"
        }
      ],
      "name": "buyNFT",
      "outputs": [],
      "stateMutability": "payable",
      "type": "function"
    },
    {
      "inputs": [
        {
          "internalType": "uint256",
          "name": "bnbAmount",
          "type": "uint256"
        }
      ],
      "name": "convertBNBToToken",
      "outputs": [
        {
          "internalType": "uint256",
          "name": "",
          "type": "uint256"
        }
      ],
      "stateMutability": "view",
      "type": "function"
    },
    {
      "inputs": [
        {
          "internalType": "uint256",
          "name": "tokenAmount",
          "type": "uint256"
        }
      ],
      "name": "convertTokenToBNB",
      "outputs": [
        {
          "internalType": "uint256",
          "name": "",
          "type": "uint256"
        }
      ],
      "stateMutability": "view",
      "type": "function"
    },
    {
      "inputs": [
        {
          "internalType": "uint256",
          "name": "tokenId",
          "type": "uint256"
        }
      ],
      "name": "getApproved",
      "outputs": [
        {
          "internalType": "address",
          "name": "",
          "type": "address"
        }
      ],
      "stateMutability": "view",
      "type": "function"
    },
    {
      "inputs": [
        {
          "internalType": "uint256",
          "name": "tokenId",
          "type": "uint256"
        }
      ],
      "name": "getNFTMetadata",
      "outputs": [
        {
          "components": [
            {
              "internalType": "uint256",
              "name": "storyId",
              "type": "uint256"
            },
            {
              "internalType": "string",
              "name": "name",
              "type": "string"
            },
            {
              "internalType": "string",
              "name": "description",
              "type": "string"
            },
            {
              "internalType": "string",
              "name": "imageUri",
              "type": "string"
            },
            {
              "internalType": "enum NovelNFT.NFTType",
              "name": "nftType",
              "type": "uint8"
            },
            {
              "internalType": "enum NovelNFT.Rarity",
              "name": "rarity",
              "type": "uint8"
            },
            {
              "internalType": "address",
              "name": "owner",
              "type": "address"
            },
            {
              "internalType": "uint256",
              "name": "createdAt",
              "type": "uint256"
            },
            {
              "internalType": "bool",
              "name": "isFirstSale",
              "type": "bool"
            },
            {
              "internalType": "uint256",
              "name": "mintBatch",
              "type": "uint256"
            },
            {
              "internalType": "bool",
              "name": "isListed",
              "type": "bool"
            },
            {
              "internalType": "uint256",
              "name": "listTime",
              "type": "uint256"
            },
            {
              "internalType": "uint256",
              "name": "priceBNB",
              "type": "uint256"
            },
            {
              "internalType": "uint256",
              "name": "priceToken",
              "type": "uint256"
            },
            {
              "internalType": "uint256",
              "name": "stakedEarnings",
              "type": "uint256"
            },
            {
              "internalType": "uint256",
              "name": "earningsStartTime",
              "type": "uint256"
            }
          ],
          "internalType": "struct NovelNFT.NFTMetadata",
          "name": "",
          "type": "tuple"
        }
      ],
      "stateMutability": "view",
      "type": "function"
    },
    {
      "inputs": [
        {
          "internalType": "uint256",
          "name": "tokenId",
          "type": "uint256"
        }
      ],
      "name": "getNFTPrice",
      "outputs": [
        {
          "internalType": "uint256",
          "name": "",
          "type": "uint256"
        }
      ],
      "stateMutability": "view",
      "type": "function"
    },
    {
      "inputs": [
        {
          "internalType": "uint256",
          "name": "storyId",
          "type": "uint256"
        },
        {
          "internalType": "uint256",
          "name": "batch",
          "type": "uint256"
        }
      ],
      "name": "getStoryNFTCount",
      "outputs": [
        {
          "internalType": "uint256",
          "name": "",
          "type": "uint256"
        }
      ],
      "stateMutability": "view",
      "type": "function"
    },
    {
      "inputs": [
        {
          "internalType": "uint256",
          "name": "storyId",
          "type": "uint256"
        }
      ],
      "name": "getStoryNFTs",
      "outputs": [
        {
          "internalType": "uint256[]",
          "name": "",
          "type": "uint256[]"
        }
      ],
      "stateMutability": "view",
      "type": "function"
    },
    {
      "inputs": [
        {
          "internalType": "address",
          "name": "owner",
          "type": "address"
        },
        {
          "internalType": "address",
          "name": "operator",
          "type": "address"
        }
      ],
      "name": "isApprovedForAll",
      "outputs": [
        {
          "internalType": "bool",
          "name": "",
          "type": "bool"
        }
      ],
      "stateMutability": "view",
      "type": "function"
    },
    {
      "inputs": [
        {
          "internalType": "uint256",
          "name": "tokenId",
          "type": "uint256"
        },
        {
          "internalType": "uint256",
          "name": "priceBNB",
          "type": "uint256"
        },
        {
          "internalType": "uint256",
          "name": "priceToken",
          "type": "uint256"
        }
      ],
      "name": "listNFT",
      "outputs": [],
      "stateMutability": "nonpayable",
      "type": "function"
    },
    {
      "inputs": [
        {
          "internalType": "uint256",
          "name": "storyId",
          "type": "uint256"
        },
        {
          "internalType": "string",
          "name": "name",
          "type": "string"
        },
        {
          "internalType": "string",
          "name": "description",
          "type": "string"
        },
        {
          "internalType": "string",
          "name": "imageUri",
          "type": "string"
        },
        {
          "internalType": "enum NovelNFT.NFTType",
          "name": "nftType",
          "type": "uint8"
        },
        {
          "internalType": "uint256",
          "name": "expectedBatch",
          "type": "uint256"
        }
      ],
      "name": "mintNFT",
      "outputs": [
        {
          "internalType": "uint256",
          "name": "",
          "type": "uint256"
        }
      ],
      "stateMutability": "nonpayable",
      "type": "function"
    },
    {
      "inputs": [],
      "name": "name",
      "outputs": [
        {
          "internalType": "string",
          "name": "",
          "type": "string"
        }
      ],
      "stateMutability": "view",
      "type": "function"
    },
    {
      "inputs": [
        {
          "internalType": "uint256",
          "name": "",
          "type": "uint256"
        }
      ],
      "name": "nftMetadata",
      "outputs": [
        {
          "internalType": "uint256",
          "name": "storyId",
          "type": "uint256"
        },
        {
          "internalType": "string",
          "name": "name",
          "type": "string"
        },
        {
          "internalType": "string",
          "name": "description",
          "type": "string"
        },
        {
          "internalType": "string",
          "name": "imageUri",
          "type": "string"
        },
        {
          "internalType": "enum NovelNFT.NFTType",
          "name": "nftType",
          "type": "uint8"
        },
        {
          "internalType": "enum NovelNFT.Rarity",
          "name": "rarity",
          "type": "uint8"
        },
        {
          "internalType": "address",
          "name": "owner",
          "type": "address"
        },
        {
          "internalType": "uint256",
          "name": "createdAt",
          "type": "uint256"
        },
        {
          "internalType": "bool",
          "name": "isFirstSale",
          "type": "bool"
        },
        {
          "internalType": "uint256",
          "name": "mintBatch",
          "type": "uint256"
        },
        {
          "internalType": "bool",
          "name": "isListed",
          "type": "bool"
        },
        {
          "internalType": "uint256",
          "name": "listTime",
          "type": "uint256"
        },
        {
          "internalType": "uint256",
          "name": "priceBNB",
          "type": "uint256"
        },
        {
          "internalType": "uint256",
          "name": "priceToken",
          "type": "uint256"
        },
        {
          "internalType": "uint256",
          "name": "stakedEarnings",
          "type": "uint256"
        },
        {
          "internalType": "uint256",
          "name": "earningsStartTime",
          "type": "uint256"
        }
      ],
      "stateMutability": "view",
      "type": "function"
    },
    {
      "inputs": [],
      "name": "owner",
      "outputs": [
        {
          "internalType": "address",
          "name": "",
          "type": "address"
        }
      ],
      "stateMutability": "view",
      "type": "function"
    },
    {
      "inputs": [
        {
          "internalType": "uint256",
          "name": "tokenId",
          "type": "uint256"
        }
      ],
      "name": "ownerOf",
      "outputs": [
        {
          "internalType": "address",
          "name": "",
          "type": "address"
        }
      ],
      "stateMutability": "view",
      "type": "function"
    },
    {
      "inputs": [],
      "name": "platformWallet",
      "outputs": [
        {
          "internalType": "address",
          "name": "",
          "type": "address"
        }
      ],
      "stateMutability": "view",
      "type": "function"
    },
    {
      "inputs": [],
      "name": "renounceOwnership",
      "outputs": [],
      "stateMutability": "nonpayable",
      "type": "function"
    },
    {
      "inputs": [
        {
          "internalType": "address",
          "name": "from",
          "type": "address"
        },
        {
          "internalType": "address",
          "name": "to",
          "type": "address"
        },
        {
          "internalType": "uint256",
          "name": "tokenId",
          "type": "uint256"
        }
      ],
      "name": "safeTransferFrom",
      "outputs": [],
      "stateMutability": "nonpayable",
      "type": "function"
    },
    {
      "inputs": [
        {
          "internalType": "address",
          "name": "from",
          "type": "address"
        },
        {
          "internalType": "address",
          "name": "to",
          "type": "address"
        },
        {
          "internalType": "uint256",
          "name": "tokenId",
          "type": "uint256"
        },
        {
          "internalType": "bytes",
          "name": "data",
          "type": "bytes"
        }
      ],
      "name": "safeTransferFrom",
      "outputs": [],
      "stateMutability": "nonpayable",
      "type": "function"
    },
    {
      "inputs": [
        {
          "internalType": "address",
          "name": "operator",
          "type": "address"
        },
        {
          "internalType": "bool",
          "name": "approved",
          "type": "bool"
        }
      ],
      "name": "setApprovalForAll",
      "outputs": [],
      "stateMutability": "nonpayable",
      "type": "function"
    },
    {
      "inputs": [],
      "name": "storyManager",
      "outputs": [
        {
          "internalType": "contract StoryManager",
          "name": "",
          "type": "address"
        }
      ],
      "stateMutability": "view",
      "type": "function"
    },
    {
      "inputs": [
        {
          "internalType": "uint256",
          "name": "",
          "type": "uint256"
        },
        {
          "internalType": "uint256",
          "name": "",
          "type": "uint256"
        }
      ],
      "name": "storyNFTs",
      "outputs": [
        {
          "internalType": "uint256",
          "name": "",
          "type": "uint256"
        }
      ],
      "stateMutability": "view",
      "type": "function"
    },
    {
      "inputs": [
        {
          "internalType": "bytes4",
          "name": "interfaceId",
          "type": "bytes4"
        }
      ],
      "name": "supportsInterface",
      "outputs": [
        {
          "internalType": "bool",
          "name": "",
          "type": "bool"
        }
      ],
      "stateMutability": "view",
      "type": "function"
    },
    {
      "inputs": [],
      "name": "symbol",
      "outputs": [
        {
          "internalType": "string",
          "name": "",
          "type": "string"
        }
      ],
      "stateMutability": "view",
      "type": "function"
    },
    {
      "inputs": [],
      "name": "taforToken",
      "outputs": [
        {
          "internalType": "contract TaforToken",
          "name": "",
          "type": "address"
        }
      ],
      "stateMutability": "view",
      "type": "function"
    },
    {
      "inputs": [
        {
          "internalType": "uint256",
          "name": "tokenId",
          "type": "uint256"
        }
      ],
      "name": "tokenURI",
      "outputs": [
        {
          "internalType": "string",
          "name": "",
          "type": "string"
        }
      ],
      "stateMutability": "view",
      "type": "function"
    },
    {
      "inputs": [
        {
          "internalType": "address",
          "name": "from",
          "type": "address"
        },
        {
          "internalType": "address",
          "name": "to",
          "type": "address"
        },
        {
          "internalType": "uint256",
          "name": "tokenId",
          "type": "uint256"
        }
      ],
      "name": "transferFrom",
      "outputs": [],
      "stateMutability": "nonpayable",
      "type": "function"
    },
    {
      "inputs": [
        {
          "internalType": "address",
          "name": "newOwner",
          "type": "address"
        }
      ],
      "name": "transferOwnership",
      "outputs": [],
      "stateMutability": "nonpayable",
      "type": "function"
    },
    {
      "inputs": [],
      "name": "treasuryManager",
      "outputs": [
        {
          "internalType": "contract TreasuryManager",
          "name": "",
          "type": "address"
        }
      ],
      "stateMutability": "view",
      "type": "function"
    },
    {
      "inputs": [
        {
          "internalType": "uint256",
          "name": "tokenId",
          "type": "uint256"
        }
      ],
      "name": "unlistNFT",
      "outputs": [],
      "stateMutability": "nonpayable",
      "type": "function"
    }
  ],
  "bytecode": "0x608034620003bf576001600160401b0390601f19601f62004b433881900382810184168501919086831186841017620003a9578086926040948552833981010312620003bf5782516001600160a01b03948582169491859003620003bf5760208092015192868416809403620003bf5762000079620003c4565b92600d84526c15185b19519bdc99d948139195609a1b818501526200009d620003c4565b906005825264151193919560da1b81830152845196848811620003a9576000978854966001978881811c911680156200039e575b858210146200038a5790818784931162000337575b508490878311600114620002d6578b92620002ca575b5050600019600383901b1c191690871b1788555b8251948511620002b65785548681811c91168015620002ab575b8382101462000297579081858796959493116200023e575b5081938511600114620001d95750508692620001cd575b5050600019600383901b1c191690821b1781555b60075460018060a01b03199333858316176007557f8be0079c531659141344cd1fd0a4f28419497f9722a3daafe3b4186f6b6457e0604051973393169180a360085581600b541617600b55600954161760095561475e9081620003e58239f35b01519050388062000159565b869593929193168589528389209389905b8282106200022457505084116200020a575b505050811b0181556200016d565b015160001960f88460031b161c19169055388080620001fc565b8484015186558897909501949384019390810190620001ea565b9091929394508689528289208580880160051c8201928589106200028d575b9188978a9297969594930160051c01915b8281106200027e57505062000142565b8b81558897508991016200026e565b925081926200025d565b634e487b7160e01b89526022600452602489fd5b90607f16906200012a565b634e487b7160e01b88526041600452602488fd5b015190503880620000fc565b90848a9416918c8052868d20928d5b8882821062000320575050841162000306575b505050811b01885562000110565b015160001960f88460031b161c19169055388080620002f8565b8385015186558d97909501949384019301620002e5565b9091508a8052848b208780850160051c82019287861062000380575b918b91869594930160051c01915b82811062000371575050620000e6565b8d81558594508b910162000361565b9250819262000353565b634e487b7160e01b8b52602260045260248bfd5b90607f1690620000d1565b634e487b7160e01b600052604160045260246000fd5b600080fd5b60408051919082016001600160401b03811183821017620003a95760405256fe6080806040526004361015610014575b600080fd5b600090813560e01c90816301ffc9a7146134fe5750806306fdde031461342f578063077a3fc014613406578063081812fc146133e7578063095ea7b314613272578063127103a5146104f0578063155482321461162c57806319f9b4cc146129de57806323b872dd146129be5780633cea70d9146129955780634138c2cb1461297257806342842e0e1461293f57806349541015146128045780635bb67ccd146127e85780636352211e146127b75780636be9a6f11461250e57806370a0823114612478578063715018a61461241a57806372f553301461031f5780637f9b39691461163657806386241b941461162c5780638da5cb5b1461160357806392976179146114bb57806395d89b41146113dc578063961f09441461131a578063a22cb46514611242578063a25af86b146107d8578063ad69184b146107b5578063b0136c8d146105a3578063b6ca3d9514610587578063b88d4fde146104fa578063bd9d5395146104f0578063c27ddff21461040a578063c28a4e0a146103ec578063c87b56dd14610375578063d8957eb21461034c578063ddcfc5611461031f578063e985e9c5146102cb578063f2fde38b146102055763fa2af9da146101da57600080fd5b34610202578060031936011261020257600f546040516001600160a01b039091168152602090f35b80fd5b50346102025760203660031901126102025761021f6135cd565b610227613949565b6001600160a01b0390811690811561027757600754826001600160601b0360a01b821617600755167f8be0079c531659141344cd1fd0a4f28419497f9722a3daafe3b4186f6b6457e0600080a380f35b60405162461bcd60e51b815260206004820152602660248201527f4f776e61626c653a206e6577206f776e657220697320746865207a65726f206160448201526564647265737360d01b6064820152608490fd5b5034610202576040366003190112610202576102e56135cd565b60406102ef6135e3565b9260018060a01b0380931681526005602052209116600052602052602060ff604060002054166040519015158152f35b503461020257604060209161033336613859565b908252600e845282822090825283522054604051908152f35b5034610202578060031936011261020257600a546040516001600160a01b039091168152602090f35b5034610202576020366003190112610202576004356000818152600260205260409020546103ad906001600160a01b031615156139a1565b60005260066020526103e86103c56040600020613793565b60006040516103d381613678565b526040519182916020835260208301906135a8565b0390f35b50346102025780600319360112610202576020604051620186a08152f35b5034610202576020806003193601126104ec5760043591828152600e82526040812060018252825261045e6104596040832054858452600e855260408420600285528552604084205490614293565b61447c565b928190600192600c54935b8481111561048457604051868152806103e88189018a613915565b6000818152600260205260409020546001600160a01b03161515806104d8575b6104b7575b6104b2906142b6565b610469565b926104d081856104ca6104b2948b6144ae565b526142b6565b9390506104a9565b50808252600d8652826040832054146104a4565b5080fd5b505061000f6135f9565b5034610202576080366003190112610202576105146135cd565b61051c6135e3565b90606435906044356001600160401b0383116105835736602384011215610583576105809361055861057b9436906024816004013591016136cf565b9261056b6105668433613b23565b613a4e565b610576838383613beb565b613e20565b613b03565b80f35b8480fd5b5034610202578060031936011261020257602060405160328152f35b503461020257606036600319011261020257600435602480359060448035916105cb856139ed565b336001600160a01b039091160361077f57831580158091610776575b15610733576106ed575b826106a5575b848652600d6020526040862091600883019182549160ff831661066d57505092600b7f320b43f4b67954dbf77e9fef8e4a3854716f404b66b42657b6c900835f2bf4ec95938293600160609760ff191617905542600982015584600a82015501556040519182526020820152426040820152a280f35b907113919508185b1c9958591e481b1a5cdd195960721b60649260126040519362461bcd60e51b855260206004860152840152820152fd5b678ac7230489e800008310156105f75772546f6b656e20707269636520746f6f206c6f7760681b60649260136040519362461bcd60e51b855260206004860152840152820152fd5b67016345785d8a00008410156105f15770424e4220707269636520746f6f206c6f7760781b60649260116040519362461bcd60e51b855260206004860152840152820152fd5b507f4d75737420736574206174206c65617374206f6e652070726963650000000000606492601b6040519362461bcd60e51b855260206004860152840152820152fd5b508315156105e7565b702737ba103a34329027232a1037bbb732b960791b60649260116040519362461bcd60e51b855260206004860152840152820152fd5b50346102025780600319360112610202576020604051678ac7230489e800008152f35b50346102025760c0366003190112610202576024356001600160401b0381116104ec57610809903690600401613895565b6044356001600160401b03811161123e57610828903690600401613895565b916064356001600160401b0381116104ec57610848903690600401613895565b608435926001600160401b03841161123e573660238501121561123e578360040135916108748361387e565b926108826040519485613693565b808452602084019081963660248360051b8301011161123a5760248101925b60248360051b830101841061121c5750506009546040516303cf950f60e01b815260048035908201529250869150829060249082906001600160a01b03165afa90811561121157906109099186916111f7575b50602001516001600160a01b0316331461410f565b6109116142c5565b8151865180911490816111ec575b50806111e1575b156111a3576009546040516303cf950f60e01b8152600480359082015293906001600160a01b03168585602481845afa9485156110d457869561117f575b5061026085015115611177576002945b600260ff8716148061116b575b6111035761099560ff871660a43514614152565b60ff86166001036110e357620186a06101a06109b492015110156141ef565b6004358652600e6020526040862060ff861687526020526109e7600a6109e06040892054875190614293565b1115614247565b6004358652600e6020526040862060ff86168752602052600a610a106040882054865190614293565b14611085575b505b610a22835161447c565b855b8451811015610feb576001600c540180600c5580610a4283856144ae565b52610a4d813361431b565b610a586004356145fb565b90610a6383886144ae565b5191610a6f848d6144ae565b51610a7a85896144ae565b51610a8586896144ae565b5191610a9083613839565b60405195610a9d8761365c565b6004358752602087015260408601526060850152610aba81613839565b6080840152610ac881613839565b60a08301523360c08301524260e08301528861010083015260ff8816610120830152886101408301528861016083015288610180830152886101a0830152886101c0830152426101e08301528852600d60205260408820908051825560208101518051906001600160401b038211610e3f578190610b496001860154613759565b601f8111610f99575b50602090601f8311600114610f2a578c92610f1f575b50508160011b916000199060031b1c19161760018301555b60408101518051906001600160401b038211610e3f578190610ba56002860154613759565b601f8111610ecd575b50602090601f8311600114610e5e578c92610e53575b50508160011b916000199060031b1c19161760028301555b60608101518051906001600160401b038211610e3f57610bff6003850154613759565b601f8111610df5575b506020908b601f8411600114610d7c5792806101e093610d6c98979693600d9692610d71575b50508160011b916000199060031b1c19161760038501555b610d0f60048501610cbe608084015191610c5f83613839565b610c6883613839565b80549260a086015193610c7a85613839565b610c8385613839565b60c08701516001600160b01b031990911660ff9290921691909117600894851b61ff00161760109190911b62010000600160b01b0316179055565b60e08301516005870155610ce86101008401511515600688019060ff801983541691151516179055565b610120830151600787015561014083015115159086019060ff801983541691151516179055565b6101608101516009850155610180810151600a8501556101a0810151600b8501556101c0810151600c85015501519101556004358852600e6020526040882060ff8816895260205260408820610d6581546142b6565b90556142b6565b610a24565b015190503880610c2e565b5090600385018c5260208c20918c5b601f1985168110610ddd5750836101e093610d6c98979693600193600d97601f19811610610dc4575b505050811b016003850155610c46565b015160001960f88460031b161c19169055388080610db4565b91926020600181928685015181550194019201610d8b565b600385018c5260208c20601f840160051c810160208510610e38575b8d905b601f840160051c83018110610e2b57505050610c08565b6001918155018d90610e14565b5080610e11565b634e487b7160e01b8b52604160045260248bfd5b015190503880610bc4565b9250600285018c5260208c20908c935b601f1984168510610eb2576001945083601f19811610610e99575b505050811b016002830155610bdc565b015160001960f88460031b161c19169055388080610e89565b81810151835560209485019460019093019290910190610e6e565b909150600285018c5260208c20601f840160051c810160208510610f18575b84939291908e5b601f840160051c83018210610f0a57505050610bae565b81558594506001018e610ef3565b5080610eec565b015190503880610b68565b9250600185018c5260208c20908c935b601f1984168510610f7e576001945083601f19811610610f65575b505050811b016001830155610b80565b015160001960f88460031b161c19169055388080610f55565b81810151835560209485019460019093019290910190610f3a565b909150600185018c5260208c20601f840160051c810160208510610fe4575b84939291908e5b601f840160051c83018210610fd657505050610b52565b81558594506001018e610fbf565b5080610fb8565b5086858793602061100760405195608087526080870190613915565b91858303828701525191828152019290855b8181106110645750505060ff1660408301524260608301527fbe9f64d977a9b3f30c7f3ac067f4bb89e9fe3bea4a58228917f97223771e4f94339280600435930390a3600160085580f35b909193602080600192875161107881613839565b8152019501929101611019565b803b156110df5785809160246040518094819363198bcb5b60e21b835260043560048401525af180156110d4579086916110c0575b50610a16565b6110c990613633565b6105835784386110ba565b6040513d88823e3d90fd5b8580fd5b6110fe915060036102806101a0830151920151041115614195565b610a18565b60405162461bcd60e51b815260206004820152603660248201527f43757272656e74206261746368206973203220287365636f6e642062617463686044820152752c206c6f776572206d696e696e67207765696768742960501b6064820152608490fd5b0390fd5b50600160a43514610981565b600194610974565b61119c9195503d8088833e6111948183613693565b810190613f0f565b9338610964565b60405162461bcd60e51b8152602060048201526016602482015275082e4e4c2f240d8cadccee8d0e640dad2e6dac2e8c6d60531b6044820152606490fd5b508051835114610926565b90508151143861091f565b61120b91503d8088833e6111948183613693565b386108f4565b6040513d87823e3d90fd5b6004843510156112365783358152602093840193016108a1565b8780fd5b8680fd5b8280fd5b50346102025760403660031901126102025761125c6135cd565b61126461386f565b6001600160a01b03909116903382146112d557338352600560205260408320826000526020526112a48160406000209060ff801983541691151516179055565b60405190151581527f17307eab39ab6107e8899845ad3d59bd9653f200f220920489ca2b5937696c3160203392a380f35b60405162461bcd60e51b815260206004820152601960248201527f4552433732313a20617070726f766520746f2063616c6c6572000000000000006044820152606490fd5b503461020257602036600319011261020257600435611338816139ed565b336001600160a01b03909116036113a557808252600d60205281600b6040822060088101805461136a60ff82166144d8565b60ff1916905582600a82015501557f9df0fe426747e10584f4ba0678ef3dbaca63aa31130c9257379dc3430bfacb706020604051428152a280f35b60405162461bcd60e51b815260206004820152600f60248201526e2737ba103a37b5b2b71037bbb732b960891b6044820152606490fd5b50346102025780600319360112610202576040516000600180549061140082613759565b80855291818116908115611494575060011461143b575b6103e88461142781860382613693565b6040519182916020835260208301906135a8565b600081815292507fb10e2d527612073b26eecdfd717e6a320cf44b4afac2b0732d9fcbe2b7fa0cf65b82841061147c57505050810160200161142782611417565b80546020858701810191909152909301928101611464565b60ff191660208087019190915292151560051b850190920192506114279150839050611417565b50346102025760203660031901126102025760406020916004356114fc6114f782600052600260205260018060a01b0360406000205416151590565b6145ba565b8152600d8352206115fa6040516115128161365c565b8254815261152260018401613793565b8482015261153260028401613793565b604082015261154360038401613793565b6060820152600483015460ff811661155a81613839565b608083015260ff8160081c1661156f81613839565b60a083015260018060a01b039060101c1660c0820152600583015460e082015260ff6006840154161515610100820152600783015461012082015260ff6008840154161515908161014082015260098401546101608201526101e0600d600a860154956101808401968752600b8101546101a0850152600c8101546101c085015201549101526144d8565b51604051908152f35b50346102025780600319360112610202576007546040516001600160a01b039091168152602090f35b505061000f613616565b5060403660031901126102025761164b61386f565b906004358152600d6020526040812061166a60ff6008830154166144d8565b6001600160a01b0361167d6004356139ed565b1633146123d55782156123ca57600a810154905b81156123955783156122d75781341061229f575b600681015460ff1615611e525760018060a01b0360095416918382546024604051809681936303cf950f60e01b835260048301525afa928315611d87578493611e36575b50610380830151611dff5760208301516001600160a01b03163314611dba57600a8102818104600a03611da65761172360648204836145ad565b95603287029487860460321488151715611d9257611746879860648804906145ad565b908215611a7957600b546040516319a8c40360e11b81529190602090839060049082906001600160a01b03165afa8015611a6e5789918491878491611a15575b849550916117aa858080808098966064829904905af16117a4613cfc565b50614515565b602001516001600160a01b0316828215611a0c575bf1156110d457600b5460405162a8693f60e01b815290602090829060049082906001600160a01b03165afa90811561194157889081926119c7575b508080806118179460648c04905af1611811613cfc565b50614561565b81156119505760018060a01b03600954168554813b1561194c57889160648392604051948593849263b469ecc760e01b84526004840152670de0b6b3a764000034046024840152600160448401525af190811561194157889161192d575b50506064600b965b8187549560405197885204602087015204604085015260608401521515608083015233917f1dbc64de67fd4f65bbf2fd7afd71f1126e5d0762818a97a7c89fe555bdd2654360a060043592a45b60048101805462010000600160b01b0319163360101b62010000600160b01b031617905560ff19806006830154166006830155600882015416600882015582600982015582600a8201550155610580600435336119286004356139ed565b613beb565b61193690613633565b61123a578638611875565b6040513d8a823e3d90fd5b8880fd5b60018060a01b03600954168554813b1561194c57889160648392604051948593849263b469ecc760e01b84526004840152670de0b6b3a76400008b0460248401528160448401525af19081156119415788916119b3575b50506064600b9661187d565b6119bc90613633565b61123a5786386119a7565b9150506020813d602011611a04575b816119e360209383613693565b8101031261123657878080806119fb61181795613e9b565b945050506117fa565b3d91506119d6565b506108fc6117bf565b50509150506020823d602011611a66575b81611a3360209383613693565b8101031261194c578880848194936117aa838080808d6064611a55839c613e9b565b989a50509597505050505050611786565b3d9150611a26565b6040513d8b823e3d90fd5b600a54600b546040516319a8c40360e11b81529399936001600160a01b0392831692909160209183916004918391165afa908115611d87578491611d41575b5060405163a9059cbb60e01b81526001600160a01b039091166004820152606486046024820152926020918491829081604481015b03925af18015611a6e5788928a91611cf8575b5091602091611b11611b5294614515565b600a549083015160405163a9059cbb60e01b81526001600160a01b0391821660048201526024810193909352919384929091169082908c9082906044820190565b03925af1908115611941578891611cbe575b5015611c7957600a54600b54604051630c56ae3b60e01b81528998926001600160a01b039081169260209183916004918391165afa908115611a6e578991611c37575b5060405163a9059cbb60e01b81526001600160a01b039091166004820152606488046024820152906020908290818b81604481015b03925af18015611941578890611bfc575b611bf79150614561565b611817565b506020813d602011611c2f575b81611c1660209383613693565b8101031261123657611c2a611bf791613f02565b611bed565b3d9150611c09565b90506020813d602011611c71575b81611c5260209383613693565b8101031261194c57611bdc91611c69602092613e9b565b915091611ba7565b3d9150611c45565b60405162461bcd60e51b815260206004820152601d60248201527f417574686f7220646972656374207472616e73666572206661696c65640000006044820152606490fd5b90506020813d602011611cf0575b81611cd960209383613693565b8101031261123657611cea90613f02565b38611b64565b3d9150611ccc565b9250506020823d602011611d39575b81611d1460209383613693565b8101031261194c5787602091611b11611d2f611b5295613f02565b9294505091611b00565b3d9150611d07565b90506020813d602011611d7f575b81611d5c60209383613693565b81010312611d7b57602091611d73611aed92613e9b565b915091611ab8565b8380fd5b3d9150611d4f565b6040513d86823e3d90fd5b634e487b7160e01b87526011600452602487fd5b634e487b7160e01b85526011600452602485fd5b60405162461bcd60e51b815260206004820152601960248201527f417574686f722063616e6e6f7420627579206f776e204e4654000000000000006044820152606490fd5b60405162461bcd60e51b815260206004820152600f60248201526e14dd1bdc9e481858985b991bdb9959608a1b6044820152606490fd5b611e4b9193503d8086833e6111948183613693565b91386116e9565b611e606004949294356139ed565b84800460010361228b5784611e796064869704826145ad565b841561208e57600b546040516319a8c40360e11b815290602090829060049082906001600160a01b03165afa80156120835787918291612034575b50818093611ed082808080809760648c04905af16117a4613cfc565b81811561202b575b6001600160a01b03881690f115611d87575b8315611fb65760018060a01b03600954168354813b1561123a57869160648392604051948593849263b469ecc760e01b84526004840152670de0b6b3a764000034046024840152600160448401525af19081156110d4578691611fa2575b5050600b935b60646040519280845204602083015215156040820152426060820152339160018060a01b0316907fdf76704c98140fef2725404a92dcb8f7a49f5b1d9d3c3ec36c6ae3734614cb45608060043592a46118ca565b611fab90613633565b610583578438611f48565b60018060a01b03600954168354813b1561123a57869160648392604051948593849263b469ecc760e01b84526004840152670de0b6b3a7640000880460248401528160448401525af19081156110d4578691612017575b5050600b93611f4e565b61202090613633565b61058357843861200d565b506108fc611ed8565b9150506020813d60201161207b575b8161205060209383613693565b8101031261123a5786808093611ed08280808061206d8199613e9b565b975050505050509350611eb4565b3d9150612043565b6040513d89823e3d90fd5b600a54600b546040516319a8c40360e11b81529397916001600160a01b039081169160209186916004918391165afa8015612280578894839161223c575b5060405163a9059cbb60e01b8082526001600160a01b0390921660048201526064909504602486015293916020918391829081604481015b03925af19081156119415788916121f4575b509061215d92612127602093614515565b600a546040519182526001600160a01b0386811660048401526024830193909352909384929091169082908a9082906044820190565b03925af19081156110d45786916121ba575b501561217c578493611eea565b60405162461bcd60e51b815260206004820152601660248201527514d95b1b195c881d1c985b9cd9995c8819985a5b195960521b6044820152606490fd5b90506020813d6020116121ec575b816121d560209383613693565b810103126110df576121e690613f02565b3861216f565b3d91506121c8565b9190506020823d602011612234575b8161221060209383613693565b810103126112365761215d9261212761222a602094613f02565b9293505092612116565b3d9150612203565b9450506020843d602011612278575b8161225860209383613693565b810103126104ec576121046020916122708a96613e9b565b9150916120cc565b3d915061224b565b6040513d84823e3d90fd5b634e487b7160e01b84526011600452602484fd5b60405162461bcd60e51b815260206004820152601060248201526f24b739bab33334b1b4b2b73a1021272160811b6044820152606490fd5b600a546040516370a0823160e01b815233600482015290602090829060249082906001600160a01b03165afa908115611d87579083918591612360575b5010156116a55760405162461bcd60e51b815260206004820152601a60248201527f496e73756666696369656e7420746f6b656e2062616c616e63650000000000006044820152606490fd5b9150506020813d60201161238d575b8161237c60209383613693565b81010312611d7b5782905138612314565b3d915061236f565b60405162461bcd60e51b815260206004820152600d60248201526c141c9a58d9481b9bdd081cd95d609a1b6044820152606490fd5b600b81015490611691565b60405162461bcd60e51b815260206004820152601760248201527f43616e6e6f742062757920796f7572206f776e204e46540000000000000000006044820152606490fd5b5034610202578060031936011261020257612433613949565b600780546001600160a01b031981169091556000906001600160a01b03167f8be0079c531659141344cd1fd0a4f28419497f9722a3daafe3b4186f6b6457e08280a380f35b5034610202576020366003190112610202576001600160a01b0361249a6135cd565b1680156124b7578160409160209352600383522054604051908152f35b60405162461bcd60e51b815260206004820152602960248201527f4552433732313a2061646472657373207a65726f206973206e6f7420612076616044820152683634b21037bbb732b960b91b6064820152608490fd5b503461020257602036600319011261020257806040916101e083516125328161365c565b828152606060208201526060858201526060808201528260808201528260a08201528260c08201528260e08201528261010082015282610120820152826101408201528261016082015282610180820152826101a0820152826101c082015201526004356125b86114f782600052600260205260018060a01b0360406000205416151590565b8152600d60205220600d604051916125cf8361365c565b805483526125df60018201613793565b60208401526125f060028201613793565b604084015261260160038201613793565b6060840152600481015461261760ff8216613839565b60ff8116608085015260ff8160081c1661263081613839565b60a085015260018060a01b039060101c1660c0840152600581015460e084015260ff6006820154161515610100840152600781015461012084015260ff60088201541615156101408401526009810154610160840152600a810154610180840152600b8101546101a0840152600c8101546101c084015201546101e0820152604051809160208252805160208301526101e06127116126e0602084015161020060408701526102208601906135a8565b6126fc604085015191601f1992838883030160608901526135a8565b906060850151908683030160808701526135a8565b91608081015161272081613839565b60a085015260a081015161273381613839565b60c085015260018060a01b0360c08201511660e085015260e0810151610100850152610100810151151561012085015261012081015161014085015261014081015115156101608501526101608101516101808501526101808101516101a08501526101a08101516101c08501526101c08101518285015201516102008301520390f35b50346102025760203660031901126102025760206127d66004356139ed565b6040516001600160a01b039091168152f35b5034610202578060031936011261020257602060405160018152f35b5034610202576020366003190112610202576004358152600d60205260409020805461283260018301613793565b9161283f60028201613793565b61284b60038301613793565b916004810154926005820154600683015460ff166007840154600885015460ff1690600986015492600a87015494600b88015496600c89015498600d0154996040519d8e9d8e528d61020090816020820152016128a7916135a8565b8d810360408f01526128b8916135a8565b8c810360608e01526128c9916135a8565b9960ff81166128d781613839565b60808d01528060081c60ff166128ec81613839565b60a08d015260101c6001600160a01b031660c08c015260e08b015215156101008a015261012089015215156101408801526101608701526101808601526101a08501526101c08401526101e08301520390f35b50346102025761058061057b61295436613724565b906040519261296284613678565b86845261056b6105668433613b23565b5034610202578060031936011261020257602060405167016345785d8a00008152f35b5034610202578060031936011261020257600b546040516001600160a01b039091168152602090f35b5034610202576105806129d036613724565b916119286105668433613b23565b50346102025760c0366003190112610202576024356001600160401b0381116104ec57612a0f903690600401613706565b906044356001600160401b0381116104ec57612a2f903690600401613706565b906064356001600160401b0381116104ec57612a4f903690600401613706565b9060046084351015610202576009546040516303cf950f60e01b808252600480359083015292918290829060249082906001600160a01b03165afa9081156122805790612ab191839161325e5750602001516001600160a01b0316331461410f565b612ab96142c5565b60095460405192835260048035908401526001600160a01b03168183602481845afa928315612280578293613242575b5063ffffffff80610140850151169061024085015116111561320a5761026083015115613202576002925b600260ff851614806131f6575b61110357612b3560ff851660a43514614152565b60ff84166001036131d657620186a06101a0612b5492015110156141ef565b6004358252600e6020526040822060ff84168352602052612b7b600a604084205410614247565b6004358252600e6020526040822060ff8416835260205260408220546001810181116131c257600101600a14613181575b505b612bb96004356145fb565b926001600c54019485600c55612bcf863361431b565b60405196612bdc8861365c565b6004358852602088015260408701526060860152612bfb608435613839565b6084356080860152612c0c83613839565b8260a08601523360c08601524260e08601528061010086015260ff8216610120860152806101408601528061016086015280610180860152806101a0860152806101c0860152426101e0860152838152600d602052604081208551815560208601518051906001600160401b038211612fd9578190612c8e6001850154613759565b601f8111613131575b50602090601f83116001146130c25785926130b7575b50508160011b916000199060031b1c19161760018201555b60408601518051906001600160401b038211612fd9578190612cea6002850154613759565b601f8111613067575b50602090601f8311600114612ff8578592612fed575b50508160011b916000199060031b1c19161760028201555b60608601519586516001600160401b038111612fd957612d446003840154613759565b601f8111612f95575b506020978890601f8311600114612f1d5785938360409694600d946101e09460ff9b9a92612f12575b50508160011b916000199060031b1c19161760038501555b612e07600485016080830151612da381613839565b612dac81613839565b81548b61ff0060a0870151612dc081613839565b612dc981613839565b60c088015162010000600160b01b031961ffff19909516939095169290921760089290921b16171660109190911b62010000600160b01b0316179055565b60e08101516005850155612e316101008201511515600686019060ff801983541691151516179055565b6101208101516007850155612e5c6101408201511515600886019060ff801983541691151516179055565b6101608101516009850155610180810151600a8501556101a0810151600b8501556101c0810151600c85015501519101556004358152600e87528181208484168252875220612eab81546142b6565b905560405192612ebc608435613839565b6084358452612eca81613839565b858401521660408201524260608201523390827f6c9ae9ae2ddb72bfed0c3c47382b5d575e1f8114b2530dbbb1a29e853df0b987608060043593a46001600855604051908152f35b015190503880612d76565b9060038501865289862091865b601f1985168110612f7e575093600184600d946101e09460ff9b9a9860409a98601f19811610612f65575b505050811b016003850155612d8e565b015160001960f88460031b161c19169055388080612f55565b91928b600181928685015181550194019201612f2a565b60038401855260208520601f830160051c810160208410612fd2575b601f830160051c82018110612fc7575050612d4d565b868155600101612fb1565b5080612fb1565b634e487b7160e01b84526041600452602484fd5b015190503880612d09565b9250600284018552602085209085935b601f198416851061304c576001945083601f19811610613033575b505050811b016002820155612d21565b015160001960f88460031b161c19169055388080613023565b81810151835560209485019460019093019290910190613008565b90915060028401855260208520601f840160051c8101602085106130b0575b90849392915b601f830160051c820181106130a2575050612cf3565b87815585945060010161308c565b5080613086565b015190503880612cad565b9250600184018552602085209085935b601f1984168510613116576001945083601f198116106130fd575b505050811b016001820155612cc5565b015160001960f88460031b161c191690553880806130ed565b818101518355602094850194600190930192909101906130d2565b90915060018401855260208520601f840160051c81016020851061317a575b90849392915b601f830160051c8201811061316c575050612c97565b878155859450600101613156565b5080613150565b803b156104ec5781809160246040518094819363198bcb5b60e21b835260043560048401525af180156122805715612bac576131bc90613633565b38612bac565b634e487b7160e01b83526011600452602483fd5b6131f1915060036102806101a0830151920151041115614195565b612bae565b50600160a43514612b21565b600192612b14565b60405162461bcd60e51b815260206004820152601060248201526f13585e081391951cc81c995858da195960821b6044820152606490fd5b6132579193503d8084833e6111948183613693565b9138612ae9565b61120b91503d8085833e6111948183613693565b50346102025760403660031901126102025761328c6135cd565b602435906001600160a01b0380806132a3856139ed565b1692169180831461339857803314908115613377575b501561330c5782845260046020526040842080546001600160a01b031916831790556132e4836139ed565b167f8c5be1e5ebec7d5bd14f71427d1e84f3dd0314c0f7b2291e5b200ac8c7c3b9258480a480f35b60405162461bcd60e51b815260206004820152603d60248201527f4552433732313a20617070726f76652063616c6c6572206973206e6f7420746f60448201527f6b656e206f776e6572206f7220617070726f76656420666f7220616c6c0000006064820152608490fd5b9050845260056020526040842033855260205260ff604085205416386132b9565b60405162461bcd60e51b815260206004820152602160248201527f4552433732313a20617070726f76616c20746f2063757272656e74206f776e656044820152603960f91b6064820152608490fd5b50346102025760203660031901126102025760206127d6600435613a10565b50346102025780600319360112610202576009546040516001600160a01b039091168152602090f35b50346102025780600319360112610202576040519080805461345081613759565b808552916001918083169081156134d4575060011461347a575b6103e88561142781870382613693565b80809450527f290decd9548b62a8d60345a988386fc84ba6bc95484008f6362f93160ef3e5635b8284106134bc575050508101602001611427826103e861346a565b805460208587018101919091529093019281016134a1565b8695506103e89693506020925061142794915060ff191682840152151560051b820101929361346a565b9050346104ec5760203660031901126104ec5760043563ffffffff60e01b811680910361123e5760209250632483248360e11b8114908115613542575b5015158152f35b6380ac58cd60e01b811491508115613574575b8115613563575b503861353b565b6301ffc9a760e01b1490503861355c565b635b5e139f60e01b81149150613555565b60005b8381106135985750506000910152565b8181015183820152602001613588565b906020916135c181518092818552858086019101613585565b601f01601f1916010190565b600435906001600160a01b038216820361000f57565b602435906001600160a01b038216820361000f57565b503461000f57602036600319011261000f57602060405160008152f35b503461000f57600036600319011261000f576020604051600a8152f35b6001600160401b03811161364657604052565b634e487b7160e01b600052604160045260246000fd5b61020081019081106001600160401b0382111761364657604052565b602081019081106001600160401b0382111761364657604052565b90601f801991011681019081106001600160401b0382111761364657604052565b6001600160401b03811161364657601f01601f191660200190565b9291926136db826136b4565b916136e96040519384613693565b82948184528183011161000f578281602093846000960137010152565b9080601f8301121561000f57816020613721933591016136cf565b90565b606090600319011261000f576001600160a01b0390600435828116810361000f5791602435908116810361000f579060443590565b90600182811c92168015613789575b602083101461377357565b634e487b7160e01b600052602260045260246000fd5b91607f1691613768565b90604051918260008254926137a784613759565b90818452600194858116908160001461381657506001146137d3575b50506137d192500383613693565b565b9093915060005260209081600020936000915b8183106137fe5750506137d1935082010138806137c3565b855488840185015294850194879450918301916137e6565b9150506137d194506020925060ff191682840152151560051b82010138806137c3565b6004111561384357565b634e487b7160e01b600052602160045260246000fd5b604090600319011261000f576004359060243590565b60243590811515820361000f57565b6001600160401b0381116136465760051b60200190565b9080601f8301121561000f578135906138ad8261387e565b926138bb6040519485613693565b828452602092838086019160051b8301019280841161000f57848301915b8483106138e95750505050505090565b82356001600160401b03811161000f57869161390a84848094890101613706565b8152019201916138d9565b90815180825260208080930193019160005b828110613935575050505090565b835185529381019392810192600101613927565b6007546001600160a01b0316330361395d57565b606460405162461bcd60e51b815260206004820152602060248201527f4f776e61626c653a2063616c6c6572206973206e6f7420746865206f776e65726044820152fd5b156139a857565b60405162461bcd60e51b815260206004820152601860248201527f4552433732313a20696e76616c696420746f6b656e20494400000000000000006044820152606490fd5b6000908152600260205260409020546001600160a01b03166137218115156139a1565b600081815260026020526040902054613a33906001600160a01b031615156139a1565b6000908152600460205260409020546001600160a01b031690565b15613a5557565b60405162461bcd60e51b815260206004820152602d60248201527f4552433732313a2063616c6c6572206973206e6f7420746f6b656e206f776e6560448201526c1c881bdc88185c1c1c9bdd9959609a1b6064820152608490fd5b60809060208152603260208201527f4552433732313a207472616e7366657220746f206e6f6e20455243373231526560408201527131b2b4bb32b91034b6b83632b6b2b73a32b960711b60608201520190565b15613b0a57565b60405162461bcd60e51b81528061116760048201613ab0565b906001600160a01b038080613b37846139ed565b16931691838314938415613b6a575b508315613b54575b50505090565b613b6091929350613a10565b1614388080613b4e565b909350600052600560205260406000208260005260205260ff604060002054169238613b46565b15613b9857565b60405162461bcd60e51b815260206004820152602560248201527f4552433732313a207472616e736665722066726f6d20696e636f72726563742060448201526437bbb732b960d91b6064820152608490fd5b90613c1391613bf9846139ed565b6001600160a01b0393918416928492909183168414613b91565b16918215613cab5781613c3091613c29866139ed565b1614613b91565b7fddf252ad1be2c89b69c2b068fc378daa952ba7f163c4a11628f55a4df523b3ef60008481526004602052604081206001600160601b0360a01b9081815416905583825260036020526040822060001981540190558482526040822060018154019055858252600260205284604083209182541617905580a4565b60405162461bcd60e51b8152602060048201526024808201527f4552433732313a207472616e7366657220746f20746865207a65726f206164646044820152637265737360e01b6064820152608490fd5b3d15613d27573d90613d0d826136b4565b91613d1b6040519384613693565b82523d6000602084013e565b606090565b9091600091803b15613e1757613d776020918493604051948580948193630a85bd0160e11b9a8b845233600485015284602485015260448401526080606484015260848301906135a8565b03926001600160a01b03165af190829082613dcf575b5050613dc157613d9b613cfc565b80519081613dbc5760405162461bcd60e51b81528061116760048201613ab0565b602001fd5b6001600160e01b0319161490565b909192506020813d8211613e0f575b81613deb60209383613693565b810103126104ec5751906001600160e01b0319821682036102025750903880613d8d565b3d9150613dde565b50505050600190565b91926000929190813b15613e9157602091613e769185604051958680958194630a85bd0160e11b9b8c845233600485015260018060a01b03809516602485015260448401526080606484015260848301906135a8565b0393165af190829082613dcf575050613dc157613d9b613cfc565b5050505050600190565b51906001600160a01b038216820361000f57565b81601f8201121561000f578051613ec5816136b4565b92613ed36040519485613693565b8184526020828401011161000f576137219160208085019101613585565b519063ffffffff8216820361000f57565b5190811515820361000f57565b60208183031261000f5780516001600160401b039182821161000f5701906103a092838382031261000f57604051938401848110838211176136465760405282518452613f5e60208401613e9b565b6020850152604083015182811161000f5781613f7b918501613eaf565b6040850152606083015182811161000f5781613f98918501613eaf565b6060850152608083015182811161000f5781613fb5918501613eaf565b608085015260a083015191821161000f57613fd1918301613eaf565b60a0830152613fe260c08201613ef1565b60c0830152613ff360e08201613f02565b60e08301526101008082015190830152610120808201519083015261014061401c818301613ef1565b90830152610160808201519083015261018080820151908301526101a080820151908301526101c080820151908301526101e0808201519060ff8216820361000f5783015261020061406f818301613ef1565b90830152610220808201519083015261024061408c818301613ef1565b9083015261026061409e818301613f02565b9083015261028080820151908301526102a080820151908301526102c080820151908301526102e080820151908301526103008082015190830152610320808201519083015261034080820151908301526103608082015190830152614108610380809201613f02565b9082015290565b1561411657565b60405162461bcd60e51b81526020600482015260146024820152732737ba103a34329039ba37b93c9030baba3437b960611b6044820152606490fd5b1561415957565b60405162461bcd60e51b815260206004820152601460248201527324b73b30b634b2103130ba31b410373ab6b132b960611b6044820152606490fd5b1561419c57565b60405162461bcd60e51b815260206004820152602560248201527f576f726420636f756e74206e6f7420656e6f75676820666f72207365636f6e64604482015264081b5a5b9d60da1b6064820152608490fd5b156141f657565b60405162461bcd60e51b8152602060048201526024808201527f576f726420636f756e74206e6f7420656e6f75676820666f72206669727374206044820152631b5a5b9d60e21b6064820152608490fd5b1561424e57565b60405162461bcd60e51b815260206004820152601e60248201527f576f756c6420657863656564206669727374206261746368206c696d697400006044820152606490fd5b919082018092116142a057565b634e487b7160e01b600052601160045260246000fd5b60001981146142a05760010190565b6002600854146142d6576002600855565b60405162461bcd60e51b815260206004820152601f60248201527f5265656e7472616e637947756172643a207265656e7472616e742063616c6c006044820152606490fd5b60405161432781613678565b6000808252926001600160a01b0383169283156143ec578161057b946137d19661436f61436984600052600260205260018060a01b0360406000205416151590565b15614430565b600083815260026020526040902054614392906001600160a01b03161515614369565b81815260036020526040812060018154019055828152600260205260408120826001600160601b0360a01b8254161790557fddf252ad1be2c89b69c2b068fc378daa952ba7f163c4a11628f55a4df523b3ef8180a4613d2c565b606460405162461bcd60e51b815260206004820152602060248201527f4552433732313a206d696e7420746f20746865207a65726f20616464726573736044820152fd5b1561443757565b60405162461bcd60e51b815260206004820152601c60248201527f4552433732313a20746f6b656e20616c7265616479206d696e746564000000006044820152606490fd5b906144868261387e565b6144936040519182613693565b82815280926144a4601f199161387e565b0190602036910137565b80518210156144c25760209160051b010190565b634e487b7160e01b600052603260045260246000fd5b156144df57565b60405162461bcd60e51b815260206004820152600e60248201526d139195081b9bdd081b1a5cdd195960921b6044820152606490fd5b1561451c57565b60405162461bcd60e51b815260206004820152601c60248201527f506c6174666f726d20666565207472616e73666572206661696c6564000000006044820152606490fd5b1561456857565b60405162461bcd60e51b815260206004820152601c60248201527f417574686f72207374616b65207472616e73666572206661696c6564000000006044820152606490fd5b919082039182116142a057565b156145c157565b60405162461bcd60e51b815260206004820152601260248201527113919508191bd95cc81b9bdd08195e1a5cdd60721b6044820152606490fd5b600081815260106020526032604082205410156146575761461b82614662565b9161462583613839565b600383146146485790604091815260106020522061464381546142b6565b905590565b81526010602052604081205590565b604081205550600390565b60001943014381116142a0576000828152600e602090815260408083206001845290915280822054600283528183205492949261469e91614293565b815192602084019440855242838501523360601b6060850152607484015260948301526094825260c08201908282106001600160401b0383111761471457525190206064900660058110156146f4575050600390565b6014811015614704575050600290565b60321161470e5790565b50600190565b634e487b7160e01b85526041600452602485fdfea26469706673582212208549a7d8549372cd43bd671103ddbffa81b741d141205fc3e7c08f02b22c44cc64736f6c63430008110033",
  "linkReferences": {},
  "deployedLinkReferences": {}
}