{
  "_format": "hh-sol-artifact-1",
  "contractName": "ReaderActivity",
  "sourceName": "contracts/ReaderActivity.sol",
  "abi": [
    {
      "inputs": [
        {
          "internalType": "address payable",
          "name": "_treasuryManager",
          "type": "address"
        },
        {
          "internalType": "address",
          "name": "_taforToken",
          "type": "address"
        },
        {
          "internalType": "address",
          "name": "_storyManager",
          "type": "address"
        }
      ],
      "stateMutability": "nonpayable",
      "type": "constructor"
    },
    {
      "anonymous": false,
      "inputs": [
        {
          "indexed": true,
          "internalType": "address",
          "name": "reader",
          "type": "address"
        },
        {
          "indexed": true,
          "internalType": "uint256",
          "name": "storyId",
          "type": "uint256"
        },
        {
          "indexed": false,
          "internalType": "uint256",
          "name": "timestamp",
          "type": "uint256"
        }
      ],
      "name": "Comment",
      "type": "event"
    },
    {
      "anonymous": false,
      "inputs": [
        {
          "indexed": true,
          "internalType": "address",
          "name": "reader",
          "type": "address"
        },
        {
          "indexed": true,
          "internalType": "uint256",
          "name": "storyId",
          "type": "uint256"
        },
        {
          "indexed": false,
          "internalType": "uint256",
          "name": "timestamp",
          "type": "uint256"
        }
      ],
      "name": "Like",
      "type": "event"
    },
    {
      "anonymous": false,
      "inputs": [
        {
          "indexed": false,
          "internalType": "uint256",
          "name": "winnerCount",
          "type": "uint256"
        },
        {
          "indexed": false,
          "internalType": "uint256",
          "name": "totalReward",
          "type": "uint256"
        },
        {
          "indexed": false,
          "internalType": "uint256",
          "name": "timestamp",
          "type": "uint256"
        }
      ],
      "name": "LotteryCompleted",
      "type": "event"
    },
    {
      "anonymous": false,
      "inputs": [
        {
          "indexed": false,
          "internalType": "string",
          "name": "reason",
          "type": "string"
        },
        {
          "indexed": false,
          "internalType": "uint256",
          "name": "timestamp",
          "type": "uint256"
        }
      ],
      "name": "LotterySkipped",
      "type": "event"
    },
    {
      "anonymous": false,
      "inputs": [
        {
          "indexed": false,
          "internalType": "uint32",
          "name": "winnerCount",
          "type": "uint32"
        },
        {
          "indexed": false,
          "internalType": "uint256",
          "name": "distributedAmount",
          "type": "uint256"
        },
        {
          "indexed": false,
          "internalType": "uint256",
          "name": "reservedAmount",
          "type": "uint256"
        },
        {
          "indexed": false,
          "internalType": "uint256",
          "name": "timestamp",
          "type": "uint256"
        }
      ],
      "name": "MinimalLotteryCompleted",
      "type": "event"
    },
    {
      "anonymous": false,
      "inputs": [
        {
          "indexed": false,
          "internalType": "uint32",
          "name": "baseWinners",
          "type": "uint32"
        },
        {
          "indexed": false,
          "internalType": "uint8",
          "name": "extraWinners",
          "type": "uint8"
        },
        {
          "indexed": false,
          "internalType": "uint256",
          "name": "totalReward",
          "type": "uint256"
        },
        {
          "indexed": false,
          "internalType": "uint256",
          "name": "timestamp",
          "type": "uint256"
        }
      ],
      "name": "MonthlyLotteryCompleted",
      "type": "event"
    },
    {
      "anonymous": false,
      "inputs": [
        {
          "indexed": true,
          "internalType": "address",
          "name": "previousOwner",
          "type": "address"
        },
        {
          "indexed": true,
          "internalType": "address",
          "name": "newOwner",
          "type": "address"
        }
      ],
      "name": "OwnershipTransferred",
      "type": "event"
    },
    {
      "anonymous": false,
      "inputs": [
        {
          "indexed": true,
          "internalType": "address",
          "name": "reader",
          "type": "address"
        },
        {
          "indexed": false,
          "internalType": "uint256",
          "name": "consecutiveDays",
          "type": "uint256"
        },
        {
          "indexed": false,
          "internalType": "uint256",
          "name": "timestamp",
          "type": "uint256"
        }
      ],
      "name": "ReaderCheckIn",
      "type": "event"
    },
    {
      "inputs": [],
      "name": "BASE_WINNER_PERCENTAGE",
      "outputs": [
        {
          "internalType": "uint256",
          "name": "",
          "type": "uint256"
        }
      ],
      "stateMutability": "view",
      "type": "function"
    },
    {
      "inputs": [],
      "name": "LOTTERY_INTERVAL",
      "outputs": [
        {
          "internalType": "uint256",
          "name": "",
          "type": "uint256"
        }
      ],
      "stateMutability": "view",
      "type": "function"
    },
    {
      "inputs": [],
      "name": "MIN_ACTIVE_DAYS_FOR_LOTTERY",
      "outputs": [
        {
          "internalType": "uint256",
          "name": "",
          "type": "uint256"
        }
      ],
      "stateMutability": "view",
      "type": "function"
    },
    {
      "inputs": [],
      "name": "MIN_CHECK_IN_INTERVAL",
      "outputs": [
        {
          "internalType": "uint256",
          "name": "",
          "type": "uint256"
        }
      ],
      "stateMutability": "view",
      "type": "function"
    },
    {
      "inputs": [],
      "name": "TOP_PRIZE_PERCENTAGE",
      "outputs": [
        {
          "internalType": "uint256",
          "name": "",
          "type": "uint256"
        }
      ],
      "stateMutability": "view",
      "type": "function"
    },
    {
      "inputs": [],
      "name": "TOP_WINNERS_COUNT",
      "outputs": [
        {
          "internalType": "uint256",
          "name": "",
          "type": "uint256"
        }
      ],
      "stateMutability": "view",
      "type": "function"
    },
    {
      "inputs": [],
      "name": "accumulatedRewards",
      "outputs": [
        {
          "internalType": "uint256",
          "name": "",
          "type": "uint256"
        }
      ],
      "stateMutability": "view",
      "type": "function"
    },
    {
      "inputs": [],
      "name": "activeReaders",
      "outputs": [
        {
          "internalType": "uint256",
          "name": "",
          "type": "uint256"
        }
      ],
      "stateMutability": "view",
      "type": "function"
    },
    {
      "inputs": [
        {
          "internalType": "address",
          "name": "reader",
          "type": "address"
        },
        {
          "internalType": "uint256",
          "name": "storyId",
          "type": "uint256"
        }
      ],
      "name": "addComment",
      "outputs": [],
      "stateMutability": "nonpayable",
      "type": "function"
    },
    {
      "inputs": [
        {
          "internalType": "address",
          "name": "reader",
          "type": "address"
        },
        {
          "internalType": "uint256",
          "name": "storyId",
          "type": "uint256"
        }
      ],
      "name": "addLike",
      "outputs": [],
      "stateMutability": "nonpayable",
      "type": "function"
    },
    {
      "inputs": [],
      "name": "checkIn",
      "outputs": [],
      "stateMutability": "nonpayable",
      "type": "function"
    },
    {
      "inputs": [
        {
          "internalType": "address",
          "name": "reader",
          "type": "address"
        }
      ],
      "name": "getConsecutiveDays",
      "outputs": [
        {
          "internalType": "uint256",
          "name": "",
          "type": "uint256"
        }
      ],
      "stateMutability": "view",
      "type": "function"
    },
    {
      "inputs": [],
      "name": "getLotteryStats",
      "outputs": [
        {
          "internalType": "uint256",
          "name": "_totalReaders",
          "type": "uint256"
        },
        {
          "internalType": "uint256",
          "name": "_activeReaders",
          "type": "uint256"
        },
        {
          "internalType": "uint256",
          "name": "_lastLotteryTime",
          "type": "uint256"
        },
        {
          "internalType": "uint256",
          "name": "_accumulatedRewards",
          "type": "uint256"
        },
        {
          "internalType": "uint256",
          "name": "_nextLotteryTime",
          "type": "uint256"
        }
      ],
      "stateMutability": "view",
      "type": "function"
    },
    {
      "inputs": [
        {
          "internalType": "address",
          "name": "reader",
          "type": "address"
        }
      ],
      "name": "getReaderInfo",
      "outputs": [
        {
          "internalType": "uint256",
          "name": "lastCheckIn",
          "type": "uint256"
        },
        {
          "internalType": "uint32",
          "name": "monthlyActiveDays",
          "type": "uint32"
        },
        {
          "internalType": "uint256",
          "name": "lotteryWeight",
          "type": "uint256"
        },
        {
          "internalType": "uint32",
          "name": "commentCount",
          "type": "uint32"
        },
        {
          "internalType": "uint32",
          "name": "likeCount",
          "type": "uint32"
        },
        {
          "internalType": "bool",
          "name": "isActive",
          "type": "bool"
        }
      ],
      "stateMutability": "view",
      "type": "function"
    },
    {
      "inputs": [
        {
          "internalType": "address",
          "name": "reader",
          "type": "address"
        }
      ],
      "name": "isEligibleForLottery",
      "outputs": [
        {
          "internalType": "bool",
          "name": "",
          "type": "bool"
        }
      ],
      "stateMutability": "view",
      "type": "function"
    },
    {
      "inputs": [],
      "name": "lastLotteryTime",
      "outputs": [
        {
          "internalType": "uint256",
          "name": "",
          "type": "uint256"
        }
      ],
      "stateMutability": "view",
      "type": "function"
    },
    {
      "inputs": [],
      "name": "lotteryPool",
      "outputs": [
        {
          "internalType": "uint256",
          "name": "",
          "type": "uint256"
        }
      ],
      "stateMutability": "view",
      "type": "function"
    },
    {
      "inputs": [],
      "name": "owner",
      "outputs": [
        {
          "internalType": "address",
          "name": "",
          "type": "address"
        }
      ],
      "stateMutability": "view",
      "type": "function"
    },
    {
      "inputs": [
        {
          "internalType": "address",
          "name": "",
          "type": "address"
        }
      ],
      "name": "readers",
      "outputs": [
        {
          "internalType": "uint256",
          "name": "lastCheckIn",
          "type": "uint256"
        },
        {
          "internalType": "uint32",
          "name": "monthlyActiveDays",
          "type": "uint32"
        },
        {
          "internalType": "uint256",
          "name": "lotteryWeight",
          "type": "uint256"
        },
        {
          "internalType": "uint32",
          "name": "commentCount",
          "type": "uint32"
        },
        {
          "internalType": "uint32",
          "name": "likeCount",
          "type": "uint32"
        },
        {
          "internalType": "bool",
          "name": "isActive",
          "type": "bool"
        }
      ],
      "stateMutability": "view",
      "type": "function"
    },
    {
      "inputs": [],
      "name": "renounceOwnership",
      "outputs": [],
      "stateMutability": "nonpayable",
      "type": "function"
    },
    {
      "inputs": [],
      "name": "runMonthlyLottery",
      "outputs": [],
      "stateMutability": "nonpayable",
      "type": "function"
    },
    {
      "inputs": [],
      "name": "storyManager",
      "outputs": [
        {
          "internalType": "contract StoryManager",
          "name": "",
          "type": "address"
        }
      ],
      "stateMutability": "view",
      "type": "function"
    },
    {
      "inputs": [],
      "name": "taforToken",
      "outputs": [
        {
          "internalType": "contract TaforToken",
          "name": "",
          "type": "address"
        }
      ],
      "stateMutability": "view",
      "type": "function"
    },
    {
      "inputs": [],
      "name": "totalReaders",
      "outputs": [
        {
          "internalType": "uint256",
          "name": "",
          "type": "uint256"
        }
      ],
      "stateMutability": "view",
      "type": "function"
    },
    {
      "inputs": [
        {
          "internalType": "address",
          "name": "newOwner",
          "type": "address"
        }
      ],
      "name": "transferOwnership",
      "outputs": [],
      "stateMutability": "nonpayable",
      "type": "function"
    },
    {
      "inputs": [],
      "name": "treasuryManager",
      "outputs": [
        {
          "internalType": "contract TreasuryManager",
          "name": "",
          "type": "address"
        }
      ],
      "stateMutability": "view",
      "type": "function"
    }
  ],
  "bytecode": "0x608034620000e957601f62001b4838819003918201601f19168301916001600160401b03831184841017620000ee57808492606094604052833981010312620000e95780516001600160a01b0380821691829003620000e9576200007460406200006c6020860162000104565b940162000104565b816000549460018060a01b031994338688161760005560405196833391167f8be0079c531659141344cd1fd0a4f28419497f9722a3daafe3b4186f6b6457e0600080a360018055856009541617600955168360025416176002551690600a541617600a5542600655611a2e90816200011a8239f35b600080fd5b634e487b7160e01b600052604160045260246000fd5b51906001600160a01b0382168203620000e95756fe608060408181526004908136101561001657600080fd5b600092833560e01c908163077a3fc0146109cb575080630aab6ff4146109af578063161195c614610991578063183ff08514610768578063280efcf31461074c5780632c8316331461072d5780633359f1641461070f57806338836b19146106335780633cea70d91461060a5780633ee26ed8146105ee578063442208b2146105cf57806345ca58711461056d57806351e59ffb14610375578063637546ec14610540578063660ee4cd146105245780636bf15acd146105055780636fe9d09a146104e7578063715018a61461048d5780637517f5ff1461042d5780638da5cb5b14610405578063938e8ee0146103755780639c81ff6b14610356578063d8957eb214610329578063de503527146102f6578063f2fde38b146102335763f65a8f401461014257600080fd5b3461022f578060031936011261022f576101ce61015d6109f0565b610165610a0b565b6001600160a01b0381169361017b8515156119b3565b8486526003602052808487200190815460ff81871c16156101fe575b5050805467ffffffff000000006101b663ffffffff8360201c16610b36565b60201b169067ffffffff0000000019161790556117b9565b51904282527f14d55fe13666cc19044566eba513c8cea1db0912c0220da4c2244eb8f3b28a5c602060243593a380f35b60ff60401b1916600160401b178255805461021890610ae3565b9055610225600554610ae3565b6005553880610197565b8280fd5b50903461022f57602036600319011261022f5761024e6109f0565b90610257610a0b565b6001600160a01b039182169283156102a457505082546001600160a01b0319811683178455167f8be0079c531659141344cd1fd0a4f28419497f9722a3daafe3b4186f6b6457e08380a380f35b906020608492519162461bcd60e51b8352820152602660248201527f4f776e61626c653a206e6577206f776e657220697320746865207a65726f206160448201526564647265737360d01b6064820152fd5b833461032657806003193601126103265761030f610a0b565b610317610b4b565b61031f610be1565b6001805580f35b80fd5b83823461035257816003193601126103525760025490516001600160a01b039091168152602090f35b5080fd5b8382346103525781600319360112610352576020906007549051908152f35b508234610326576020366003190112610326576104019082906001600160a01b0361039e6109f0565b168152600360208181529290912060018101546002820154928201549690910154855191825263ffffffff92831682850152604082019690965285821660608201529185901c1660808201529290911c60ff16151560a0830152819060c0820190565b0390f35b838234610352578160031936011261035257905490516001600160a01b039091168152602090f35b50823461032657806003193601126103265782549160055490600654906007549262278d0083019485841161047a575060a096508151958652602086015284015260608301526080820152f35b634e487b7160e01b815260118852602490fd5b83346103265780600319360112610326576104a6610a0b565b80546001600160a01b03198116825581906001600160a01b03167f8be0079c531659141344cd1fd0a4f28419497f9722a3daafe3b4186f6b6457e08280a380f35b8382346103525781600319360112610352576020905162278d008152f35b8382346103525781600319360112610352576020906005549051908152f35b83823461035257816003193601126103525760209051601e8152f35b838234610352576020366003190112610352576020906105666105616109f0565b6118bc565b9051908152f35b503461022f57602036600319011261022f5760209260ff9082906001600160a01b036105976109f0565b168152600386522092830154821c1691826105b6575b50519015158152f35b6007919250600263ffffffff91015416101590386105ad565b8382346103525781600319360112610352576020906006549051908152f35b8382346103525781600319360112610352576020905160058152f35b83823461035257816003193601126103525760095490516001600160a01b039091168152602090f35b503461022f578060031936011261022f576106ae61064f6109f0565b610657610a0b565b6001600160a01b0381169361066d8515156119b3565b8486526003602052808487200190815460ff81871c16156106de575b5050805463ffffffff61069d818316610b36565b169063ffffffff19161790556117b9565b51904282527fd4276d50a171888f3dda2d2071590d7d312c7918bd3bf6b1445bfb9d9e88d09d602060243593a380f35b60ff60401b1916600160401b17825580546106f890610ae3565b9055610705600554610ae3565b6005553880610689565b50903461022f578260031936011261022f5760209250549051908152f35b8382346103525781600319360112610352576020906008549051908152f35b8382346103525781600319360112610352576020905160078152f35b50829034610352578160031936011261035257610783610b4b565b3382526003602052808220838101805460ff81851c1615610910575b50506001810180546201518081018082116108fd5742106108ba576301e13380908142048282041491826108a2575b50501561088e575b8154600160401b81101561087b57906107f88260016002959401845583610b08565b81549060031b90600019821b809242901b1691191617905542905501805463ffffffff610826818316610b36565b169063ffffffff191617905561083b336117b9565b7fb85fb0a6fa6edfe6acd284187e2fac281f76dad37f6a991139a3298d2536f5c4610865336118bc565b9180519283524260208401523392a26001805580f35b634e487b7160e01b855260418652602485fd5b60028201805463ffffffff191690556107d6565b90915062278d009081814206049206041486806107ce565b835162461bcd60e51b8152602081880152601860248201527f416c726561647920636865636b656420696e20746f64617900000000000000006044820152606490fd5b634e487b7160e01b865260118752602486fd5b60ff60401b1916600160401b17905581516020810167ffffffffffffffff81118282101761087b57835283905280548382558061096d575b508083526109568454610ae3565b8455610963600554610ae3565b600555848061079f565b81845260208420908101905b8181106109865750610948565b848155600101610979565b83823461035257816003193601126103525760209051620151808152f35b83823461035257816003193601126103525760209051600a8152f35b849034610352578160031936011261035257600a546001600160a01b03168152602090f35b600435906001600160a01b0382168203610a0657565b600080fd5b6000546001600160a01b03163303610a1f57565b606460405162461bcd60e51b815260206004820152602060248201527f4f776e61626c653a2063616c6c6572206973206e6f7420746865206f776e65726044820152fd5b67ffffffffffffffff8111610a7757604052565b634e487b7160e01b600052604160045260246000fd5b6060810190811067ffffffffffffffff821117610a7757604052565b90601f8019910116810190811067ffffffffffffffff821117610a7757604052565b67ffffffffffffffff8111610a775760051b60200190565b6000198114610af25760010190565b634e487b7160e01b600052601160045260246000fd5b8054821015610b205760005260206000200190600090565b634e487b7160e01b600052603260045260246000fd5b63ffffffff809116908114610af25760010190565b600260015414610b5c576002600155565b60405162461bcd60e51b815260206004820152601f60248201527f5265656e7472616e637947756172643a207265656e7472616e742063616c6c006044820152606490fd5b91908201809211610af257565b90816020910312610a0657516001600160a01b0381168103610a065790565b8051821015610b205760209160051b010190565b60065462278d008101809111610af257421061176557600280546040516370a0823160e01b815230600482015290602090829060249082906001600160a01b03165afa908115610e3757600091611733575b5080156116f757610c4690600854610ba1565b8060085562278cff19420191428311610af257600454906000805b83811061166b5750610c7290611981565b93600091825b8481106115d957505050505081518015600014610cf4575050507fa8dc7474f8b8d2ccc7f2c6efe4904a5f6133db648d62c7d7cb15d6b92d0576d86040516040815280610ce96040820160409060138152724e6f20656c696769626c65207265616465727360681b60208201520190565b4260208301520390a1565b600a10610e7257508051906008546050810281810460501482151715610af2576064610d22910480926117a2565b91610d2d84836117af565b60005b858110610d835750505091817f0dfda8d2ab16c520baa5105927cc86a341907022d637a8a73c7a61558cd1dab49360809360085563ffffffff6040519316835260208301526040820152426060820152a1565b600954604051632c83163360e01b815290602090829060049082906001600160a01b03165afa908115610e3757600091610e43575b506001600160a01b039081169190610dd08286610bcd565b511691803b15610a0657604051636af5104d60e11b81526001600160a01b03939093166004840152602483018490526000908390604490829084905af1918215610e3757610e2392610e28575b50610ae3565b610d30565b610e3190610a63565b38610e1d565b6040513d6000823e3d90fd5b610e65915060203d602011610e6b575b610e5d8183610aa9565b810190610bae565b38610db8565b503d610e53565b90601e820291808304601e1481151715610af257610e9360648404826117a2565b92610e9e8351611981565b9360005b8451811015610ed857610ed3906001600160a01b03610ec18288610bcd565b5116610ecd8289610bcd565b52610ae3565b610ea2565b5090919460005b8551811015610fb7576001808201808311610af257815b610f0b575b5050610f0690610ae3565b610edf565b8751811015610fb2578190610f6f906001600160a01b03610f2c868c610bcd565b51166000908152600360208190526040909120810154906001600160a01b03610f55848e610bcd565b5116600052806020526040600020015411610f7557610ae3565b90610ef6565b6001600160a01b03610f87868c610bcd565b51166001600160a01b03610f9b838d610bcd565b5116610fa7878d610bcd565b52610ecd828c610bcd565b610efb565b509193909294815180600a116000146115d1575b610fd481611981565b9260005b8281106115aa57505050610fef86518351906117a2565b600581029080820460051490151715610af2576064909591939504906110158751611981565b938751956000975b89518910156110ac5760005b865181101561109d576001600160a01b036110448b8d610bcd565b51166001600160a01b03611058838a610bcd565b51161461106d5761106890610ae3565b611029565b5091939092979661108d6110939160016110878b8b610bcd565b526118af565b97610ae3565b979290939161101d565b50919390929761109390610ae3565b9493929197509497956110be90611981565b93600095865b885181101561111b576110d7818c610bcd565b51156110ec575b6110e790610ae3565b6110c4565b966110e790611113906001600160a01b036111078b8d610bcd565b5116610ecd828b610bcd565b9790506110de565b5093985093945094509483511561156f57600094855b8551871015611178576111729061116c906001600160a01b036111548a8a610bcd565b51166000526003806020526040600020015490610ba1565b96610ae3565b95611131565b9092955095909295845180831160001461156857915b61119783611981565b956111a28151611981565b90600092604051904260208301524460408301528560608301526080820152608081528060a081011067ffffffffffffffff60a0830111176115545760a08101604052805160209091012094935b84841061143b57505050505050855160008115156000146114325750606461121892046117af565b925b8251600091811561142b5761122f92506117af565b60005b86518110156112fe57600954604051632c83163360e01b815290602090829060049082906001600160a01b03165afa908115610e37576000916112df575b506001600160a01b039081169190611288828a610bcd565b511691803b15610a0657604051636af5104d60e11b81526001600160a01b03939093166004840152602483018790526000908390604490829084905af1918215610e37576112da92610e285750610ae3565b611232565b6112f8915060203d602011610e6b57610e5d8183610aa9565b38611270565b50925092909360005b85518110156113d357600954604051632c83163360e01b815290602090829060049082906001600160a01b03165afa908115610e37576000916113b4575b506001600160a01b03908116919061135d8289610bcd565b511691803b15610a0657604051636af5104d60e11b81526001600160a01b03939093166004840152602483018690526000908390604490829084905af1918215610e37576113af92610e285750610ae3565b611307565b6113cd915060203d602011610e6b57610e5d8183610aa9565b38611345565b509093608092509260ff63ffffffff7f71b4b3bfbdfc1abf5c058d48ae34c80a3dcc3a57c184ae7549b018bc0e84936695426006556000600855511692511660405192835260208301526040820152426060820152a1565b505061122f565b9150509261121a565b93999095929860409b929897959b5160208101908d82528b60408201526040815261146581610a8d565b51902095851561153e57600094855b895187101561152b57611487878d610bcd565b51611521576114a2906001600160a01b03611154898d610bcd565b9586888a0611156114bc576114b690610ae3565b95611474565b60019199949d98508a9b959e9650610ecd908d939b6114f16114f8969f858060a01b036114e9858b610bcd565b511692610bcd565b5286610bcd565b925b604051602081019182528460408201526040815261151781610a8d565b51902094936111f0565b956114b690610ae3565b5097929b96509798929b909993506114fa565b634e487b7160e01b600052601260045260246000fd5b634e487b7160e01b84526041600452602484fd5b508161118e565b60405162461bcd60e51b81526020600482015260136024820152724e6f20656c696769626c65207265616465727360681b6044820152606490fd5b6115cc906001600160a01b036115c08285610bcd565b5116610ecd8288610bcd565b610fd8565b50600a610fcb565b336000526003602052604060002063ffffffff60078185840154161015918261165c575b82611633575b5050611618575b61161390610ae3565b610c78565b9261162b6116139133610ecd828b610bcd565b93905061160a565b60040154808216158015935061164d575b50503880611603565b60201c16151590503880611644565b915084600183015411916115fd565b336000526003602052604060002063ffffffff6007818684015416101591826116e8575b826116bf575b50506116aa575b6116a590610ae3565b610c61565b906116b76116a591610ae3565b91905061169c565b6004015480821615801593506116d9575b50503880611695565b60201c161515905038806116d0565b9150876001830154119161168f565b60405162461bcd60e51b81526020600482015260146024820152734e6f207265776172647320617661696c61626c6560601b6044820152606490fd5b906020823d60201161175d575b8161174d60209383610aa9565b8101031261032657505138610c33565b3d9150611740565b60405162461bcd60e51b8152602060048201526015602482015274546f6f206561726c7920666f72206c6f747465727960581b6044820152606490fd5b91908203918211610af257565b811561153e570490565b6001600160a01b03811660009081526003602052604081206002810154909263ffffffff91600a9083168181029291811591840414171561189b576117fd906118bc565b9160058302928084046005149015171561189b57600485015490808216916401fffffffe8160011b1692808404600214901517156118875790611844929160201c16610ba1565b9260038402938085046003149015171561187357509161186961186e92600394610ba1565b610ba1565b910155565b634e487b7160e01b81526011600452602490fd5b634e487b7160e01b86526011600452602486fd5b634e487b7160e01b84526011600452602484fd5b8015610af2576000190190565b6001600160a01b03166000908152600360208190526040822080549091811561197b57600193600019928084019081116119675793929190845b611903575b505050505090565b90919293946119128686610b08565b905490841b1c84870187811161189b5762015180916119346119409289610b08565b905490871b1c906117a2565b116119615761195161195791610ae3565b956118af565b93929190846118f6565b946118fb565b634e487b7160e01b82526011600452602482fd5b50505090565b9061198b82610acb565b6119986040519182610aa9565b82815280926119a9601f1991610acb565b0190602036910137565b156119ba57565b60405162461bcd60e51b8152602060048201526016602482015275496e76616c696420726561646572206164647265737360501b6044820152606490fdfea2646970667358221220e2be4b3edc1862116a40cbb0a6b5ec4aaafb7a3b8e6f94e3fc29ae783e3dba0b64736f6c63430008110033",
  "linkReferences": {},
  "deployedLinkReferences": {}
}