{
  "_format": "hh-sol-artifact-1",
  "contractName": "TaforToken",
  "sourceName": "contracts/TaforToken.sol",
  "abi": [
    {
      "inputs": [],
      "stateMutability": "nonpayable",
      "type": "constructor"
    },
    {
      "anonymous": false,
      "inputs": [
        {
          "indexed": true,
          "internalType": "address",
          "name": "owner",
          "type": "address"
        },
        {
          "indexed": true,
          "internalType": "address",
          "name": "spender",
          "type": "address"
        },
        {
          "indexed": false,
          "internalType": "uint256",
          "name": "value",
          "type": "uint256"
        }
      ],
      "name": "Approval",
      "type": "event"
    },
    {
      "anonymous": false,
      "inputs": [
        {
          "indexed": true,
          "internalType": "address",
          "name": "previousOwner",
          "type": "address"
        },
        {
          "indexed": true,
          "internalType": "address",
          "name": "newOwner",
          "type": "address"
        }
      ],
      "name": "OwnershipTransferred",
      "type": "event"
    },
    {
      "anonymous": false,
      "inputs": [
        {
          "indexed": true,
          "internalType": "address",
          "name": "to",
          "type": "address"
        },
        {
          "indexed": false,
          "internalType": "uint256",
          "name": "amount",
          "type": "uint256"
        }
      ],
      "name": "TokensMinted",
      "type": "event"
    },
    {
      "anonymous": false,
      "inputs": [
        {
          "indexed": true,
          "internalType": "address",
          "name": "from",
          "type": "address"
        },
        {
          "indexed": true,
          "internalType": "address",
          "name": "to",
          "type": "address"
        },
        {
          "indexed": false,
          "internalType": "uint256",
          "name": "value",
          "type": "uint256"
        }
      ],
      "name": "Transfer",
      "type": "event"
    },
    {
      "inputs": [],
      "name": "MAX_SUPPLY",
      "outputs": [
        {
          "internalType": "uint256",
          "name": "",
          "type": "uint256"
        }
      ],
      "stateMutability": "view",
      "type": "function"
    },
    {
      "inputs": [
        {
          "internalType": "address",
          "name": "owner",
          "type": "address"
        },
        {
          "internalType": "address",
          "name": "spender",
          "type": "address"
        }
      ],
      "name": "allowance",
      "outputs": [
        {
          "internalType": "uint256",
          "name": "",
          "type": "uint256"
        }
      ],
      "stateMutability": "view",
      "type": "function"
    },
    {
      "inputs": [
        {
          "internalType": "address",
          "name": "spender",
          "type": "address"
        },
        {
          "internalType": "uint256",
          "name": "amount",
          "type": "uint256"
        }
      ],
      "name": "approve",
      "outputs": [
        {
          "internalType": "bool",
          "name": "",
          "type": "bool"
        }
      ],
      "stateMutability": "nonpayable",
      "type": "function"
    },
    {
      "inputs": [
        {
          "internalType": "address",
          "name": "account",
          "type": "address"
        }
      ],
      "name": "balanceOf",
      "outputs": [
        {
          "internalType": "uint256",
          "name": "",
          "type": "uint256"
        }
      ],
      "stateMutability": "view",
      "type": "function"
    },
    {
      "inputs": [],
      "name": "decimals",
      "outputs": [
        {
          "internalType": "uint8",
          "name": "",
          "type": "uint8"
        }
      ],
      "stateMutability": "view",
      "type": "function"
    },
    {
      "inputs": [
        {
          "internalType": "address",
          "name": "spender",
          "type": "address"
        },
        {
          "internalType": "uint256",
          "name": "subtractedValue",
          "type": "uint256"
        }
      ],
      "name": "decreaseAllowance",
      "outputs": [
        {
          "internalType": "bool",
          "name": "",
          "type": "bool"
        }
      ],
      "stateMutability": "nonpayable",
      "type": "function"
    },
    {
      "inputs": [
        {
          "internalType": "address",
          "name": "spender",
          "type": "address"
        },
        {
          "internalType": "uint256",
          "name": "addedValue",
          "type": "uint256"
        }
      ],
      "name": "increaseAllowance",
      "outputs": [
        {
          "internalType": "bool",
          "name": "",
          "type": "bool"
        }
      ],
      "stateMutability": "nonpayable",
      "type": "function"
    },
    {
      "inputs": [
        {
          "internalType": "address",
          "name": "to",
          "type": "address"
        },
        {
          "internalType": "uint256",
          "name": "amount",
          "type": "uint256"
        }
      ],
      "name": "mint",
      "outputs": [],
      "stateMutability": "nonpayable",
      "type": "function"
    },
    {
      "inputs": [],
      "name": "name",
      "outputs": [
        {
          "internalType": "string",
          "name": "",
          "type": "string"
        }
      ],
      "stateMutability": "view",
      "type": "function"
    },
    {
      "inputs": [],
      "name": "owner",
      "outputs": [
        {
          "internalType": "address",
          "name": "",
          "type": "address"
        }
      ],
      "stateMutability": "view",
      "type": "function"
    },
    {
      "inputs": [],
      "name": "remainingMintableSupply",
      "outputs": [
        {
          "internalType": "uint256",
          "name": "",
          "type": "uint256"
        }
      ],
      "stateMutability": "view",
      "type": "function"
    },
    {
      "inputs": [],
      "name": "renounceOwnership",
      "outputs": [],
      "stateMutability": "nonpayable",
      "type": "function"
    },
    {
      "inputs": [],
      "name": "symbol",
      "outputs": [
        {
          "internalType": "string",
          "name": "",
          "type": "string"
        }
      ],
      "stateMutability": "view",
      "type": "function"
    },
    {
      "inputs": [],
      "name": "totalMinted",
      "outputs": [
        {
          "internalType": "uint256",
          "name": "",
          "type": "uint256"
        }
      ],
      "stateMutability": "view",
      "type": "function"
    },
    {
      "inputs": [],
      "name": "totalSupply",
      "outputs": [
        {
          "internalType": "uint256",
          "name": "",
          "type": "uint256"
        }
      ],
      "stateMutability": "view",
      "type": "function"
    },
    {
      "inputs": [
        {
          "internalType": "address",
          "name": "to",
          "type": "address"
        },
        {
          "internalType": "uint256",
          "name": "amount",
          "type": "uint256"
        }
      ],
      "name": "transfer",
      "outputs": [
        {
          "internalType": "bool",
          "name": "",
          "type": "bool"
        }
      ],
      "stateMutability": "nonpayable",
      "type": "function"
    },
    {
      "inputs": [
        {
          "internalType": "address",
          "name": "from",
          "type": "address"
        },
        {
          "internalType": "address",
          "name": "to",
          "type": "address"
        },
        {
          "internalType": "uint256",
          "name": "amount",
          "type": "uint256"
        }
      ],
      "name": "transferFrom",
      "outputs": [
        {
          "internalType": "bool",
          "name": "",
          "type": "bool"
        }
      ],
      "stateMutability": "nonpayable",
      "type": "function"
    },
    {
      "inputs": [
        {
          "internalType": "address",
          "name": "newOwner",
          "type": "address"
        }
      ],
      "name": "transferOwnership",
      "outputs": [],
      "stateMutability": "nonpayable",
      "type": "function"
    }
  ],
  "bytecode": "0x6080346200043a576040906001600160401b0390808301828111828210176200033c578352600a8152602090692a30b337b92a37b5b2b760b11b82820152835192848401848110828211176200033c578552600591828552642a20a327a960d91b848601528051918083116200033c5760038054936001938486811c961680156200042f575b8887101462000419578190601f96878111620003c5575b5088908783116001146200035e5760009262000352575b505060001982841b1c191690841b1781555b86519182116200033c5760049687548481811c9116801562000331575b888210146200031c57858111620002d3575b50869085841160011462000268579383949184926000956200025c575b50501b92600019911b1c19161784555b8154336001600160a01b031982168117909355855192906001600160a01b03167f8be0079c531659141344cd1fd0a4f28419497f9722a3daafe3b4186f6b6457e0600080a333156200021f5750506002546b033b2e3c9fd0803ce8000000928382018092116200020a5750907f3f2c9d57c068687834f0de942a9babb9e5acab57d516d3480a3c16ee165a427391600255336000526000815283600020838154019055835183815260007fddf252ad1be2c89b69c2b068fc378daa952ba7f163c4a11628f55a4df523b3ef833393a38260065583519283523392a251610cb89081620004408239f35b601190634e487b7160e01b6000525260246000fd5b6064928462461bcd60e51b845283015260248201527f45524332303a206d696e7420746f20746865207a65726f2061646472657373006044820152fd5b01519350388062000111565b9190601f198416928960005284896000209460005b8b89838310620002bb5750505010620002a0575b50505050811b01845562000121565b01519060f884600019921b161c191690553880808062000291565b8686015189559097019694850194889350016200027d565b886000528760002086808601891c8201928a871062000312575b01881c019085905b82811062000305575050620000f4565b60008155018590620002f5565b92508192620002ed565b602289634e487b7160e01b6000525260246000fd5b90607f1690620000e2565b634e487b7160e01b600052604160045260246000fd5b015190503880620000b3565b90869350601f19831691856000528a6000209260005b8c828210620003ae575050841162000395575b505050811b018155620000c5565b015160001983861b60f8161c1916905538808062000387565b8385015186558a9790950194938401930162000374565b9091508360005288600020878085018a1c8201928b86106200040f575b91889186959493018b1c01915b828110620003ff5750506200009c565b60008155859450889101620003ef565b92508192620003e2565b634e487b7160e01b600052602260045260246000fd5b95607f169562000085565b600080fdfe6080604081815260048036101561001557600080fd5b600092833560e01c90816306fdde031461082857508063095ea7b3146107fe57806318160ddd146107df57806323b872dd14610715578063313ce567146106f957806332cb6b0c146106d2578063349f0b9014610687578063395093511461063757806340c10f19146104d857806370a08231146104a1578063715018a6146104445780638da5cb5b1461041b57806395d89b41146102fb578063a2309ff8146102dc578063a457c2d714610235578063a9059cbb14610204578063dd62ed3e146101b75763f2fde38b146100e957600080fd5b346101b35760203660031901126101b357610102610966565b9061010b610997565b6001600160a01b03918216928315610161575050600554826bffffffffffffffffffffffff60a01b821617600555167f8be0079c531659141344cd1fd0a4f28419497f9722a3daafe3b4186f6b6457e08380a380f35b906020608492519162461bcd60e51b8352820152602660248201527f4f776e61626c653a206e6577206f776e657220697320746865207a65726f206160448201526564647265737360d01b6064820152fd5b8280fd5b505034610200578060031936011261020057806020926101d5610966565b6101dd610981565b6001600160a01b0391821683526001865283832091168252845220549051908152f35b5080fd5b50503461020057806003193601126102005760209061022e610224610966565b6024359033610a12565b5160018152f35b5082346102d957826003193601126102d95761024f610966565b918360243592338152600160205281812060018060a01b03861682526020522054908282106102885760208561022e8585038733610b80565b608490602086519162461bcd60e51b8352820152602560248201527f45524332303a2064656372656173656420616c6c6f77616e63652062656c6f77604482015264207a65726f60d81b6064820152fd5b80fd5b5050346102005781600319360112610200576020906006549051908152f35b50919034610200578160031936011261020057805190828454600181811c90808316928315610411575b60209384841081146103fe578388529081156103e2575060011461038d575b505050829003601f01601f191682019267ffffffffffffffff84118385101761037a575082918261037692528261091d565b0390f35b634e487b7160e01b815260418552602490fd5b8787529192508591837f8a35acfbc15ff81a39ae7d344fd709f28e8600b4aa8c65c6b64bfe7fe36bd19b5b8385106103ce5750505050830101388080610344565b8054888601830152930192849082016103b8565b60ff1916878501525050151560051b8401019050388080610344565b634e487b7160e01b895260228a52602489fd5b91607f1691610325565b50503461020057816003193601126102005760055490516001600160a01b039091168152602090f35b83346102d957806003193601126102d95761045d610997565b600580546001600160a01b0319811690915581906001600160a01b03167f8be0079c531659141344cd1fd0a4f28419497f9722a3daafe3b4186f6b6457e08280a380f35b5050346102005760203660031901126102005760209181906001600160a01b036104c9610966565b16815280845220549051908152f35b5090346101b357806003193601126101b3576104f2610966565b90602435916104ff610997565b6b033b2e3c9fd0803ce8000000610518846006546109ef565b116105f4576001600160a01b03169283156105b257508160209161055f7f3f2c9d57c068687834f0de942a9babb9e5acab57d516d3480a3c16ee165a4273946002546109ef565b60025584865285835280862082815401905584867fddf252ad1be2c89b69c2b068fc378daa952ba7f163c4a11628f55a4df523b3ef858451868152a36105a7826006546109ef565b60065551908152a280f35b6020606492519162461bcd60e51b8352820152601f60248201527f45524332303a206d696e7420746f20746865207a65726f2061646472657373006044820152fd5b815162461bcd60e51b8152602081860152601760248201527f576f756c6420657863656564206d617820737570706c790000000000000000006044820152606490fd5b50503461020057806003193601126102005761022e60209261068061065a610966565b338352600186528483206001600160a01b038216845286529184902054602435906109ef565b9033610b80565b50919034610200578160031936011261020057600654916b033b2e3c9fd0803ce80000009283039283116106bf576020838351908152f35b634e487b7160e01b815260118452602490fd5b505034610200578160031936011261020057602090516b033b2e3c9fd0803ce80000008152f35b5050346102005781600319360112610200576020905160128152f35b5082903461020057606036600319011261020057610731610966565b610739610981565b91846044359460018060a01b038416815260016020528181203382526020522054906000198203610773575b60208661022e878787610a12565b84821061079c57509183916107916020969561022e95033383610b80565b919394819350610765565b606490602087519162461bcd60e51b8352820152601d60248201527f45524332303a20696e73756666696369656e7420616c6c6f77616e63650000006044820152fd5b5050346102005781600319360112610200576020906002549051908152f35b50503461020057806003193601126102005760209061022e61081e610966565b6024359033610b80565b84915083346101b357826003193601126101b35782600354600181811c90808316928315610913575b60209384841081146103fe578388529081156108f757506001146108a157505050829003601f01601f191682019267ffffffffffffffff84118385101761037a575082918261037692528261091d565b600387529192508591837fc2575a0e9e593c00f959f8c92f12db2869c3395a3b0502d05e2516446f71f85b5b8385106108e35750505050830101858080610344565b8054888601830152930192849082016108cd565b60ff1916878501525050151560051b8401019050858080610344565b91607f1691610851565b6020808252825181830181905290939260005b82811061095257505060409293506000838284010152601f8019910116010190565b818101860151848201604001528501610930565b600435906001600160a01b038216820361097c57565b600080fd5b602435906001600160a01b038216820361097c57565b6005546001600160a01b031633036109ab57565b606460405162461bcd60e51b815260206004820152602060248201527f4f776e61626c653a2063616c6c6572206973206e6f7420746865206f776e65726044820152fd5b919082018092116109fc57565b634e487b7160e01b600052601160045260246000fd5b6001600160a01b03908116918215610b2d5716918215610adc57600082815280602052604081205491808310610a8857604082827fddf252ad1be2c89b69c2b068fc378daa952ba7f163c4a11628f55a4df523b3ef958760209652828652038282205586815220818154019055604051908152a3565b60405162461bcd60e51b815260206004820152602660248201527f45524332303a207472616e7366657220616d6f756e7420657863656564732062604482015265616c616e636560d01b6064820152608490fd5b60405162461bcd60e51b815260206004820152602360248201527f45524332303a207472616e7366657220746f20746865207a65726f206164647260448201526265737360e81b6064820152608490fd5b60405162461bcd60e51b815260206004820152602560248201527f45524332303a207472616e736665722066726f6d20746865207a65726f206164604482015264647265737360d81b6064820152608490fd5b6001600160a01b03908116918215610c315716918215610be15760207f8c5be1e5ebec7d5bd14f71427d1e84f3dd0314c0f7b2291e5b200ac8c7c3b925918360005260018252604060002085600052825280604060002055604051908152a3565b60405162461bcd60e51b815260206004820152602260248201527f45524332303a20617070726f766520746f20746865207a65726f206164647265604482015261737360f01b6064820152608490fd5b60405162461bcd60e51b8152602060048201526024808201527f45524332303a20617070726f76652066726f6d20746865207a65726f206164646044820152637265737360e01b6064820152608490fdfea2646970667358221220131ebb059bf231f25d1ba53ca08ddda4e4e692879c321c050415c6a6f8af939764736f6c63430008110033",
  "linkReferences": {},
  "deployedLinkReferences": {}
}