{
  "_format": "hh-sol-artifact-1",
  "contractName": "TippingSystem",
  "sourceName": "contracts/TippingSystem.sol",
  "abi": [
    {
      "inputs": [
        {
          "internalType": "address payable",
          "name": "_treasuryManager",
          "type": "address"
        },
        {
          "internalType": "address",
          "name": "_taforToken",
          "type": "address"
        },
        {
          "internalType": "address",
          "name": "_storyManager",
          "type": "address"
        },
        {
          "internalType": "address",
          "name": "_novelNFT",
          "type": "address"
        }
      ],
      "stateMutability": "nonpayable",
      "type": "constructor"
    },
    {
      "anonymous": false,
      "inputs": [
        {
          "indexed": true,
          "internalType": "address",
          "name": "previousOwner",
          "type": "address"
        },
        {
          "indexed": true,
          "internalType": "address",
          "name": "newOwner",
          "type": "address"
        }
      ],
      "name": "OwnershipTransferred",
      "type": "event"
    },
    {
      "anonymous": false,
      "inputs": [
        {
          "indexed": true,
          "internalType": "uint256",
          "name": "storyId",
          "type": "uint256"
        },
        {
          "indexed": true,
          "internalType": "address",
          "name": "author",
          "type": "address"
        },
        {
          "indexed": false,
          "internalType": "uint256",
          "name": "amount",
          "type": "uint256"
        },
        {
          "indexed": false,
          "internalType": "bool",
          "name": "useToken",
          "type": "bool"
        },
        {
          "indexed": false,
          "internalType": "uint256",
          "name": "timestamp",
          "type": "uint256"
        }
      ],
      "name": "StakeReleased",
      "type": "event"
    },
    {
      "anonymous": false,
      "inputs": [
        {
          "indexed": true,
          "internalType": "uint256",
          "name": "storyId",
          "type": "uint256"
        },
        {
          "indexed": false,
          "internalType": "uint256",
          "name": "stakedAmount",
          "type": "uint256"
        },
        {
          "indexed": false,
          "internalType": "uint256",
          "name": "platformShare",
          "type": "uint256"
        },
        {
          "indexed": false,
          "internalType": "uint256",
          "name": "timestamp",
          "type": "uint256"
        }
      ],
      "name": "StoryAbandoned",
      "type": "event"
    },
    {
      "anonymous": false,
      "inputs": [
        {
          "indexed": true,
          "internalType": "uint256",
          "name": "storyId",
          "type": "uint256"
        },
        {
          "indexed": true,
          "internalType": "address",
          "name": "tipper",
          "type": "address"
        },
        {
          "indexed": true,
          "internalType": "address",
          "name": "author",
          "type": "address"
        },
        {
          "indexed": false,
          "internalType": "uint256",
          "name": "amount",
          "type": "uint256"
        },
        {
          "indexed": false,
          "internalType": "bool",
          "name": "useToken",
          "type": "bool"
        },
        {
          "indexed": false,
          "internalType": "uint256",
          "name": "stakedAmount",
          "type": "uint256"
        },
        {
          "indexed": false,
          "internalType": "uint256",
          "name": "timestamp",
          "type": "uint256"
        }
      ],
      "name": "StoryTipped",
      "type": "event"
    },
    {
      "inputs": [],
      "name": "AUTHOR_SHARE_PERCENTAGE",
      "outputs": [
        {
          "internalType": "uint256",
          "name": "",
          "type": "uint256"
        }
      ],
      "stateMutability": "view",
      "type": "function"
    },
    {
      "inputs": [],
      "name": "AUTHOR_STAKE_PERCENTAGE",
      "outputs": [
        {
          "internalType": "uint256",
          "name": "",
          "type": "uint256"
        }
      ],
      "stateMutability": "view",
      "type": "function"
    },
    {
      "inputs": [],
      "name": "BNB_BASE",
      "outputs": [
        {
          "internalType": "uint256",
          "name": "",
          "type": "uint256"
        }
      ],
      "stateMutability": "view",
      "type": "function"
    },
    {
      "inputs": [],
      "name": "NFT_HOLDER_PERCENTAGE",
      "outputs": [
        {
          "internalType": "uint256",
          "name": "",
          "type": "uint256"
        }
      ],
      "stateMutability": "view",
      "type": "function"
    },
    {
      "inputs": [],
      "name": "PLATFORM_FEE_PERCENTAGE",
      "outputs": [
        {
          "internalType": "uint256",
          "name": "",
          "type": "uint256"
        }
      ],
      "stateMutability": "view",
      "type": "function"
    },
    {
      "inputs": [],
      "name": "TOKEN_BASE",
      "outputs": [
        {
          "internalType": "uint256",
          "name": "",
          "type": "uint256"
        }
      ],
      "stateMutability": "view",
      "type": "function"
    },
    {
      "inputs": [
        {
          "internalType": "uint256",
          "name": "storyId",
          "type": "uint256"
        }
      ],
      "name": "getTippingStats",
      "outputs": [
        {
          "internalType": "uint256",
          "name": "totalTipsBNB",
          "type": "uint256"
        },
        {
          "internalType": "uint256",
          "name": "totalTipsToken",
          "type": "uint256"
        },
        {
          "internalType": "uint256",
          "name": "stakedBNB",
          "type": "uint256"
        },
        {
          "internalType": "uint256",
          "name": "stakedToken",
          "type": "uint256"
        },
        {
          "internalType": "uint256",
          "name": "lastTipTime",
          "type": "uint256"
        }
      ],
      "stateMutability": "view",
      "type": "function"
    },
    {
      "inputs": [],
      "name": "novelNFT",
      "outputs": [
        {
          "internalType": "contract NovelNFT",
          "name": "",
          "type": "address"
        }
      ],
      "stateMutability": "view",
      "type": "function"
    },
    {
      "inputs": [],
      "name": "owner",
      "outputs": [
        {
          "internalType": "address",
          "name": "",
          "type": "address"
        }
      ],
      "stateMutability": "view",
      "type": "function"
    },
    {
      "inputs": [],
      "name": "renounceOwnership",
      "outputs": [],
      "stateMutability": "nonpayable",
      "type": "function"
    },
    {
      "inputs": [],
      "name": "storyManager",
      "outputs": [
        {
          "internalType": "contract StoryManager",
          "name": "",
          "type": "address"
        }
      ],
      "stateMutability": "view",
      "type": "function"
    },
    {
      "inputs": [],
      "name": "taforToken",
      "outputs": [
        {
          "internalType": "contract TaforToken",
          "name": "",
          "type": "address"
        }
      ],
      "stateMutability": "view",
      "type": "function"
    },
    {
      "inputs": [
        {
          "internalType": "uint256",
          "name": "storyId",
          "type": "uint256"
        }
      ],
      "name": "tipWithBNB",
      "outputs": [],
      "stateMutability": "payable",
      "type": "function"
    },
    {
      "inputs": [
        {
          "internalType": "uint256",
          "name": "storyId",
          "type": "uint256"
        },
        {
          "internalType": "uint256",
          "name": "amount",
          "type": "uint256"
        }
      ],
      "name": "tipWithToken",
      "outputs": [],
      "stateMutability": "nonpayable",
      "type": "function"
    },
    {
      "inputs": [
        {
          "internalType": "address",
          "name": "newOwner",
          "type": "address"
        }
      ],
      "name": "transferOwnership",
      "outputs": [],
      "stateMutability": "nonpayable",
      "type": "function"
    },
    {
      "inputs": [],
      "name": "treasuryManager",
      "outputs": [
        {
          "internalType": "contract TreasuryManager",
          "name": "",
          "type": "address"
        }
      ],
      "stateMutability": "view",
      "type": "function"
    }
  ],
  "bytecode": "0x6080346200010057601f620018eb38819003918201601f19168301916001600160401b038311848410176200010557808492608094604052833981010312620001005780516001600160a01b0380821691829003620001005762000066602084016200011b565b92816200008460606200007c604085016200011b565b93016200011b565b91816000549660018060a01b03199633888a161760005560405198833391167f8be0079c531659141344cd1fd0a4f28419497f9722a3daafe3b4186f6b6457e0600080a3600180558760025416176002551685600354161760035516836004541617600455169060055416176005556117ba9081620001318239f35b600080fd5b634e487b7160e01b600052604160045260246000fd5b51906001600160a01b0382168203620001005756fe608080604052600436101561001357600080fd5b6000803560e01c918263077a3fc01461111e5750816315548232146111035781633cea70d9146110db57816350e0c37814610837578163715018a6146107de578163769af85d146107d457816386293ac2146107d45781638da5cb5b146107ae5781639c699074146102da578163a815d85114610222578163b68f1c2414610218578163b6ca3d95146101fd578163d8957eb2146101d5578163ee1c6609146101ad578163f2fde38b146100da575063fd749480146100d2575b600080fd5b6100cd611165565b346101aa5760203660031901126101aa576004356001600160a01b03818116918290036101a657610109611182565b811561015257600054826bffffffffffffffffffffffff60a01b821617600055167f8be0079c531659141344cd1fd0a4f28419497f9722a3daafe3b4186f6b6457e0600080a380f35b60405162461bcd60e51b815260206004820152602660248201527f4f776e61626c653a206e6577206f776e657220697320746865207a65726f206160448201526564647265737360d01b6064820152608490fd5b8280fd5b80fd5b346101aa57806003193601126101aa576005546040516001600160a01b039091168152602090f35b346101aa57806003193601126101aa576003546040516001600160a01b039091168152602090f35b346101aa57806003193601126101aa57602060405160328152f35b50506100cd611165565b346101aa5760203660031901126101aa5760248160018060a01b0360045416604051928380926303cf950f60e01b825260043560048301525afa9081156102cf578260a093926102ac575b50506102e08101519061030081015190610340810151610320610360830151920151926040519485526020850152604084015260608301526080820152f35b6102c892503d8091833e6102c0818361125a565b81019061132c565b828061026d565b6040513d84823e3d90fd5b806020806003193601126107ab57600435906102f4611701565b34159061030182156111da565b600480546040516303cf950f60e01b81529182018590526024969193916001600160a01b039185908990829085165afa9384156107a0578694610784575b5061034f6103808501511561152d565b600a340291348304600a1481171561077157602d340290348204602d14171561077157606490046032810297811591808a0460321483171561075e57600460648a9b9a999a04976103a08984611757565b96888760025416604051948580926319a8c40360e11b82525afa918215610753578b928a9284916106fd575b849550916103f0858080808098966064829904905af16103ea61156e565b5061159e565b0198888a51168282156106f4575bf1156106e95760048685600254166040519283809262a8693f60e01b82525afa9081156106de5788918a918291610697575b5081806104499481935af161044361156e565b506115ea565b6005908482541693898b856040518098819363613eeff960e11b835260048301525afa948515610501578a95610673575b5084511561063c5750835195999561049191611764565b96871595895b85518110156105695786845416896104af83896116d7565b5187604051809481936331a9108f60e11b835260048301525afa801561055e578b8a8a8f938490610516575b849550918493918493849261050c575b1690f115610501576104fc906116b2565b610497565b6040513d8c823e3d90fd5b6108fc92506104eb565b50505050508981813d8311610557575b610530818361125a565b81010312610553578b80808d8c8c610548849761127c565b9193509193506104db565b8b80fd5b503d610526565b6040513d8e823e3d90fd5b50975097945050939690505b8160045416670de0b6b3a7640000803404970494813b15610638578760a486928360405195869485936310a83c8360e31b85528d60048601528401528160448401528a60648401528160848401525af190811561062d578491610619575b505051169460405194855284015260408301524260608301527f2d3b2b61774212dd467f2e5d257768005b2d84ba1ffbf856b802bd78b73ebea660803393a46001805580f35b61062290611230565b6101a65782896105d3565b6040513d86823e3d90fd5b8480fd5b86945089968794989b999a935091839291878493511690839061066a575bf1610575576040513d84823e3d90fd5b506108fc61065a565b6106909195503d808c833e610688818361125a565b810190611636565b938c61047a565b925050508681813d83116106d7575b6106b0818361125a565b810103126106d357888080808b6106c96104499661127c565b9350945050610430565b8880fd5b503d6106a6565b6040513d8b823e3d90fd5b6040513d89823e3d90fd5b506108fc6103fe565b9350509083813d831161074c575b610715818361125a565b81010312610748578a898194926103f08380808080996064610737839b61127c565b989a505095975050505050506103cc565b8a80fd5b503d61070b565b6040513d8d823e3d90fd5b50634e487b7160e01b8852601160045287fd5b634e487b7160e01b875260116004528787fd5b6107999194503d8088833e6102c0818361125a565b928761033f565b6040513d88823e3d90fd5b50fd5b346101aa57806003193601126101aa57546040516001600160a01b039091168152602090f35b50506100cd611141565b346101aa57806003193601126101aa576107f6611182565b600080546001600160a01b0319811682556001600160a01b03167f8be0079c531659141344cd1fd0a4f28419497f9722a3daafe3b4186f6b6457e08280a380f35b346101aa5760403660031901126101aa57610850611701565b602435159061085f82156111da565b60248160018060a01b0360045416604051928380926303cf950f60e01b825260043560048301525afa9081156102cf5782916110c1575b506108a66103808201511561152d565b602435600a6024350204600a148317156110ad57602d60243502926024358404602d1417156110ad57603260648404029260648104840460321460648204151715611099576108fb6064850460648304611757565b83602060018060a01b03600354166064604051809481936323b872dd60e01b835233600484015230602484015260243560448401525af1908115610d7057859161105f575b5015611022576003546002546040516319a8c40360e11b81526001600160a01b0392831692909160209183916004918391165afa9081156107a057908692918391610fdd575b5060405163a9059cbb60e01b81526001600160a01b039091166004820152606460248035600a029190910490820152916020918391829081604481015b03925af1908115610d70578591610f97575b50610a26916109e560209261159e565b6003548286015160405163a9059cbb60e01b81526001600160a01b039182166004820152602481019390935291938492909116908290889082906044820190565b03925af190811561062d578491610f5d575b5015610f0c57600354600254604051630c56ae3b60e01b81526001600160a01b0392831692909160209183916004918391165afa908115610d7057908592918391610ec7575b5060405163a9059cbb60e01b81526001600160a01b039091166004820152606487046024820152916020918391829081604481015b03925af190811561062d578491610e85575b5090610ad26024926115ea565b60055460405163613eeff960e11b8152600480359082015292859184919082906001600160a01b03165afa91821561062d578492610e69575b50815115610d7f57610b2290606483519104611764565b91835b8251811015610c94576005546001600160a01b03166020610b4683866116d7565b516024604051809481936331a9108f60e11b835260048301525afa9081156107a0579085918791610c51575b5060035460405163a9059cbb60e01b81526001600160a01b0392831660048201526024810193909352602091839116818981604481015b03925af19081156107a0578691610c13575b5015610bcf57610bca906116b2565b610b25565b606460405162461bcd60e51b815260206004820152602060248201527f4e465420686f6c646572207368617265207472616e73666572206661696c65646044820152fd5b90506020813d602011610c49575b81610c2e6020938361125a565b81010312610c4557610c3f9061131f565b87610bbb565b8580fd5b3d9150610c21565b9150506020813d602011610c8c575b81610c6d6020938361125a565b81010312610c4557602085610c84610ba99361127c565b915091610b72565b3d9150610c60565b5092939150505b60018060a01b03600454169183670de0b6b3a76400006064816024350494040493803b15610d7b57819060a4604051809481936310a83c8360e31b835260043560048401528160248401528860448401528160648401528960848401525af18015610d7057610d5d575b50602060018060a01b03910151169160405191825260016020830152604082015242606082015233907f2d3b2b61774212dd467f2e5d257768005b2d84ba1ffbf856b802bd78b73ebea6608060043592a46001805580f35b610d6990949194611230565b9284610d05565b6040513d87823e3d90fd5b5080fd5b60035460208481015160405163a9059cbb60e01b81526001600160a01b039182166004820152606490940460248501529596949592935091839160449183918991165af190811561062d578491610e2b575b50610c9b5760405162461bcd60e51b815260206004820152602760248201527f4164646974696f6e616c20617574686f72207368617265207472616e736665726044820152660819985a5b195960ca1b6064820152608490fd5b90506020813d602011610e61575b81610e466020938361125a565b81010312610e5d57610e579061131f565b84610dd1565b8380fd5b3d9150610e39565b610e7e9192503d8086833e610688818361125a565b9085610b0b565b90506020813d602011610ebf575b81610ea06020938361125a565b81010312610e5d5790610ad2610eb760249361131f565b919250610ac5565b3d9150610e93565b919250506020813d602011610f04575b81610ee46020938361125a565b8101031261063857610ab38592610efc60209361127c565b915091610a7e565b3d9150610ed7565b60405162461bcd60e51b815260206004820152602360248201527f417574686f7220646972656374207368617265207472616e73666572206661696044820152621b195960ea1b6064820152608490fd5b90506020813d602011610f8f575b81610f786020938361125a565b81010312610e5d57610f899061131f565b85610a38565b3d9150610f6b565b90506020813d602011610fd5575b81610fb26020938361125a565b8101031261063857610a26916109e5610fcc60209361131f565b925050916109d5565b3d9150610fa5565b919250506020813d60201161101a575b81610ffa6020938361125a565b81010312610c45576109c3869261101260209361127c565b915091610986565b3d9150610fed565b60405162461bcd60e51b8152602060048201526015602482015274151bdad95b881d1c985b9cd9995c8819985a5b1959605a1b6044820152606490fd5b90506020813d602011611091575b8161107a6020938361125a565b810103126106385761108b9061131f565b86610940565b3d915061106d565b634e487b7160e01b83526011600452602483fd5b634e487b7160e01b82526011600452602482fd5b6110d591503d8084833e6102c0818361125a565b83610896565b346101aa57806003193601126101aa576002546040516001600160a01b039091168152602090f35b346101aa57806003193601126101aa576020604051600a8152f35b34610d7b5781600319360112610d7b576004546001600160a01b03168152602090f35b50346100cd5760003660031901126100cd576020604051670de0b6b3a76400008152f35b50346100cd5760003660031901126100cd576020604051602d8152f35b6000546001600160a01b0316330361119657565b606460405162461bcd60e51b815260206004820152602060248201527f4f776e61626c653a2063616c6c6572206973206e6f7420746865206f776e65726044820152fd5b156111e157565b60405162461bcd60e51b815260206004820152602160248201527f54697020616d6f756e74206d7573742062652067726561746572207468616e206044820152600360fc1b6064820152608490fd5b67ffffffffffffffff811161124457604052565b634e487b7160e01b600052604160045260246000fd5b90601f8019910116810190811067ffffffffffffffff82111761124457604052565b51906001600160a01b03821682036100cd57565b67ffffffffffffffff811161124457601f01601f191660200190565b919080601f840112156100cd578251906112c582611290565b916112d3604051938461125a565b8083526020918282870101116100cd5760005b8181106112fb57508260009394955001015290565b85810183015184820184015282016112e6565b519063ffffffff821682036100cd57565b519081151582036100cd57565b6020818303126100cd57805167ffffffffffffffff918282116100cd5701906103a09283838203126100cd5760405193840184811083821117611244576040528251845261137c6020840161127c565b602085015260408301518281116100cd57816113999185016112ac565b604085015260608301518281116100cd57816113b69185016112ac565b606085015260808301518281116100cd57816113d39185016112ac565b608085015260a08301519182116100cd576113ef9183016112ac565b60a083015261140060c0820161130e565b60c083015261141160e0820161131f565b60e08301526101008082015190830152610120808201519083015261014061143a81830161130e565b90830152610160808201519083015261018080820151908301526101a080820151908301526101c080820151908301526101e0808201519060ff821682036100cd5783015261020061148d81830161130e565b9083015261022080820151908301526102406114aa81830161130e565b908301526102606114bc81830161131f565b9083015261028080820151908301526102a080820151908301526102c080820151908301526102e08082015190830152610300808201519083015261032080820151908301526103408082015190830152610360808201519083015261152661038080920161131f565b9082015290565b1561153457565b60405162461bcd60e51b815260206004820152601260248201527114dd1bdc9e481a5cc81858985b991bdb995960721b6044820152606490fd5b3d15611599573d9061157f82611290565b9161158d604051938461125a565b82523d6000602084013e565b606090565b156115a557565b60405162461bcd60e51b815260206004820152601c60248201527f506c6174666f726d20666565207472616e73666572206661696c6564000000006044820152606490fd5b156115f157565b60405162461bcd60e51b815260206004820152601c60248201527f417574686f72207374616b65207472616e73666572206661696c6564000000006044820152606490fd5b9060209081838203126100cd57825167ffffffffffffffff938482116100cd570181601f820112156100cd578051938411611244578360051b90604051946116808584018761125a565b855283808601928201019283116100cd578301905b8282106116a3575050505090565b81518152908301908301611695565b60001981146116c15760010190565b634e487b7160e01b600052601160045260246000fd5b80518210156116eb5760209160051b010190565b634e487b7160e01b600052603260045260246000fd5b600260015414611712576002600155565b60405162461bcd60e51b815260206004820152601f60248201527f5265656e7472616e637947756172643a207265656e7472616e742063616c6c006044820152606490fd5b919082039182116116c157565b811561176e570490565b634e487b7160e01b600052601260045260246000fdfea2646970667358221220d032fb4211d38f323573850ce4dc61704921500f64d58151e85364f87b62c4d264736f6c63430008110033",
  "linkReferences": {},
  "deployedLinkReferences": {}
}