{
  "_format": "hh-sol-artifact-1",
  "contractName": "TreasuryManager",
  "sourceName": "contracts/TreasuryManager.sol",
  "abi": [
    {
      "anonymous": false,
      "inputs": [
        {
          "indexed": true,
          "internalType": "address",
          "name": "previousOwner",
          "type": "address"
        },
        {
          "indexed": true,
          "internalType": "address",
          "name": "newOwner",
          "type": "address"
        }
      ],
      "name": "OwnershipTransferred",
      "type": "event"
    },
    {
      "anonymous": false,
      "inputs": [
        {
          "indexed": false,
          "internalType": "string",
          "name": "poolName",
          "type": "string"
        },
        {
          "indexed": false,
          "internalType": "address",
          "name": "poolAddress",
          "type": "address"
        }
      ],
      "name": "PoolUpdated",
      "type": "event"
    },
    {
      "anonymous": false,
      "inputs": [
        {
          "indexed": true,
          "internalType": "uint256",
          "name": "storyId",
          "type": "uint256"
        },
        {
          "indexed": false,
          "internalType": "uint256",
          "name": "amount",
          "type": "uint256"
        },
        {
          "indexed": false,
          "internalType": "bool",
          "name": "isBNB",
          "type": "bool"
        }
      ],
      "name": "StakeReceived",
      "type": "event"
    },
    {
      "anonymous": false,
      "inputs": [
        {
          "indexed": true,
          "internalType": "uint256",
          "name": "storyId",
          "type": "uint256"
        },
        {
          "indexed": false,
          "internalType": "address",
          "name": "recipient",
          "type": "address"
        },
        {
          "indexed": false,
          "internalType": "uint256",
          "name": "amount",
          "type": "uint256"
        },
        {
          "indexed": false,
          "internalType": "bool",
          "name": "isBNB",
          "type": "bool"
        }
      ],
      "name": "StakeReleased",
      "type": "event"
    },
    {
      "inputs": [],
      "name": "bnbStakingPool",
      "outputs": [
        {
          "internalType": "address",
          "name": "",
          "type": "address"
        }
      ],
      "stateMutability": "view",
      "type": "function"
    },
    {
      "inputs": [
        {
          "internalType": "address",
          "name": "",
          "type": "address"
        }
      ],
      "name": "isAuthorizedCaller",
      "outputs": [
        {
          "internalType": "bool",
          "name": "",
          "type": "bool"
        }
      ],
      "stateMutability": "view",
      "type": "function"
    },
    {
      "inputs": [],
      "name": "lotteryPool",
      "outputs": [
        {
          "internalType": "address",
          "name": "",
          "type": "address"
        }
      ],
      "stateMutability": "view",
      "type": "function"
    },
    {
      "inputs": [],
      "name": "miningPool",
      "outputs": [
        {
          "internalType": "address",
          "name": "",
          "type": "address"
        }
      ],
      "stateMutability": "view",
      "type": "function"
    },
    {
      "inputs": [],
      "name": "owner",
      "outputs": [
        {
          "internalType": "address",
          "name": "",
          "type": "address"
        }
      ],
      "stateMutability": "view",
      "type": "function"
    },
    {
      "inputs": [],
      "name": "platformPool",
      "outputs": [
        {
          "internalType": "address",
          "name": "",
          "type": "address"
        }
      ],
      "stateMutability": "view",
      "type": "function"
    },
    {
      "inputs": [],
      "name": "renounceOwnership",
      "outputs": [],
      "stateMutability": "nonpayable",
      "type": "function"
    },
    {
      "inputs": [
        {
          "internalType": "address",
          "name": "caller",
          "type": "address"
        },
        {
          "internalType": "bool",
          "name": "authorized",
          "type": "bool"
        }
      ],
      "name": "setAuthorizedCaller",
      "outputs": [],
      "stateMutability": "nonpayable",
      "type": "function"
    },
    {
      "inputs": [
        {
          "internalType": "string",
          "name": "poolName",
          "type": "string"
        },
        {
          "internalType": "address",
          "name": "poolAddress",
          "type": "address"
        }
      ],
      "name": "setPool",
      "outputs": [],
      "stateMutability": "nonpayable",
      "type": "function"
    },
    {
      "inputs": [],
      "name": "stakingPool",
      "outputs": [
        {
          "internalType": "address",
          "name": "",
          "type": "address"
        }
      ],
      "stateMutability": "view",
      "type": "function"
    },
    {
      "inputs": [
        {
          "internalType": "address",
          "name": "newOwner",
          "type": "address"
        }
      ],
      "name": "transferOwnership",
      "outputs": [],
      "stateMutability": "nonpayable",
      "type": "function"
    },
    {
      "stateMutability": "payable",
      "type": "receive"
    }
  ],
  "bytecode": "0x6080806040523461005f5760008054336001600160a01b0319821681178355916001600160a01b03909116907f8be0079c531659141344cd1fd0a4f28419497f9722a3daafe3b4186f6b6457e09080a36001805561079f90816100658239f35b600080fdfe60806040818152600480361015610021575b505050361561001f57600080fd5b005b600092833560e01c908162a8693f1461069b575080630c56ae3b146106725780632c8316331461064b57806333518806146106225780634138e0a7146102ad578063454bbd291461025757806359d14b4114610219578063715018a6146101bc57806373397597146101935780638da5cb5b146101675763f2fde38b036100115734610163576020366003190112610163576100bb6106f6565b906100c4610711565b6001600160a01b0391821692831561011157505082546001600160a01b0319811683178455167f8be0079c531659141344cd1fd0a4f28419497f9722a3daafe3b4186f6b6457e08380a380f35b906020608492519162461bcd60e51b8352820152602660248201527f4f776e61626c653a206e6577206f776e657220697320746865207a65726f206160448201526564647265737360d01b6064820152fd5b8280fd5b50503461018f578160031936011261018f57905490516001600160a01b039091168152602090f35b5080fd5b50503461018f578160031936011261018f5760025490516001600160a01b039091168152602090f35b83346102165780600319360112610216576101d5610711565b80546001600160a01b03198116825581906001600160a01b03167f8be0079c531659141344cd1fd0a4f28419497f9722a3daafe3b4186f6b6457e08280a380f35b80fd5b50503461018f57602036600319011261018f5760209160ff9082906001600160a01b036102446106f6565b1681526007855220541690519015158152f35b50503461018f578060031936011261018f576102716106f6565b90602435918215158093036102a957610288610711565b60018060a01b03168352600760205282209060ff8019835416911617905580f35b8380fd5b5082903461018f578260031936011261018f5767ffffffffffffffff9281358481116102a957366023820112156102a9578083013585811161060f57825193601f199687603f81601f8601160116860190868210908211176105fc5784528185526020918286019336602483830101116105f85781889260248693018737870101526024356001600160a01b03811693908490036105f45761034d610711565b83156105c0577fdc69523b01d7dc224001e893cfc6247138a25b7cd5630f036a8c5f24a86c3d7386518220656d696e696e6760d01b8561038b6106c0565b60068152015203610416575050600280546001600160a01b031916831790555b82519383855280518094860152855b84811061040257867ff15d246e3c21dc78e3269cee4f702f7ece0d3b9ea6eed4778455f360cf820023876060818c601f8b8b8b8987848801015285015201168101030190a180f35b8181018301518682016060015282016103ba565b7f8f6d06a17e13511155ffa96004c22afae6a03438b8fed74cb1cf441168df3f1286518220667374616b696e6760c81b8561044f6106c0565b60078152015203610473575050600580546001600160a01b031916831790556103ab565b7f74e3257246eda0ea36b326a2a2efc44bd85f229f19ea8f1079d7de18ad631fd08651822069626e625374616b696e6760b01b856104af6106c0565b600a81520152036104d3575050600680546001600160a01b031916831790556103ab565b7f9ba8f5e26c79b94eec0b96a2610abe847397cb6f2792f2f6cdb526da0e6c305f86518220666c6f747465727960c81b8561050c6106c0565b6007815201520361052d575080546001600160a01b031916831790556103ab565b7f3cb058642d3f17bc460bdd6eab42c21564f6b5228beab6a905a2eb32727c49d1908651902067706c6174666f726d60c01b846105686106c0565b6008815201520361058b5750600380546001600160a01b031916831790556103ab565b60649184519162461bcd60e51b83528201526011602482015270496e76616c696420706f6f6c206e616d6560781b6044820152fd5b5060649184519162461bcd60e51b8352820152600f60248201526e496e76616c6964206164647265737360881b6044820152fd5b8680fd5b8780fd5b634e487b7160e01b875260418252602487fd5b634e487b7160e01b855260418452602485fd5b50503461018f578160031936011261018f5760035490516001600160a01b039091168152602090f35b50346101635782600319360112610163575490516001600160a01b03909116815260209150f35b50503461018f578160031936011261018f5760055490516001600160a01b039091168152602090f35b84903461018f578160031936011261018f576006546001600160a01b03168152602090f35b604051906040820182811067ffffffffffffffff8211176106e057604052565b634e487b7160e01b600052604160045260246000fd5b600435906001600160a01b038216820361070c57565b600080fd5b6000546001600160a01b0316330361072557565b606460405162461bcd60e51b815260206004820152602060248201527f4f776e61626c653a2063616c6c6572206973206e6f7420746865206f776e65726044820152fdfea26469706673582212204768080e46d29529a34619104e306c19eb919ed1bad5dc80c1d952599686b0a864736f6c63430008110033",
  "linkReferences": {},
  "deployedLinkReferences": {}
}